:020000040800F2
:100000007813002065010008590B00082509000835
:10001000550B00087D0700080917000800000000C4
:100020000000000000000000000000006D14000847
:10003000210900080000000069140008C514000828
:100040007F0100087F0100087F0100087F01000890
:100050007F0100087F0100087F0100087F01000880
:100060007F0100087F0100087F010008A508000843
:100070007F0100087F0100087F0100087F01000860
:100080007F0100087F0100087F01000800000000D8
:100090000000000000000000000000007F010008D8
:1000A0007F0100087F0100087F0100087F01000830
:1000B0007F010008951600087F0100087F010008F5
:1000C0007F0100087F0100087F0100087F01000810
:1000D0007F0100087F0100087F0100087F01000800
:1000E0007F0100087F010008C51600087F01000895
:1000F0007F0100087F0100087F0100080000000068
:100100007F010008000000007F0100087F01000857
:100110007F0100087F0100089D1600087F0100088C
:100120007F0100087F0100087F0100087F010008AF
:100130007F01000800000000000000000000000037
:10014000000000000000000000000000B5160008DC
:10015000DFF80CD000F0DCFA004800473936000820
:10016000781300200648804706480047FEE7FEE770
:10017000FEE7FEE7FEE7FEE7FEE7FEE7FEE7FEE757
:10018000DD1400085101000840EA01039B0703D079
:1001900009E008C9121F08C0042AFAD203E011F8C6
:1001A000013B00F8013B521EF9D27047D2B201E088
:1001B00000F8012B491EFBD270470022F6E710B56C
:1001C00013460A4604461946FFF7F0FF204610BDC5
:1001D0002DE9FE4F804681EA0300C00F0C460090D7
:1001E00021F0004123F00045B8EB0200A94105D2FF
:1001F0004046214690461C460B46024623F00040EE
:10020000104347D0270DC7F30A00C3F30A510290E9
:10021000401A019040286BDAC3F3130040F4801BAE
:100220000098924620B10023D2EB030A63EB0B0B3C
:1002300001985946C0F14002504600F0ABF906461D
:100240000D4650465946019A00F0C3F910EB0800DC
:100250006141002487EA115284EAE7731A4340D0CF
:10026000009A62B3019A012A4FEA075215DC001B7B
:1002700061EB02014FF0004202EA0752CDE9004271
:10028000001C41F5801132462B4600F0C3F903B043
:10029000BDE8F08F40462146F9E7001B61EB020103
:1002A000001C41F5801300185B412018A2F50017CF
:1002B00047EB030140EAD570B6196D4111E06D08B6
:1002C0004FEA360645EAC0754FEA0752001B61EB5C
:1002D0000201001C41F5801149084FEA3000001965
:1002E000514132462B4603B0BDE8F04F00F083B9D0
:1002F0000098012240000023D0EB020263EBE07380
:10030000009821464FEAE074B8EB000061EB04016D
:10031000E9E783F000435BE781F0004158E72DE90E
:10032000FE4F81EA030404F0004421F000410094F0
:100330004FF0000B23F0004350EA01045ED052EA74
:1003400003045BD0C3F30A54C1F30A552C44A4F24E
:10035000F3340194A0FB0254C1F3130141F4801162
:10036000C3F3130343F4801301FB024400FB034E69
:10037000840A970A44EA815447EA8357A4FB076832
:1003800002958D0A05FB07854FEA932C04FB0C545C
:100390002705029D4FEA065847EA1637B5EB0805D0
:1003A0006EEB070C870E920E47EA811742EA831222
:1003B000A7FB0201B6EB0B0164EB00042B0D43EA33
:1003C0000C335E1844EB1C50DA465146E7FB020141
:1003D000C5F313044FEA0B3343EA14534FEA0432D4
:1003E000019C43EA0603A4F10C040294009CCDE9AD
:1003F00000B400F00FF903B0BDE8F08F0020014613
:10040000F9E72DE9F04D81EA030404F0004B21F0F7
:10041000004514464FF0000A23F0004150EA05025F
:1004200020D054EA01021DD0C5F30A570246C5F395
:100430001303C1F31300C1F30A5640F4801543F4CB
:100440008013A7EB0608101BD64608F2FD3873EBA5
:10045000050002D308F1010801E092185B41B8F1F0
:10046000000F03DA00200146BDE8F08D00204FF4B4
:100470008011064684460EE0171B73EB050705D373
:10048000121B63EB050306434CEA010C49084FEAD3
:10049000300092185B4150EA0107EDD152EA0300A7
:1004A00012D082EA040083EA0501084305D0101B3C
:1004B000AB4106D20122002306E000224FF00043A8
:1004C00002E06FF0010253101AEB06004CEB0851EA
:1004D00010EB0A0041EB0B01BDE8F04D00F08BB8CA
:1004E00000F0004230F000400AD0C10D01F560710B
:1004F000C0F3160042EA0151C20840071143704799
:1005000000200146704730B50B46014600202022EE
:10051000012409E021FA02F59D4205D303FA02F510
:10052000491B04FA02F52844151EA2F10102F1DC70
:1005300030BD2DE9F05F0546002092469B46884677
:100540000646814640241BE028464146474622464F
:1005500000F02FF853465A46C01A914110D3114665
:100560001846224600F016F82D1A67EB01084F4690
:1005700022460120002100F00DF817EB00094E4142
:10058000201EA4F10104DFDC484631462A464346DA
:10059000BDE8F09F202A04DB203A00FA02F1002097
:1005A00070479140C2F1200320FA03F319439040B1
:1005B0007047202A04DB203A21FA02F0002170471C
:1005C00021FA02F3D040C2F12002914008431946BB
:1005D0007047202A06DBCB17203A41FA02F043EAA3
:1005E000E07306E041FA02F3D040C2F120029140EC
:1005F00008431946704710B5141E73F1000408DA59
:10060000401C41F1000192185B411A4301D120F0D6
:10061000010010BD2DE9F04D92469B4611B1B1FA93
:1006200081F202E0B0FA80F220329046FFF7B2FF8A
:1006300004460F4640EA0A0041EA0B0153465A4677
:10064000084313D0114653EA010019D0C8F1400203
:100650005046FFF7AEFF05460E4650465946424605
:10066000FFF798FF084305D0012004E020463946F3
:10067000BDE8F08D0020054346EAE0762C43374381
:100680000A986305E40AA0EB08000022FD0A44EA88
:1006900047540A3002D500200146E9E70105101948
:1006A0006941DDE9084500196941BDE8F04DA2E75F
:1006B000C1F30A52C1F3130140F2FF3341F4801138
:1006C0009A4202DA00200146704740F233439A42D0
:1006D000A2F2334202DC5242FFF76BBFFFF75ABF70
:1006E00030B5041E71F1000404DB4FF000444042B9
:1006F00064EB0101141E73F1000405DB1C464FF08E
:100700000043524263EB0403994208BF904230BD5C
:100710001CB509480090094801900546009C06E078
:10072000E06840F0010394E8070098471034AC42B9
:10073000F6D3FFF711FD0000BC810008DC81000842
:1007400030B58C1810F8012B12F00F0301D110F8FE
:10075000013B120906D110F8012B03E010F8015BF0
:1007600001F8015B5B1EF9D101E001F8013B521E6B
:10077000FBD1A142E6D3002030BD0000FFE7FEE739
:1007800040F63021C2F200010020C4F2401088601F
:100790004FF07C50C8600022C4F2C0120A61486168
:1007A0000A2088764CF6C120C3F68170C8624DF2EB
:1007B0000A70CBF6235008634FF4006008834EF6AE
:1007C000BA00C4F2BE20C86191ED071AB7EE000A64
:1007D00080EE011A81ED091A91F91A0001EE100A52
:1007E000B8EEC12A9FED2D1A81EE021A9FED2C2A38
:1007F00021EE021A81ED0A1A91ED0A1A80EE010A21
:1008000081ED080A91ED020A91ED071A20EE010A26
:10081000BDEEC00A10EE100A088091ED030A91EDBA
:10082000082A91ED0B3A91ED0C1A20EE030A30EEF6
:10083000010A088B01EE100AB8EEC11A20EE020A76
:1008400030EE010ABDEEC00A10EE100A488091EDAC
:10085000040A91ED071A20EE010ABDEEC00A10EE5F
:10086000100A8880088B00EE100AB8EEC00A91EDDD
:10087000051A91ED082A91ED0B4A91ED0C3A21EE03
:10088000041A31EE031A21EE021A30EE410ABDEECF
:10089000C00A10EE100AC880704700BF9AD9CC3742
:1008A00000007A4480B50020C4F202000021022238
:1008B00002F0EEF998B3FFE740F60000C4F2010041
:1008C0004FF4806102F03CFB40F2B850C2F20000ED
:1008D000828840F60821C2F200010A8442888A8494
:1008E000C2884A840089C88340F6EC10C2F2000036
:1008F0008078C00718B1FFE700F016F8FFE740F670
:100900000000C4F201004FF4806102F011FB0020EE
:10091000C4F202000021012202F0A8F9FFE780BD25
:1009200070470000FFE7FEE780B588B00020079021
:1009300040F6EC10C2F20000C078002878D1FFE742
:1009400040F6EC10C2F200000079A0BBFFE740F6D1
:100950003020C2F20000008800EE100AB8EE400A13
:1009600040F60820C2F20000B0F9180001EE100AAB
:10097000F8EEC10A40F62430C2F200009FED741A6E
:1009800006F00CF98DED070A9DED070ABDEEC00AD1
:1009900010EE101A40F28000C2F200000690818032
:1009A00081880022059202F00DFA05990698808848
:1009B00002F0F6F93BE040F6EC10C2F200000079DC
:1009C000012833D1FFE740F63020C2F20000408812
:1009D00000EE100AB8EE400A40F60820C2F200000D
:1009E000808C01EE100AF8EE410A40F6AC20C2F20B
:1009F00000009FED571A06F0D1F88DED070A9DED26
:100A0000070ABDEEC00A10EE101A40F28000C2F2D2
:100A100000000490818081880022039202F0D2F9C4
:100A200003990498808802F0BBF9FFE7FFE78CE0A8
:100A300040F6EC10C2F20000C078012840F084803B
:100A4000FFE740F6EC10C2F200000079C0BBFFE700
:100A500040F63020C2F20000808800EE100AB8EEA6
:100A6000400A40F60820C2F20000B0F9140001EE7E
:100A7000100AF8EEC10A40F6E820C2F200009FED2D
:100A8000341A06F08BF88DED070A9DED070ABDEECE
:100A9000C00A10EE101A40F28000C2F2000002906C
:100AA000012202F08FF901460298C180C28840F607
:100AB000B831891AC180C088002102F071F942E082
:100AC00040F6EC10C2F20000007901283AD1FFE7AD
:100AD00040F63021C2F20001088BC988411A00EEAD
:100AE000101AB8EEC00A40F60821C2F20001098CC3
:100AF000401A01EE100AF8EEC10A40F67020C2F268
:100B000000009FED131A06F049F88DED070A9DEDE0
:100B1000070ABDEEC00A10EE101A40F28000C2F2C1
:100B200000000190012202F04DF901460198C180B8
:100B3000C28840F6B831891AC180C088002102F00D
:100B40002FF9FFE7FFE7FFE7FFE708B080BD00BF31
:100B500017B7D137FFE7FEE7FFE7FEE781B08DF873
:100B600003009DF9031001F01F02012090404A0983
:100B70004EF20011CEF2000141F8220001B07047A0
:100B800088B0079006910592079800F0070004903E
:100B90000498C0F10700052803D3FFE70420019063
:100BA00004E00498C0F107000190FFE7019803906A
:100BB00004980430062803D8FFE70020009003E0E3
:100BC000049803380090FFE7009802900698039974
:100BD000012202FA01F101390840029B984005996F
:100BE0009A40013A1140084308B070474EF60C5045
:100BF000CEF200000068C0F30220704782B08DF88A
:100C0000070000919DF90700B0F1FF3F0CDCFFE702
:100C1000009800019DF8071001F00F014EF61452E4
:100C2000CEF20002885409E0009800019DF90710F7
:100C30004EF20042CEF200028854FFE702B0704745
:100C400082B08DF8070000919DF90700B0F1FF3FD9
:100C50000CDCFFE7009800019DF8071001F00F0180
:100C60004EF61452CEF20002885409E000980001BA
:100C70009DF907104EF20042CEF200028854FFE7C1
:100C800002B0704781B000208DF80200FFE79DF8A8
:100C90000200072823DCFFE700208DF80300FFE7B0
:100CA0009DF803007F2813DCFFE79DF8021040F257
:100CB000A810C2F2000000EBC1119DF80320002033
:100CC0008854FFE79DF8030001308DF80300E7E743
:100CD000FFE79DF8020001308DF80200D7E701B070
:100CE0007047000083B0ADF80A00ADF808108DF829
:100CF00007208DF80630BDF80800ADF80200FFE7C8
:100D0000BDF90200BDF908109DF806201144884283
:100D10004ADAFFE7BDF80A00ADF80400FFE7BDF9C5
:100D20000400BDF90A109DF807201144884234DA06
:100D3000FFE7BDF90400002828D4FFE7BDF904004F
:100D40007F2823DCFFE7BDF9020000281ED4FFE75F
:100D5000BDF902003F2819DCFFE7BDF9020000EBF6
:100D6000507121F00702821A012000FA02F36FF09D
:100D7000700000EA011140F2A810C2F20000014424
:100D8000BDF90420885C98438854FFE7FFE7BDF86D
:100D900004000130ADF80400C1E7FFE7BDF8020030
:100DA0000130ADF80200ABE703B0704780B582B008
:100DB00000F0C0FA642001F0B9FD0020009000F0BE
:100DC00035FA1420019001F0B1FD012000F02EFA57
:100DD000019801F0ABFDAE2000F042FAD52000F002
:100DE0003FFA802000F03CFAA82000F039FA3F20BA
:100DF00000F036FAD32000F033FA009800F030FA11
:100E0000402000F02DFAA12000F02AFAC82000F0BE
:100E100027FADA2000F024FA122000F021FA8120CB
:100E200000F01EFACF2000F01BFAD92000F018FACB
:100E3000F12000F015FADB2000F012FA302000F06B
:100E40000FFAA42000F00CFAA62000F009FA8D2079
:100E500000F006FA019800F003FAAF2000F000FA63
:100E6000FFF710FF00F088F902B080BD80B5C6B072
:100E7000ADF81601ADF814118DF81321439348A86D
:100E800002904399029A03A8019005F065FF019A28
:100E9000BDF91601BDF914119DF8133100F040F9A8
:100EA00046B080BD80B582B08DF807008DF8061081
:100EB0009DF8070040F0B00000F0D2F99DF8060060
:100EC0000009103000F0CCF99DF8060000F00F008A
:100ED00000F0C6F902B080BD80B584B0ADF80E0058
:100EE000ADF80C108DF80B208DF80A309DF80A0033
:100EF000082815D1FFE7BDF90E00BDF90C109DF8CB
:100F00000B3047F69602C0F6000202EB0312A2F580
:100F100000726B461A600822102300F01FF81BE0D5
:100F20009DF80A00062816D1FFE7BDF90E00BDF9AD
:100F30000C109DF80B2002EB420347F25C62C0F6F6
:100F4000000202EB4302C03A6B461A6006220823F5
:100F500000F004F8FFE7FFE704B080BD80B584B07F
:100F6000DDF818C0ADF80E00ADF80C108DF80B20B0
:100F70008DF80A30002000908DF809008DF80800E7
:100F8000BDF90E00BDF90C109DF80B209DF80A303C
:100F9000FFF7A8FE00988DF80800FFE79DF808000D
:100FA0009DF80A10013901EB5172012101EBE201B8
:100FB000884280F2B280FFE700208DF80900FFE749
:100FC0009DF809009DF80B10884280F29F80FFE792
:100FD000BDF90E009DF809100844002800F18F802B
:100FE000FFE7BDF90E009DF8091008447F2800F3C3
:100FF0008680FFE7BDF90C0000EB5070C008ADF82B
:101000000600BDF90C0000EB507121F00701401AF9
:10101000ADF80400BDF90C00B0F1FF3F0BDCFFE7B9
:10102000BDF806000138ADF80600BDF80400083030
:10103000ADF80400FFE7BDF906009DF8081008446C
:10104000002826D4FFE7BDF906009DF808100844E3
:1010500007281EDCFFE706989DF808109DF80B3066
:101060009DF8092011FB0323C05CBDF9043000FA90
:1010700003F3BDF90600014440F2A810C2F20000DB
:1010800000EBC111BDF90E000244885C184388547E
:10109000FFE7BDF906009DF808100844013000285C
:1010A0002CD4FFE7BDF906009DF808100844013074
:1010B000072823DCFFE706989DF808109DF80B2011
:1010C0009DF8093011FB0232805CBDF90420C2F1A9
:1010D000080220FA02F2BDF90600014440F2A8100D
:1010E000C2F2000000EBC110BDF90E10194401441A
:1010F00091F88000104381F88000FFE7FFE7FFE7E9
:101100009DF8090001308DF8090059E7FFE79DF8C7
:10111000080001308DF8080040E704B080BD0000F1
:1011200080B584B0ADF80E00ADF80C1002928DF8C9
:10113000073000208DF80600FFE702989DF80610A2
:10114000405CB8B1FFE7BDF80E009DF806C09DF801
:1011500007301CFB0300BDF90C10029A12F80C209A
:1011600000B2FFF7B9FEFFE79DF8060001308DF8E9
:101170000600E2E704B080BD80B582B000208DF8A3
:101180000700FFE79DF80700072817DCFFE79DF839
:1011900007000021FFF786FE9DF8071040F2A81017
:1011A000C2F2000000EBC110802100F081F8FFE7DF
:1011B0009DF8070001308DF80700E3E702B080BD1D
:1011C00080B582B08DF807009DF8070048B1FFE7B1
:1011D00040F60000C4F201004FF4004101F0B0FEFF
:1011E00008E040F60000C4F201004FF4004101F0B5
:1011F0009FFEFFE702B080BD80B582B08DF807008A
:101200009DF8070040B1FFE740F60040C4F201003E
:10121000402101F095FE07E040F60040C4F20100D5
:10122000402101F085FEFFE702B080BD80B582B0AD
:101230008DF807009DF8070040B1FFE740F6004039
:10124000C4F20100102101F07BFE07E040F60040EF
:10125000C4F20100102101F06BFEFFE702B080BD77
:1012600080B582B08DF807000020FFF7C5FFFFE7CB
:1012700043F60040C4F20000022102F0D9FD08B993
:10128000FFE7F5E79DF8071043F60040C4F20000C1
:1012900002F08AFDFFE743F60040C4F2000080211F
:1012A00002F0C6FD012801D1FFE7F4E702B080BDDE
:1012B00080B582B001908DF803109DF8030008B945
:1012C000FFE735E00120FFF797FF00208DF80200CF
:1012D000FFE79DF802009DF80310884228DAFFE737
:1012E000FFE743F60040C4F20000022102F0A0FD37
:1012F00008B9FFE7F5E701989DF80210415C43F655
:101300000040C4F2000002F04FFDFFE743F600404A
:10131000C4F20000802102F08BFD012801D1FFE71B
:10132000F4E7FFE79DF8020001308DF80200D0E7F6
:1013300002B080BD80B58EB040F2036002F098FC30
:1013400040F20F7002F094FC40F2026002F090FC58
:101350004FF4C06002F08CFC40F20020C0F230007C
:101360000121069101F04CFF40F60000C4F201009B
:1013700018210391032202924FF4004301F066FE0C
:10138000029A039940F60040C4F20100019028231C
:1013900001F05CFE0198029A1021502301F056FEE4
:1013A00043F60040C4F20000059002F007FD0598E6
:1013B00002F090FD07A8049002F096FD039B0499AB
:1013C0000598002208924FF4827CCDF81CC0099247
:1013D0004FF0020CCDF830C00A920D930B9202F040
:1013E0003FFD059802F0D6FC0698FFF7E9FE069847
:1013F000FFF71CFF0698FFF7FFFE0EB080BD000050
:1014000080B58AB009908DED080ACDED070A8DED03
:10141000061ACDED051A8DED042ACDED032A8DEDCA
:10142000023ACDED013A08980999086007980999A0
:101430004860069809998860059809998861049818
:101440000999486103980999086102980999C86047
:1014500001980999C861099805F08AFB099901204A
:1014600081F839000AB080BD704700007047000065
:1014700080B582B0009000980138B0F1807F03D32E
:10148000FFE70120019019E0009801384EF21401A5
:10149000CEF2000108604FF0FF300F21FFF7AEFBE6
:1014A0004EF21801CEF20001002008604EF2100248
:1014B000CEF20002072111600190FFE7019802B00F
:1014C00080BD000080B540F67431C2F200010868AA
:1014D0000130086001F03EFA80BD000080B584B0A4
:1014E0004EF68851CEF20001086840F470000860A2
:1014F00041F20001C4F20201086840F001000860F6
:10150000FFE741F20000C4F20200006880070028F3
:1015100001D4FFE7F5E741F20400C4F202000068DD
:1015200000F00C00082840F08080FFE7FFE7002073
:101530000390FFE703984F2805D8FFE7FFE70398DC
:1015400001300390F6E741F20401C4F20201086899
:101550000290029820F0F0000290029840F0800083
:1015600002900298086000200390FFE703984F283C
:1015700005D8FFE7FFE7039801300390F6E741F253
:101580000401C4F2020108680290029820F0F00001
:101590000290029840F090000290029808600020AB
:1015A0000390FFE703984F2805D8FFE7FFE703986C
:1015B00001300390F6E741F20401C4F20201086829
:1015C0000290029820F0F0000290029840F0A000F3
:1015D00002900298086000200390FFE703984F28CC
:1015E00005D8FFE7FFE7039801300390F6E741F2E3
:1015F0000401C4F2020108680290029820F0F00091
:101600000290029840F0B00002900298086000201A
:101610000390FFE703984F2805D8FFE7FFE70398FB
:1016200001300390F6E7FFE7FFE741F20401C4F25F
:1016300002010091086820F003000860C82000F053
:1016400065F8009A41F20001C4F2020108684FF601
:10165000FF73CEF6F6231840086041F20803C4F287
:1016600002034FF47F00186000200190106041F2E7
:101670002C02C4F202021060086820F48020086086
:1016800002F0F4FC01994FF0006002F0DFF804B0C2
:1016900080BD000080B503F03FFE80BD80B501F045
:1016A000DBFB41F20000C4F20000012103F0CCF9A1
:1016B00080BD000080B540F2C450C2F2000004F0CA
:1016C00037FE80BD80B540F2C450C2F20000807980
:1016D000A0B1FFE7FFF702FF40F67030C2F2000052
:1016E000006802F001FB40F20C5002F0C1FA40F237
:1016F000C450C2F2000003F0A3FAFFE74FF48020C9
:1017000001F0A0FB80BD0000FFE7FEE782B0019082
:1017100000200090FFE70098019901EB8101B0EBF8
:10172000410F05D2FFE7FFE7009801300090F2E794
:1017300002B0704783B002908DF8071000920298B3
:10174000D0F8B00380688078009908800298D0F8BB
:10175000B003806803B0704783B002908DF8071023
:1017600000920298D0F8B00341688878C97840EABE
:101770000120009908800298D0F8B003406803B0B7
:101780007047000083B002908DF807100092029815
:10179000D0F8B00300680078009908800298D0F86B
:1017A000B003006803B0704780B586B00490039121
:1017B00000208DF80B000398007800F0030001462C
:1017C000019140B1FFE7019801281ED0FFE7019881
:1017D00002281BD042E0049890F8CE00022806D0E0
:1017E000FFE7049890F8CE0003280DD1FFE7039897
:1017F0004088012807D1FFE70499002081F8A2035F
:101800008DF817002FE0FFE729E028E00398808893
:101810008DF80B00049890F8CE0003281DD1FFE747
:1018200003984088A8B9FFE79DF80B0088B1FFE74F
:101830009DF80B0080280CD0FFE704989DF80B1052
:1018400004F052FA0498D0F8B413CA680399904788
:10185000FFE700208DF8170005E000E0FFE701201A
:101860008DF81700FFE79DF8170006B080BD000057
:1018700085B00490039101208DF80B000498D030BE
:101880000190049890F8CE0001460091022804D0FF
:10189000FFE7009803280AD013E0049890F8CC00E2
:1018A00020B9FFE700208DF80B00FFE70AE004985D
:1018B00090F8CC0020B1FFE700208DF80B00FFE787
:1018C00000E0FFE79DF80B0040B9FFE70498CC303B
:1018D00001998860019901204861FFE79DF80B009C
:1018E00005B0704780B586B00590049100208DF852
:1018F0000F008DF80E0001208DF80D000598D030F6
:1019000002900498007800F003000146019150B164
:10191000FFE70198012800F07580FFE70198022891
:1019200000F0798078E00498C0788DF80F00049872
:1019300040888DF80E009DF80F0001380146009197
:101940000E285DD80099DFE801F008243750505088
:1019500050505B5B5B5B5B5B51009DF80F1040F28E
:101960008C10C2F2000000EB810050F8043C059896
:101970009DF80E10029A14329847029988600498D4
:10198000C088402804D1FFE7029908204861FFE79A
:1019900037E09DF80F1040F28C10C2F2000000EB0F
:1019A000810050F8043C05989DF80E10029A1432FC
:1019B00098470299886024E09DF80E00092813DCFE
:1019C000FFE79DF80F1040F28C10C2F2000000EB10
:1019D000810050F8043C05989DF80E10029A1432CC
:1019E000984702998860FFE70BE00AE005989DF8A8
:1019F0000E10029A1432FFF79DFE0299886000E0F3
:101A0000FFE70AE00598D0F8B413CA680499904734
:101A10008DF80D0001E000E0FFE70298406948B34F
:101A2000FFE70498C08828B3FFE70298406904994B
:101A3000C988884215D2FFE7029948698988884297
:101A40000ED3FFE7029842698188B2FBF1F000FBF8
:101A5000112028B9FFE70599012081F8AD03FFE7C0
:101A600004E00498C08802994861FFE700208DF8DF
:101A70000D00FFE79DF80D0006B080BD85B0039016
:101A80000291039890F8CE0001460091012808D0F9
:101A9000FFE70098022805D0FFE70098032802D04E
:101AA00017E017E016E002980079012810D8FFE748
:101AB0000398D03001900398D0F8B4030130019915
:101AC000886001990120486100208DF8130005E02D
:101AD00000E0FFE701208DF81300FFE79DF81300F9
:101AE00005B0704785B004900391039880888DF805
:101AF0000B0001208DF80A000498D0300190039863
:101B0000007800F003000146009140B1FFE7009823
:101B1000012836D0FFE70098022842D072E00498EE
:101B200090F8CE00022806D0FFE7049890F8CE0087
:101B3000032825D1FFE7049890F8A00338B1FFE708
:101B400040F2B451C2F200010120087006E040F2F8
:101B5000B451C2F2000100200870FFE7049890F829
:101B6000A20348B1FFE740F2B451C2F20001087885
:101B700040F002000870FFE700208DF80A00FFE740
:101B800041E0049890F8CE00032809D1FFE79DF8C2
:101B90000B00012804D8FFE700208DF80A00FFE7BA
:101BA00031E0049890F8CE0003282AD1FFE79DF891
:101BB0000B000006002811D5FFE704989DF80B10D4
:101BC00001F07F0101EB410100EBC10090F8D20070
:101BD00040F2B451C2F2000108700EE004989DF882
:101BE0000B1001EB410100EBC10090F83A0240F20A
:101BF000B451C2F200010870FFE700208DF80A001E
:101C0000FFE700E0FFE79DF80A0050B9FFE7019900
:101C100040F2B450C2F2000088600199022048618D
:101C2000FFE79DF80A0005B07047000082B0019000
:101C30000091012002B0704780B584B002900191FC
:101C40000198808850BBFFE70198C08830BBFFE750
:101C50000198807800F07F00029981F8CD00029809
:101C600090F8CE00032818D0FFE7029890F8CD1026
:101C700003F00AFE029890F8CD0028B1FFE7029920
:101C8000022081F8CE0004E00299012081F8CE0004
:101C9000FFE700208DF80F0004E0FFE701208DF83A
:101CA0000F00FFE79DF80F0004B080BD80B588B03D
:101CB0000790069101208DF817000698817840F270
:101CC000B650C2F2000001700078012877D8FFE713
:101CD000079890F8CE000146049101286CD0FFE7E8
:101CE0000498022804D0FFE70498032820D064E079
:101CF00040F2B650C2F200000078A8B1FFE70798A2
:101D0000D0F8B4134A6840F2B651C2F20001039110
:101D10000978904703980078079981F8CC000799D3
:101D2000032081F8CE00FFE700208DF8170045E082
:101D300040F2B650C2F200000078A8B9FFE7079859
:101D4000D0F8B4138A6840F2B651C2F20001029191
:101D50000978904702980078079981F8CC00079994
:101D6000022081F8CE0023E040F2B650C2F200001B
:101D70000078079991F8CC10884217D0FFE70798B0
:101D8000D0F8B4138A6840F2B651C2F20001019152
:101D90000978904701990878079A82F8CC0007984B
:101DA000D0F8B42352680978904700E0FFE7FFE7D6
:101DB00000208DF8170001E000E0FFE7FFE79DF845
:101DC000170008B080BD000082B001900091002093
:101DD00002B0704780B586B00490039100208DF862
:101DE0000B000398007800F003000146019140B118
:101DF000FFE7019801281FD0FFE7019802281CD0B7
:101E00003DE0049890F8CE00022806D0FFE7049841
:101E100090F8CE0003280ED1FFE7039840880128F0
:101E200005D1FFE70499012081F8A203FFE7002014
:101E30008DF8170028E023E022E0039880888DF8D1
:101E40000B00049890F8CE00032817D1FFE7039801
:101E5000408878B9FFE79DF80B0058B1FFE79DF87F
:101E60000B00802806D0FFE704989DF80B1003F0C4
:101E70000DFFFFE700208DF8170005E000E0FFE709
:101E800001208DF81700FFE79DF8170006B080BD10
:101E900080B584B002900191029890F8CE0001467E
:101EA0000091012808D0FFE70098022805D0FFE73D
:101EB0000098032802D018E018E017E00198007994
:101EC000012811D8FFE70298D0F8B403006938B1AF
:101ED000FFE70298D0F8B4130A6901999047FFE729
:101EE00000208DF80F0005E000E0FFE701208DF8ED
:101EF0000F00FFE79DF80F0004B080BD82B0019095
:101F00000091002002B0704784B003908DF80B1050
:101F100001920398D0F8B003C0689DF80B1050F8F8
:101F2000210000900098007801990880009804B082
:101F30007047000080B586B042F20040C4F2010054
:101F4000059000F0B7F80020039000F013FA059810
:101F50004FF480710122049200F0D6FA039905989B
:101F600000F094F804990598052200F057F80399B9
:101F7000049B05980222019200F00CFA039A049B3C
:101F80000598194600F006FA0199049B0598062267
:101F900000F000FA049B0598032102911A4600F014
:101FA000F9F9029A049B0598042100F0F3F9039AC9
:101FB0000499059800F0B4F9049A0598114600F0C8
:101FC00073F9059800F060F9049800F0AFFC0598EB
:101FD00000F006F8059800F04DF906B080BD00004D
:101FE00081B000900099886840F008008860FFE7A1
:101FF000009880680007002801D5FFE7F8E70099FE
:10200000886840F004008860FFE700988068400717
:10201000002801D5FFE7F8E701B0704784B00390CE
:102020008DF80B1001929DF80B00014600910128DC
:1020300004D0FFE70098022812D023E00399C86A71
:1020400020F47000C86201990020CFF6F07000EB18
:1020500001503FFA80F20399C86A1043C86212E047
:102060000399886B20F44010886301990020CFF613
:10207000F07000EB015000F440120399886B10439C
:10208000886300E0FFE704B07047000082B0019071
:102090000091009830B1FFE70199886840F4006032
:1020A000886005E00199886820F400608860FFE797
:1020B00002B0704780B584B003900398029042F25A
:1020C0000041C4F20101884208D0FFE7029842F6BD
:1020D0000001C4F20101884209D011E040F2093048
:1020E000019001F0EDFD019801F0D6FD09E040F20C
:1020F0000A30009001F0E4FD009801F0CDFD00E011
:10210000FFE704B080BD000083B00020ADF80A00F6
:1021100040F60820C2F20000B0F9160040F6302167
:10212000C2F20001098B401A01280EDBFFE740F6DE
:102130000820C2F20000B0F9160040F63021C2F2C9
:102140000001098B401A01900DE040F63020C2F2E8
:102150000000008B40F60821C2F20001B1F9161010
:10216000401A0190FFE70198ADF80A00BDF90A0096
:1021700000EE100AB8EEC00A40F63021C2F20001AB
:1021800091ED0A1A20EE010A40F60820C2F2000082
:1021900080ED020AB0F91A00098B401A01280EDB03
:1021A000FFE740F60820C2F20000B0F91A0040F63E
:1021B0003021C2F20001098B401A00900DE040F678
:1021C0003020C2F20000008B40F60821C2F200016C
:1021D000B1F91A10401A0090FFE70098ADF80A0014
:1021E000BDF90A0000EE100AB8EEC00A40F6302031
:1021F000C2F2000090ED0A1A20EE010A40F6082013
:10220000C2F2000080ED030A90ED030A9FED181A58
:10221000B4EE410AF1EE10FA07DAFFE740F60821C2
:10222000C2F200010020C860FFE740F60820C2F2B9
:102230000000B0F9141000EE101AB8EEC00A40F613
:102240003021C2F2000191ED091A20EE010A80ED61
:10225000000AB0F9182000EE102AB8EEC00A91ED7D
:10226000091A20EE010A80ED010A03B0704700BF91
:102270006F1283BA81B000900099886840F4807032
:10228000886001B07047000081B0009000988068BD
:10229000C00730B9FFE70099886840F00100886006
:1022A000FFE701B07047000082B001908DF8031085
:1022B0008DF802209DF80200C0B1FFE79DF80300F1
:1022C000C00730B1FFE70199886840F4801088604A
:1022D000FFE79DF803008007002806D5FFE7019976
:1022E000886840F400408860FFE717E09DF803002D
:1022F000C00730B1FFE70199886820F4801088603A
:10230000FFE79DF803008007002806D5FFE7019945
:10231000886820F400408860FFE7FFE702B070475C
:1023200084B003908DF80B1001929DF80B000146CC
:102330000091012804D0FFE7009802280BD015E097
:102340000399886820F460208860019A039988685E
:10235000104388600BE00399886820F4E0408860AF
:10236000019A039988681043886000E0FFE704B091
:102370007047000081B0009042F20441C4F20101B4
:10238000086820F470200860009A0868104308600C
:1023900001B0704785B004908DF80F108DF80E20B5
:1023A00002939DF80F0005281CDCFFE70498406BA2
:1023B00001909DF80F0000EB80011F2000FA01F151
:1023C0000198884301909DF80E009DF80F1001EBD5
:1023D000810100FA01F101980843019001980499E4
:1023E00048634AE09DF80F000B281FDCFFE70498C4
:1023F000006B01909DF80F0000EB8000A0F11E0122
:102400001F2000FA01F10198884301909DF80E0009
:102410009DF80F1001EB81011E3900FA01F10198BE
:102420000843019001980499086325E09DF80F0086
:102430000F281FDCFFE70498C06A01909DF80F0089
:1024400000EB8000A0F13C011F2000FA01F101988F
:10245000884301909DF80E009DF80F1001EB81015B
:102460003C3900FA01F10198084301900198049960
:10247000C86200E0FFE7FFE7FFE79DF80E000928CC
:102480001BDCFFE70498006900909DF80E0000EB4C
:102490004001072000FA01F100988843009002985B
:1024A0009DF80E1001EB410100FA01F1009808437C
:1024B000009000980499086124E09DF80E0011280E
:1024C0001EDCFFE70498C06800909DF80E0000EB4A
:1024D0004000A0F11E01072000FA01F10098884396
:1024E000009002989DF80E1001EB41011E3900FA90
:1024F00001F100980843009000980499C86000E03A
:10250000FFE7FFE705B0704783B0029001918DF8B7
:1025100003209DF8030020B3FFE79DF80500C007E6
:1025200030B1FFE70299486840F480704860FFE7E7
:102530009DF805004007002806D5FFE70299486886
:1025400040F480604860FFE79DF8040080070028A1
:1025500006D5FFE70299886840F002008860FFE72F
:1025600023E09DF80500C00730B1FFE702994868F5
:1025700020F480704860FFE79DF8050040070028C0
:1025800006D5FFE70299486820F480604860FFE7BD
:102590009DF804008007002806D5FFE702998868A7
:1025A00020F002008860FFE7FFE703B070470000FB
:1025B00083B001900198D0F8B803A8B1FFE7019863
:1025C000D0F8B8030090009890F8490001280AD18B
:1025D000FFE7009890F84800012804D1FFE70020A9
:1025E0008DF80B0004E0FFE701208DF80B00FFE7FA
:1025F0009DF80B0003B0704782B001900198D0F8AD
:10260000B80300900198D0F8B4034078FF2818D0A0
:10261000FFE70099086C0865009991F8440081F87B
:102620005400009991F8450081F85500009991F8FF
:10263000460081F856000198D0F8B413FF20487086
:10264000FFE7002002B0704780B584B00390039884
:10265000D0F8B80302900298C06C78B1FFE70299F5
:102660000020019081F848000398029AD36C8121E0
:1026700003F090FA01980299C864FFE704B080BDA6
:1026800080B582B001908DF803100198812103F08C
:1026900033FA0198032103F02FFA0198822103F005
:1026A0002BFA002002B080BD80B584B003908DF875
:1026B0000B1003989DF80B1001F07F0101EB410115
:1026C00000EBC100D03001900398D0F8B80300901F
:1026D0000198C2688188B2FBF1F000FB112060B95B
:1026E000FFE70198C06840B1FFE703989DF80B1021
:1026F00000231A4603F04EFA04E00099012081F805
:102700004800FFE7002004B080BD000080B584B021
:1027100003908DF80B10039847F68A61C0F600010C
:1027200000913C3103F05AFA00990398353103F0D7
:1027300055FA00990398253103F050FA40F69411A8
:10274000C2F20001012081F8490081F84800002010
:10275000C8644FF4E13201928DF808008DF8090049
:1027600008228DF80A20019ADDF80730C1F85330AD
:102770000A65039AC2F8B81304B080BD83B0029012
:102780008DF807100298D0F8B80300900099012046
:1027900081F8490002989DF8071001EB410100EB18
:1027A000C100D0F848020099C864002003B0704707
:1027B00085B0049003910498D0F8B80302900020EB
:1027C00001900398407801460091232800F25C8034
:1027D0000099DFE801F01213141516595959595987
:1027E0005959595959595959595959595959595959
:1027F000595959595959172A575846E045E044E064
:1028000043E042E0049800F50E7001900398407890
:102810000499D1F8B41348700398C08801994861AD
:1028200002984030019988602FE00498D0300190E0
:102830000299086D81F840000299086D000A81F83C
:1028400041000299B1F8520081F84200029991F8D2
:10285000530081F84300029991F8540081F8440034
:10286000029991F8550081F84500029991F85600B7
:1028700081F846000298403001998860019907204C
:10288000486102E001E000E0FFE7002005B070478A
:1028900080B584B00390029140F2C450C2F20000AF
:1028A000D0F8B80301900198F8B1FFE70298E0B1C1
:1028B000FFE70298402818D8FFE740F2C450C2F260
:1028C0000000FFF775FE78B9FFE701980399029AB7
:1028D000FDF75AFC02980199C86440F2C450C2F254
:1028E0000000FFF7B1FEFFE7FFE704B080BD000086
:1028F00080B540F6EC10C2F20000C07828B9FFE7BE
:102900006420002100F04CFA0EE040F6EC10C2F218
:102910000000C078012806D1FFE740F654300021BE
:1029200000F03EFAFFE7FFE780BD000081B00090B5
:10293000009840F6F411C2F200010860FFE740F68B
:10294000F410C2F20000006808B1FFE7F7E701B039
:102950007047000040F6F410C2F20000006840B179
:10296000FFE740F6F411C2F2000108680138086080
:10297000FFE7704780B582B001908DF80310019891
:102980009DF8031000F0EEF910B9FFE7FFE7FEE74E
:1029900001989DF8031001EB810100EB810188682B
:1029A00040F00100886002B080BD000080B582B0B8
:1029B00001908DF8031001989DF8031000F0D2F9F2
:1029C00010B9FFE7FFE7FEE701989DF8031001EB60
:1029D000810100EB8101886840F02000886002B02E
:1029E00080BD000080B58AB04FF4A06001F040F9CE
:1029F0000020C4F2020001900021029100F030F8A2
:102A00000198029942F24C42C4F2010203928DF8FD
:102A1000241040F2B852C2F20002059201228DF851
:102A200025204FF4807204924FF4806206928DF854
:102A30002610052207924FF40052089203AA00F0D4
:102A400055F801980299FFF7B1FF01980299022207
:102A500000F0F0F801980299FFF78CFF0AB080BDF2
:102A600080B582B001908DF8031001989DF8031095
:102A700000F078F910B9FFE7FFE7FEE701989DF84D
:102A8000031001EB810100EB8101886820F0010057
:102A9000886001989DF8031001EB810100EB810132
:102AA0000020886001999DF8032002EB820201EB6F
:102AB0008201C86001999DF8032002EB820201EBBC
:102AC0008201086101999DF8032002EB820201EB6B
:102AD000820148619DF8030081000F2000FA01F295
:102AE000019948681043486002B080BD80B584B049
:102AF00003908DF80B10019203989DF80B1000F0D5
:102B000031F910B9FFE7FFE7FEE701980068039984
:102B10009DF80B2002EB820201EB82010861019813
:102B2000806803999DF80B2002EB820201EB820181
:102B300048610198008A03999DF80B2002EB8202FC
:102B400001EB8201C86003989DF80B1001EB810135
:102B500000EB810080680090009820F47C50009089
:102B600001994868CA6849691043014300980843BD
:102B70000090009803999DF80B2002EB820201EB74
:102B8000820188600198007E01280CD1FFE703983C
:102B90009DF80B1001EB810100EB8101886840F08A
:102BA000400088600BE003989DF80B1001EB810159
:102BB00000EB8101886820F040008860FFE7019801
:102BC000407E01280CD1FFE703989DF80B1001EB24
:102BD000810100EB8101886840F0800088600BE093
:102BE00003989DF80B1001EB810100EB81018868CF
:102BF00020F080008860FFE70198807E60B9FFE7E1
:102C000003989DF80B1001EB810100EB81018868AE
:102C100020F0100088600BE003989DF80B1001EB8A
:102C2000810100EB8101886840F010008860FFE7B7
:102C300004B080BD80B584B003908DF80B10019274
:102C400003989DF80B1000F08DF810B9FFE7FFE72F
:102C5000FEE7019A03989DF80B1001EB810100EB50
:102C6000810188681043886004B080BD83B0029001
:102C70008DF80710009200989DF80710890000FA5F
:102C800001F2029948681043486003B070470000A1
:102C900087B006908DF817100492002003900290E0
:102CA0008DF8070004980090022808D0FFE70098EC
:102CB000042819D0FFE7009808282AD03EE006989B
:102CC000006804999DF817209200914008400290F6
:102CD00006989DF8171001EB810100EB81008068D8
:102CE00000F0020003902BE00698006804999DF81C
:102CF0001720920091400840029006989DF8171006
:102D000001EB810100EB8100806800F0040003907A
:102D100016E00698006804999DF8172092009140EB
:102D20000840029006989DF8171001EB810100EB16
:102D30008100806800F00800039001E0FFE7FEE7F3
:102D4000029838B1FFE7039820B1FFE701208DF822
:102D5000070003E000208DF80700FFE79DF807005B
:102D600007B0704782B001908DF8031001208DF8F4
:102D70000200019840F20041C4F2020188420AD1E7
:102D8000FFE79DF80300052804DBFFE700208DF82E
:102D90000200FFE7FFE79DF8020002B07047000065
:102DA00080B582B0ADF806008DF805109DF80510CD
:102DB000BDF8062042F60040C4F2010001F022FCFA
:102DC00002B080BD82B00190ADF802108DF80120F4
:102DD0009DF80100B0B9FFE7BDF80200019909882C
:102DE000884205DDFFE701980088ADF80200FFE7A3
:102DF000BDF80200632804DCFFE76420ADF80200A0
:102E0000FFE71BE09DF80100012816D1FFE7BDF8A0
:102E1000020001994988884205DDFFE70198408852
:102E2000ADF80200FFE7BDF80200632804DCFFE70D
:102E30006420ADF80200FFE7FFE7FFE7BDF80200FE
:102E400002B0704781B00090009840F21441C4F283
:102E50000101086001B0704780B582B040F6EC1007
:102E6000C2F2000080790146019104285CD80199E2
:102E7000DFE801F0030C5156590040F6EC11C2F2A4
:102E800000010120887103F0D3FB4EE003F0D0FB7A
:102E900040F6EC10C2F20000407848BBFFE7FFF7B5
:102EA00027FD40F6AC20C2F2000003F061FE40F6C0
:102EB0002430C2F2000003F05BFE40F67020C2F244
:102EC000000003F055FE40F6E820C2F2000003F0D7
:102ED0004FFE40F28001C2F2000164200880488069
:102EE00040F6EC11C2F2000100208870C87111E0B8
:102EF00040F6EC10C2F200004078012809D1FFE74B
:102F000040F6EC11C2F200010020C8710220887165
:102F1000FFE7FFE709E003F08BFB03F0C7FB04E0EA
:102F200003F086FB01E000E0FFE702B080BD000097
:102F300082B00190009100980199486102B07047F9
:102F400082B00190009100980199086102B0704729
:102F500080B58AB040F2026000F08AFE40F2036061
:102F600000F086FE40F2046000F082FE40F209604C
:102F700000F07EFE0120019000F00CFD40F6000004
:102F8000C4F20100079010210491032209924FF42A
:102F90008063009300F05AF80499099A40F60040C3
:102FA000C4F2010003904FF4006300F04FF8009B5F
:102FB00003980499099A00F049F80398099A48215E
:102FC0000291022300F042F8019B02990398099AAA
:102FD00000F03CF802990798099A802300F036F82F
:102FE00002990398099A4FF4805300F02FF807983C
:102FF000099A182108914FF4807300F027F803987C
:103000000899099A4FF4005300F020F8079800211E
:1030100004224F2300F01AF80499099A41F20000A3
:10302000C4F2010005904FF46043069300F00EF8DF
:1030300005980699FFF784FF07980899099A4FF4B5
:10304000C05300F003F80AB080BD000087B00690BE
:10305000059104920393002001900090059800F0E0
:103060000F0001909DF81400C006002814D5FFE75A
:10307000049804280AD1FFE7019840F0030001906A
:10308000039A0699C86B1043C86304E00499019839
:1030900008430190FFE7FFE70020ADF80A00FFE7D3
:1030A000BDF80A00072842D8FFE7BDF80A100398C8
:1030B000C840C007A0B3FFE7069800680090BDF8BD
:1030C0000A0081000F2000FA01F100988843009067
:1030D0000198BDF80A10890000FA01F10098084330
:1030E00000900598282809D1FFE7BDF80A100120B3
:1030F000884003990840069948610DE005984828E2
:1031000009D1FFE7BDF80A10012088400399084063
:1031100006990861FFE7FFE7009806990860FFE756
:10312000FFE7BDF80A000130ADF80A00B8E7082053
:10313000ADF80A00FFE7BDF80A000F2846D8FFE700
:10314000BDF80A100398C840C007C0B3FFE706984F
:1031500040680090BDF80A006FF01F0101EB80028B
:103160000F2000FA02F20098904300900198BDF8F9
:103170000A2001EB820100FA01F100980843009057
:103180000598282809D1FFE7BDF80A1001208840DA
:1031900003990840069948610DE00598482809D12F
:1031A000FFE7BDF80A1001208840039908400699FE
:1031B0000861FFE7FFE7009806994860FFE7FFE72F
:1031C000BDF80A000130ADF80A00B4E707B0704757
:1031D00083B00290019100208DF80300029880686E
:1031E0000199084204D0FFE701208DF8030003E0B5
:1031F00000208DF80300FFE79DF8030003B070473F
:1032000086B005908DF81310002003900290019075
:1032100000909DF817000006002806D5FFE71C2047
:10322000C4F201000068019005E00420C4F201002E
:1032300000680190FFE70598C0F303400090BDF8D7
:1032400014000390059800F44010B0F5401F0CD115
:10325000FFE7019820F0E06001900421C4F2010131
:10326000086820F0E060086023E09DF81600C006C2
:1032700000280DD5FFE700990320884002900299AD
:10328000019888430190019840F0E06001900FE0C0
:103290000398059A6FF00F0101EA524100FA01F11B
:1032A000019888430190019840F0E0600190FFE7A9
:1032B000FFE79DF8130060B1FFE70398059A6FF0F0
:1032C0000F0101EA524100FA01F10198084301900F
:1032D000FFE79DF817000006002806D5FFE70198D4
:1032E0001C21C4F20101086005E001980421C4F228
:1032F00001010860FFE706B07047000080B582B0AA
:1033000001908DF80310019840F6F811C2F2000107
:1033100008609DF8030000F011F8FFE740F6F81090
:10332000C2F20000006808B1FFE7F7E740F2004092
:10333000C4F2000001F0D8FA02B080BD80B588B0B8
:103340008DF81F0040F20040C4F20000029001F02E
:10335000CBFA0298012101F063FB9DF81F000228BF
:1033600003D1FFE70B2005900AE09DF81F0001281C
:1033700004D1FFE742F6DF60059000E0FFE7FFE7DA
:1033800040F29810C2F200000088ADF80C00002056
:10339000ADF80E00ADF81000ADF818008DF81A0069
:1033A00040F20040C4F20000019003A901F0B0FA1D
:1033B00001980121009101F047FB019800F040FFC6
:1033C0000099019801F036FB019801F097FA08B0D6
:1033D00080BD000083B0029001918DF80320002091
:1033E0008DF80200FFE79DF802009DF80310884267
:1033F00029DAFFE70298000F092809D8FFE70298A9
:10340000000F303001999DF8022001F8120009E008
:103410000299372000EB117001999DF8022001F804
:103420001200FFE702980001029001989DF8021037
:1034300000EB410100204870FFE79DF802000130D9
:103440008DF80200CFE703B07047000080B540F66A
:103450007430C2F20000006840F60021C2F20001A0
:103460000968401A222801D8FFE782E040F674304C
:10347000C2F20000006840F60021C2F200010860BC
:1034800000F078F840F60040C4F201004FF400610B
:10349000FFF74EFD40F6FC10C2F200000078012854
:1034A00013D1FFE740F6EC11C2F200014879013078
:1034B00000F001004871FDF7E5FB48F2F400C0F6AA
:1034C00000000E21FFF7E4F953E040F6FC10C2F2D1
:1034D00000000078022811D1FFE740F6EC11C2F29B
:1034E0000001C878013000F00100C87048F20310F4
:1034F000C0F600000E21FFF7CBF939E040F6FC10D2
:10350000C2F20000007803280AD1FFE740F6EC1170
:10351000C2F200010879B0FA80F04009087126E093
:1035200040F6FC10C2F20000007804281ED1FFE72C
:1035300040F6EC10C2F200004178B1FA81F149097D
:103540004170407838B9FFE740F6EC11C2F2000153
:1035500001208871FFE740F60040C4F201004FF4FB
:103560000061FFF7EDFCFFF777FCFFE7FFE7FFE700
:10357000FFE780BD80B540F60421C2F200010020C3
:10358000087040F60040C4F201000221FFF720FE5F
:1035900038B9FFE740F60421C2F2000101200870AB
:1035A00010E040F60040C4F201000121FFF710FED8
:1035B00038B9FFE740F60421C2F20001022008708A
:1035C000FFE7FFE740F60000C4F201008021FFF7AB
:1035D000FFFD38B9FFE740F60421C2F200010320E5
:1035E000087011E040F60040C4F201004FF4805131
:1035F000FFF7EEFD38B9FFE740F60421C2F2000103
:1036000004200870FFE7FFE740F60420C2F2000044
:103610000278037840F6FD11C2F2000191F800C073
:1036200083EA0C031A4040F6FC13C2F200031A703E
:103630000078087080BD000080B582B00020019045
:1036400000F018FD00F016F900F07EF8FFE700F03A
:103650002BFDFCE780B588B040F6AC20C2F200003C
:103660009FED310AF7EE000ACDED030A9FED2F1A08
:10367000DFED2F2ACDED052A9FED2E3A8DED063A8E
:10368000DFED2D3ACDED073AF0EE621AB0EE432AA7
:10369000FDF7B6FEDDED052A9DED063ADDED073AB4
:1036A00040F62430C2F200009FED240A8DED010A9D
:1036B000F1EE040ACDED020A9FED211A8DED041AF8
:1036C000F0EE621AB0EE432AFDF79AFE9DED010A74
:1036D000DDED020A9DED041ADDED052A9DED063AA9
:1036E000DDED073A40F67020C2F20000F0EE621AFB
:1036F000B0EE432AFDF784FEDDED030A9DED041ACA
:10370000DDED052A9DED063ADDED073A40F6E820AD
:10371000C2F200009FED0B0AF0EE621AB0EE432AEF
:10372000FDF76EFE08B080BDCDCC4C3D17B7D1384B
:103730000000C84200C028453333733FCDCCCC3D98
:103740006F12833A0AD7233C80B5FFF7D1F8FFF711
:1037500081FFFDF715F801F0D3FC01F0CDFD40F23B
:10376000C450C2F2000040F27001C2F2000140F207
:103770004002C2F2000202F04FFB01F083FCFDF7B1
:1037800015FB80BD80B582B00B200022019211464E
:1037900000F008F8019A3620022100F003F802B088
:1037A00080BD000080B584B08DF80F008DF80E103C
:1037B0008DF80D204EF60C50CEF20000006800F49B
:1037C000E06001460091B0F5407F14D0FFE700981B
:1037D000B0F5806F0FD0FFE70098B0F5A06F0AD06A
:1037E000FFE70098B0F5C06F05D0FFE70098B0F58F
:1037F000E06F01D1FFE704E04FF4A06000F018F89B
:10380000FFE7FDF7F3F9029002989DF80E109DF87E
:103810000D20FDF7B5F901909DF90F000199FDF715
:103820000FFA9DF90F00FDF799F904B080BD000073
:1038300081B0009000980021C0F2FA5108434EF682
:103840000C51CEF20001086001B0704782B00190C7
:103850000091019800994FF68072C1F6FF721140F5
:1038600008434EF60851CEF200010860BFF34F8FB7
:1038700002B0704780B5FFF76BFBFFF7B3F8FEF7B8
:1038800059FB00F017FC00F095FCFFF77BFF80BDB3
:1038900082B001908DF8031047F20001C4F20001DC
:1038A000086820F003000860019A08681043086067
:1038B0004EF61051CEF20001086840F00400086096
:1038C0004EF21001CEF20001086840F66032C2F2FA
:1038D000000210604EF20010CEF20000006850604E
:1038E0004EF20410CEF20000006890604EF2081014
:1038F000CEF200000068D06008680422C0F2010225
:10390000104008604EF28011CEF200014FF63D00EB
:10391000CFF67F7008604EF28411CEF200016FF492
:10392000E06008604EF28811CEF200014FF0FF30E7
:1039300008609DF8030010B9FFE730BF03E040BF07
:1039400020BF20BFFFE740F66030C2F200000168F0
:103950004EF21002CEF20002116041684EF20012E7
:10396000CEF20002116081684EF20412CEF2000223
:103970001160C0684EF20811CEF2000108604EF6E8
:103980001051CEF20001086820F00400086002B077
:103990007047000084B0039041F20400C4F20200BA
:1039A00000680290029843F6FF71CEF6FF7108405E
:1039B000029041F22C00C4F20200006801900198CC
:1039C00020F0005001900398009004280DD3FFE7E9
:1039D000009805280FD0FFE7009807280BD0FFE7D5
:1039E00000980838042812D31FE00399029840EA8F
:1039F000813002901AE0039820F0040003900399AC
:103A0000029840EA813040F0805002900EE0039826
:103A100020F00C0003900399029840EA8130029054
:103A2000019840F00050019000E0FFE7029841F259
:103A30000401C4F202010860019841F22C01C4F2B1
:103A40000201086004B070479BB08DF86B00002045
:103A5000189040F20671C0F60811099140F2012158
:103A6000C0F20341089107900690059104900391DC
:103A7000029041F20400C4F202000068C0F3810029
:103A800019901998019040B1FFE7019801280AD0D8
:103A9000FFE7019802280CD0A0E041F20020C0F21C
:103AA0007A001790A0E041F20020C0F27A0017904F
:103AB0009AE041F20400C4F20200006800F4803091
:103AC00013901398B0F5803F53D1FFE741F22C00DB
:103AD000C4F20200006800F080401290129830B9E1
:103AE000FFE741F20020C0F27A000F9005E046F6B1
:103AF0000040C0F2DC200F90FFE741F22C00C4F23E
:103B00000200006800F4803011901198B0F5803FF9
:103B100020D1FFE741F22C00C4F202000168CAB2D2
:103B2000012101EB12110B91006800F47061022079
:103B300000EB11200A900A98112803D1FFE7142006
:103B40000A90FFE70F980B99B0FBF1F00A994843F0
:103B50000F90FFE741F22C00C4F20200006800F071
:103B60000F0001300C900C990F98B0FBF1F00F9002
:103B700005E040F60010C0F23D000F90FFE741F273
:103B80000400C4F202000168C1F38341109100688F
:103B90008000002805D5FFE7109840F01000109035
:103BA000FFE710980E2804D8FFE710980230109015
:103BB00003E0109801301090FFE70F9810994843E8
:103BC000179010980F2808D1FFE70F9901EB4100DB
:103BD000400000EB51001790FFE705E041F20020A4
:103BE000C0F27A001790FFE741F20400C4F202002D
:103BF0000168C9B209090E910E9A06A9895C0D9156
:103C000017990D9AD14016910168C1F302210E91C6
:103C10000E9A04A9895C0D9116990D9AD1401591BF
:103C20000068C0F3C2200E900E9902A8405C0D906F
:103C300016980D99C84014909DF86B0001460091AC
:103C4000032810D80099DFE801F00205080B179847
:103C5000189009E01698189006E01598189003E05F
:103C60001498189000E0FFE718981BB07047000008
:103C700081B0ADF80200BDF8020000F01F02012182
:103C800001FA02F3810941F20002C4F202028858EB
:103C90001843885001B0704781B0ADF80200BDF8FC
:103CA000020000F01F02012101FA02F3810941F232
:103CB0000002C4F2020288589843885001B070474D
:103CC00081B0ADF80200BDF8020000F01F02012132
:103CD00001FA02F3810941F20002C4F2020288589B
:103CE0001843885001B0704782B0019041F204013E
:103CF000C4F2020108680090009820F4400000908F
:103D00000098019A1043086002B0704780B586B0F1
:103D1000059005980078062827D0FFE74FF2E87055
:103D2000C1F6FF70006804904FF2EC70C1F6FF70AE
:103D3000006803904FF2F070C1F6FF7000680290C7
:103D40000299049808440490049868B1FFE7049825
:103D5000059902310822FFF73DFB039805991231BE
:103D60000422FFF737FBFFE711E042F20010C4F234
:103D7000020000680190019840B1FFE701980599A1
:103D80004880BDF8060005998880FFE7FFE706B088
:103D900080BD000081B000900099086840F04000AC
:103DA000086001B07047000082B00190ADF80210C9
:103DB000BDF802000199C86002B0704780B586B0B6
:103DC00005900598049043F60001C4F20001884272
:103DD00019D0FFE7049843F60041C4F2000188427D
:103DE0001AD0FFE7049843F20001C4F201018842AF
:103DF0001BD1FFE74FF443700390FFF761FF039877
:103E0000FFF74AFF12E040F20E400290FFF758FF22
:103E10000298FFF741FF09E040F20F400190FFF7E1
:103E20004FFF0198FFF738FF00E0FFE706B080BDC5
:103E300083B00290019100208DF803000298806801
:103E40000199084204D0FFE701208DF8030003E048
:103E500000208DF80300FFE79DF8030003B07047D2
:103E600083B00290019100200090029800680090B9
:103E7000009800F4415000900198016800980843B0
:103E8000009001984168009808430090019881686B
:103E90000098084300900198C1680098084300907A
:103EA00001980169009808430090019841690098C1
:103EB0000843009001988169009808430090009899
:103EC000029908600299C86920F40060C86103B0D3
:103ED0007047000081B000900099486840F00400ED
:103EE000486001B07047000081B000900099002048
:103EF000086000994860009988600099C86000993E
:103F00000861009948610099886101B0704700001C
:103F100085B000200490039041F20001C4F2020138
:103F2000086840F480300860FFE70498013004908E
:103F300041F20000C4F20200006800F40030039077
:103F4000FFE703990020019041B9FFE704984FF67D
:103F5000FF71401A18BF01200190FFE70198C007C8
:103F60000028E2D1FFE741F20000C4F2020000683D
:103F70008003002802D4FFE7FFE7FEE742F20001DA
:103F8000C4F202010868032262F30200086041F2F1
:103F90000401C4F202010091086808600868086022
:103FA000086840F48060086008684FF6FF72CDF63C
:103FB000C3721040086008680022C2F23502104344
:103FC000086041F22C01C4F2020108684FF20002BD
:103FD000CBF6FE7210400860086840F61902C0F285
:103FE00001021043086041F20001C4F202010868B6
:103FF00040F080600860FFE741F20000C4F2020078
:1040000000680001002801D4FFE7F5E741F2000154
:10401000C4F20201086840F080700860FFE741F2D6
:104020000000C4F2020000688001002801D4FFE70C
:10403000F5E741F20401C4F2020108680290029817
:1040400020F003000290029840F0020002900298D3
:104050000860FFE741F20400C4F2020000680007B4
:10406000002801D4FFE7F5E705B0704780B5FFF7FA
:104070004FFF80BD80B540F20000C2F20000006832
:1040800044F6D351C1F26201A0FB01108009FDF793
:10409000EFF910B1FFE7FFE7FEE74FF0FF30002137
:1040A000FCF7ACFD80BD000080B5FFF7CFF902F052
:1040B000E7FB80BD80B592B040F20B60FFF7D8FD02
:1040C00040F20B300090FFF7FBFD0098FFF7E4FD96
:1040D00042F60040C4F20100069000F00FFB0BA86E
:1040E000019000F001FD0199069800220392ADF8BD
:1040F0002C20ADF82E20ADF8302040F6B7330D93CC
:10410000ADF838208DF83A2000F002FC0FA802909C
:1041100000F0E2FA029A0399069801230593ADF89C
:104120003C300423ADF83E30ADF84010ADF84210FD
:10413000ADF84410ADF8461000F0B6F803990698B3
:104140000A2200F05FFA03990698602200F014FA40
:1041500003990698082200F079FA0DF11E000490E8
:1041600000F08EF8039A04990698ADF81E20ADF879
:1041700020203C23ADF82230ADF824204FF48043BA
:10418000ADF826304FF48073ADF82830ADF82A2012
:1041900000F060F80698402100F07EFC0599069832
:1041A00000F08AFC069800F04BF8069800F0A6FB99
:1041B00012B080BD80B590B040F20470FFF758FD9A
:1041C00040F204400190FFF77BFD0198FFF764FD8A
:1041D00041F20000C4F20000049000F08FFA09A838
:1041E000029000F081FC029904983B22ADF8242053
:1041F0000022ADF82620ADF8282040F69F730B93DF
:10420000ADF830208DF8322000F082FB04980121B7
:10421000039100F019FC0399049800F00BFC04983A
:10422000202100F039FC0399049800F045FC049823
:1042300000F006F8049800F061FB10B080BD0000AB
:1042400081B000900099086840F08000086001B0DB
:104250007047000082B001900091009908884A8858
:1042600010438A881043CA8810430A8910434A8938
:104270001043898908430199486402B070470000DF
:1042800081B0009000990020088000994880009932
:1042900088800099C8800099088100994881009918
:1042A000888101B07047000084B00390ADF80A1017
:1042B0000192BDF80A0001460091032800F25981DD
:1042C0000099DFE811F004005D00BC001B010399B8
:1042D000086A20F001000862019802880399086AC0
:1042E000104308620399086A20F0020008620198EE
:1042F00082880399086A10430862039842F60041D5
:10430000C4F20101884208D0FFE7039843F200415C
:10431000C4F2010188422DD1FFE70399086A20F019
:1043200004000862019842880399086A10430862F1
:104330000399086A20F0080008620198C28803996E
:10434000086A104308620399486820F48070486046
:1043500001980289039948681043486003994868A6
:1043600020F400704860019842890399486810431E
:104370004860FFE70399886920F003008861F9E04D
:104380000399086A20F010000862019802880399D6
:10439000086A40EA021008620399086A20F02000C7
:1043A0000862019882880399086A40EA021008624C
:1043B000039842F60041C4F20101884208D0FFE7A9
:1043C000039843F20041C4F20101884231D1FFE772
:1043D0000399086A20F04000086201984288039916
:1043E000086A40EA021008620399086A20F0800017
:1043F00008620198C2880399086A40EA02100862BC
:104400000399486820F48060486001980289039904
:10441000486840EA820048600399486820F40060D8
:104420004860019842890399486840EA82004860E0
:10443000FFE70399886920F4407088619AE0039946
:10444000086A20F480700862019802880399086A5B
:1044500040EA022008620399086A20F400700862AA
:10446000019882880399086A40EA0220086203984A
:1044700042F60041C4F20101884208D0FFE70398E8
:1044800043F20041C4F20101884231D1FFE70399B0
:10449000086A20F480600862019842880399086ADB
:1044A00040EA022008620399086A20F4006008626A
:1044B0000198C2880399086A40EA022008620399B9
:1044C000486820F480504860019802890399486840
:1044D00040EA021048600399486820F400504860A0
:1044E000019842890399486840EA02104860FFE752
:1044F0000399C86920F00300C8613BE00399086A8A
:1045000020F480500862019802880399086A40EA02
:10451000023008620399086A20F40050086201988A
:1045200082880399086A40EA02300862039842F6DA
:104530000041C4F20101884208D0FFE7039843F22A
:104540000041C4F2010188420DD1FFE70399486898
:1045500020F480404860019802890399486840EA45
:1045600082104860FFE70399C86920F44070C86171
:1045700000E0FFE704B0704783B00290ADF806108A
:10458000ADF80420BDF8060001460091032836D896
:104590000099DFE801F0020E1B270299886920F0DC
:1045A00070008861BDF80420029988691043886111
:1045B00026E00299886920F4E0408861BDF8042073
:1045C0000299886940EA0220886119E00299C86965
:1045D00020F07000C861BDF804200299C86910433A
:1045E000C8610DE00299C86920F4E040C861BDF8D7
:1045F00004200299C86940EA0220C86100E0FFE790
:1046000003B0704784B00390ADF80A100192BDF872
:104610000A0001460091032814D80099DFE801F050
:1046200002060A0E0198039948630CE00198039969
:10463000886308E001980399C86304E0019803992E
:10464000086400E0FFE704B07047000083B0029008
:10465000ADF80610ADF80420BDF806000146009143
:10466000032836D80099DFE801F0020E1B270299D3
:10467000886920F008008861BDF8042002998869E3
:104680001043886126E00299886920F400608861FF
:10469000BDF804200299886940EA0220886119E087
:1046A0000299C86920F00800C861BDF80420029989
:1046B000C8691043C8610DE00299C86920F4006020
:1046C000C861BDF804200299C86940EA0220C861A7
:1046D00000E0FFE703B0704781B000900099002030
:1046E000088000994880009988800099C8800099C6
:1046F00008810099488101B07047000080B590B0F2
:104700000F900F980E90B0F1804F74D0FFE70E9885
:1047100040F20041C4F20001884275D0FFE70E98D4
:1047200040F60001C4F20001884276D0FFE70E98FF
:1047300040F60041C4F20001884277D0FFE70E98AE
:1047400041F20001C4F20001884278D0FFE70E98E0
:1047500041F20041C4F20001884279D0FFE70E988F
:1047600041F60001C4F20001884200F09E80FFE79C
:104770000E9841F60041C4F20001884200F09E808C
:10478000FFE70E9842F20001C4F20001884200F0F7
:104790009E80FFE70E9842F60041C4F20101884274
:1047A00020D0FFE70E9843F20041C4F20101884295
:1047B00057D0FFE70E9844F60041C4F20101884249
:1047C00058D0FFE70E9845F20001C4F2010188427B
:1047D00059D0FFE70E9845F20041C4F2010188422A
:1047E0005AD07DE040F20B300D90FFF769FA0D983A
:1047F000FFF752FA75E04FF480600C90FFF760FA13
:104800000C98FFF749FA6CE040F201400B90FFF77B
:1048100057FA0B98FFF740FA63E040F202400A9023
:10482000FFF74EFA0A98FFF737FA5AE040F20340D2
:104830000990FFF745FA0998FFF72EFA51E040F288
:1048400004400890FFF73CFA0898FFF725FA48E083
:1048500040F205400790FFF733FA0798FFF71CFA7C
:104860003FE040F20D300690FFF72AFA0698FFF776
:1048700013FA36E040F213300590FFF721FA05985D
:10488000FFF70AFA2DE04FF445700490FFF718FA8D
:104890000498FFF701FA24E040F215300390FFF787
:1048A0000FFA0398FFF7F8F91BE040F20640029078
:1048B000FFF706FA0298FFF7EFF912E040F207401F
:1048C0000190FFF7FDF90198FFF7E6F909E04FF4D1
:1048D00081600090FFF7F4F90098FFF7DDF900E040
:1048E000FFE710B080BD000081B00090009908681B
:1048F00020F00100086001B07047000081B0009016
:104900000099086840F00100086001B0704700009D
:1049100082B0019000910098008801998862019806
:1049200042F60041C4F20101884225D0FFE7019818
:10493000B0F1804F20D0FFE7019840F20041C4F26F
:104940000001884218D0FFE7019840F60001C4F248
:104950000001884210D0FFE7019840F60041C4F200
:104960000001884208D0FFE7019843F20041C4F2F9
:104970000101884216D1FFE70199086820F0700014
:1049800008600098408800F06002019908681043B0
:1049900008600098808800F01002019908681043B0
:1049A0000860FFE7009880680199C862019841F2A9
:1049B0000001C4F20001884216D0FFE7019841F2DD
:1049C0000041C4F2000188420ED0FFE70199086857
:1049D00020F4407008600098808900F440720199CA
:1049E000086810430860FFE7019842F60041C4F2EE
:1049F0000101884208D0FFE7019843F20041C4F268
:104A00000101884205D1FFE70098807B0199086386
:104A1000FFE70199486940F00100486102B0704722
:104A200082B001900091009A0199C8689043C860D3
:104A300002B0704782B001900091009A0199C86855
:104A40001043C86002B0704782B001900091009896
:104A5000C0430199086102B07047000084B0039020
:104A600002910398C0680299084001900398006978
:104A70000299084207D0FFE7019820B1FFE7012023
:104A80008DF8030003E000208DF80300FFE79DF898
:104A9000030004B07047000082B0019000910199BA
:104AA000486820F070004860009A019948681043F7
:104AB000486002B07047000082B001908DF803108A
:104AC0009DF80300012806D1FFE70199486C40F4E6
:104AD0000040486405E00199486C20F400404864B7
:104AE000FFE702B07047000081B0009000990020FD
:104AF00008800099488000998880009A4FF6FF71DD
:104B00009160009988810099887301B07047000016
:104B100080B5B6B035903491359900200390C870B7
:104B2000359A02211170359B4FF0A042DA60359B17
:104B300008225A70359B04229A70359A1171359A61
:104B400001215171359988713498009005A8019020
:104B5000BC210291FBF731FB00980199029A359B29
:104B6000DB680593359BDB6803F500630693359B93
:104B7000DB6803F580630793359BDB6803F5886387
:104B80002393359BDB6803F560633393FBF7FCFAF3
:104B900003988DF81300FFE79DF813003599897885
:104BA00088421FDAFFE73598C0689DF8132000EBB4
:104BB000421000F51060349901EB8201C86035980D
:104BC000C0689DF8132000EB421000F53060349966
:104BD00001EB82014862FFE79DF8130001308DF878
:104BE0001300D9E700208DF81200FFE79DF81200AE
:104BF0003599497888421FDAFFE73598C0689DF8F3
:104C0000122000EB421000F5A060349901EB820104
:104C1000C8633598C0689DF8122000EB023000F59B
:104C20008050349901EB8201C867FFE79DF81200BC
:104C300001308DF81200D9E7002036B080BD0000A9
:104C400081B000900098807978B1FFE700984069C2
:104C50008068C00740B1FFE70098D0F8C810086826
:104C600020F003000860FFE7FFE701B07047000095
:104C700080B584B0DDF818C00393029201910090D2
:104C80009DF8040001281ED1FFE706980168886B93
:104C900020F4803088639DF8050038B1FFE706985E
:104CA0000168886B40F480108863FFE7069801680C
:104CB000C8684FF6BF72CFF6DF721040C860069822
:104CC00000F028F823E006980168C86840F040002A
:104CD000C860069800F01EF806980168886B40F4DA
:104CE0005020886306980168886B40F40010886340
:104CF0009DF8050038B1FFE706980168886B40F41D
:104D000080108863FFE7142000F0C8F9FFE7002057
:104D100004B080BD80B582B0019001980168086937
:104D200040F001000861FFE7019800680069C007D2
:104D300008B1FFE7F8E7032000F09CFD02B080BD5A
:104D400081B000900098416B1820C6F208000861FD
:104D500001B0704782B001908DF80310019801688E
:104D6000C86820F0C040C8609DF8030038B9FFE76C
:104D700001980168C86840F08040C8600DE09DF867
:104D80000300012807D1FFE701980168C86840F0D7
:104D90000050C86000E0FFE7FFE702B07047000086
:104DA00081B0009000984169486820F00200486096
:104DB00001B0704781B0009000984169486840F0A8
:104DC0000200486001B0704782B001908DF8031076
:104DD00001984169086820F4FE6008609DF803208E
:104DE00001984169086840EA0210086002B0704703
:104DF00080B584B00390002001908DF80B000399DA
:104E0000D1F8C810086003984169086820F4C050C0
:104E10000860039841690868086003984169086858
:104E200020F00300086003984169086840F003001F
:104E3000086003981030802100F004FA01988DF882
:104E40000B00FFE79DF80B00032813D8FFE703983A
:104E500010309DF80B1040F20402C2F2000232F84A
:104E6000112000F0FBF9FFE79DF80B0001308DF8F1
:104E70000B00E7E703981030102100F0BBFC03980B
:104E8000103000F0ABF903984169002008610399E4
:104E90004969486103994A694FF0FF31916103996B
:104EA0004969C8618DF80B00FFE79DF80B00039975
:104EB0008978884263DAFFE703989DF80B1000EBCE
:104EC0008100C0690068C00F58B1FFE703989DF8E2
:104ED0000B1000EB8100C169086840F09040086049
:104EE00008E003989DF80B1000EB8100C1690020D9
:104EF0000860FFE703989DF80B1000EB8100C16983
:104F00000020086103989DF80B1000EB8100C16937
:104F1000FF20886003989DF80B1000EB8100406B28
:104F20000068C00F58B1FFE703989DF80B1000EB25
:104F30008100416B086840F09040086008E00398E9
:104F40009DF80B1000EB8100416B00200860FFE72B
:104F500003989DF80B1000EB8100416B0020086165
:104F600003989DF80B1000EB8100416BFF208860D7
:104F7000FFE79DF80B0001308DF80B0095E70398D3
:104F80004169086940F010000861039800F004F8D6
:104F9000002004B080BD000081B00090009801693D
:104FA0004FF0FF304860009801696FF08040486121
:104FB0000098016940F60000C8F20000886100987E
:104FC000C07838B9FFE700980169886940F010009F
:104FD0008861FFE700980169886943F20802C0F21E
:104FE0003C0210438861002001B0704781B00090FE
:104FF00000980168886820F00100886001B070475F
:1050000081B0009000980168886840F001008860D5
:1050100001B0704782B001900198406980690090AA
:1050200001984069C169009808400090009800F01C
:105030003F0002B07047000085B004908DF80F105B
:10504000002002900498406900690090049840692B
:10505000406B019001989DF80F10C84000F00101CD
:10506000009840EAC110009004989DF80F1000EBE2
:105070008100C0698068009908400290029805B0DC
:105080007047000080B54FF4A060FEF7D1FB4320CD
:1050900002210022FEF786FB80BD000080B582B0B1
:1050A000019001980121FEF729F902B080BD0000AE
:1050B00082B0019001984069806900900198406930
:1050C000C1690098084000900098C0F3054002B004
:1050D0007047000083B002908DF8071002989DF889
:1050E000071000EB8100406B8068009002984069D7
:1050F0004169009808400090009803B07047000094
:1051000080B582B00020FEF79FFC0190019846F622
:105110000041C0F2DC2188420ED1FFE740F2981135
:10512000C2F200010320088040F67031C2F2000193
:105130004FF48000086044E001984AF20021C0F278
:105140004A4188420DD1FFE740F29811C2F20001B6
:105150000520088040F67031C2F20001002008608E
:105160002EE001984DF60001C0F2B85188420ED1F0
:10517000FFE740F29811C2F200010720088040F6D4
:105180007031C2F200014FF44000086017E001984E
:1051900040F60061C0F2277188420ED1FFE740F26D
:1051A0009811C2F200010920088040F67031C2F265
:1051B00000014FF40000086000E0FFE7FFE7FFE7B1
:1051C000FFE740F67030C2F200000068FEF78CFD89
:1051D00040F20C50FEF74CFD02B080BD80B582B0AD
:1051E00001900198016810200861FFE701980068AC
:1051F0000069C006002801D5FFE7F7E7032000F0AB
:1052000039FB002002B080BD85B004900391ADF859
:105210000A20BDF80A000330800801900498C06F8E
:105220000090FFE70198411E019140B1FFE700980F
:10523000006803990860039804300390F2E703982C
:1052400005B0704782B00190ADF80210BDF80200C1
:1052500001990968486202B07047000084B0039069
:105260008DF80B10ADF8082003980068406A019093
:105270009DF80B0048B9FFE7BDF80810019840EA17
:10528000014003990968886233E003980068816AE5
:10529000019800EB1140019000208DF80300FFE71A
:1052A0009DF803009DF80B100139884213D2FFE7E7
:1052B000039800689DF8031000EB8100D0F80411FA
:1052C000019800EB11400190FFE79DF803000130C9
:1052D0008DF80300E4E7BDF80810019840EA0140AA
:1052E000039909689DF80B2001EB8201C1F80001C8
:1052F000FFE704B07047000080B54FF4A060FEF7F0
:1053000097FA1D2001210022FEF74CFA40F20170AD
:10531000FEF7AEFC80BD000080B540F20040C4F254
:1053200000000121FFF79AFBF0B1FFE740F20040D7
:10533000C4F200000121FFF787FB40F6F810C2F22B
:105340000000006840B1FFE740F6F811C2F200012A
:1053500008680138086006E040F20040C4F200002E
:10536000FFF7C2FAFFE7FFE780BD000086B00590B7
:105370000491002003900290059949698968C1F35E
:10538000410101910499097801F00F018DF8031092
:1053900004990978B0EBD11F0DD0FFE705989DF86F
:1053A000031000EB8100C06903909DF803100120F9
:1053B000884002900EE005989DF8031000EB8100F4
:1053C000406B03909DF8030000F11001012088401C
:1053D0000290FFE703980068000400282FD4FFE73D
:1053E000039908684FF60002CFF633421040086078
:1053F0009DF8030058B9FFE7019947F25860C0F6DD
:105400000000425C039908681043086006E00498B5
:1054100082880399086810430860FFE70498407881
:1054200080049DF8031040EA815003990A681043F4
:1054300048F20002C1F2000210430860FFE7029A3E
:1054400005984169C8691043C861002006B07047DB
:1054500084B003900291002001900299097801F034
:105460000F018DF8031002990978B0EBD11F08D015
:10547000FFE703989DF8031000EB8100C0690190DD
:1054800007E003989DF8031000EB8100406B01904A
:10549000FFE70199086820F400100860029840783E
:1054A000032805D0FFE702984078022806D1FFE7DD
:1054B0000199086840F080500860FFE7002004B0C0
:1054C0007047000084B0039002910020019002997F
:1054D000097801F00F018DF8031002990978B0EBFB
:1054E000D11F10D0FFE79DF80310012088400190E4
:1054F00003989DF8031000EB8100C169086820F44F
:105500000040086011E09DF8030000F11001012047
:105510008840019003989DF8031000EB8100416BD7
:10552000086820F400400860FFE7019A0398416989
:10553000C8699043C861002004B0704780B586B048
:105540000590049100208DF80F000498007800F079
:105550000F008DF80E0005989DF80E1000EB8100ED
:10556000C0690068029005989DF80E1000EB81005C
:10557000C06900690190019800F0604001900498B2
:10558000C06828B9FFE7019840F40020019035E099
:105590009DF80E00B0B9FFE70499C8688988884271
:1055A00004D2FFE70498C068009003E00498808864
:1055B0000090FFE700980499C860019840F400202B
:1055C00001900BE00499C868898808440138B0FB51
:1055D000F1F1019840EAC1400190FFE70498C168E9
:1055E00001980843019004984078012805D1FFE70D
:1055F000019840F000500190FFE7FFE701980599FE
:105600009DF80E2001EB8201C96908610498407879
:10561000012812D1FFE7059840698068000AC00799
:1056200028B1FFE7029840F08050029004E0029811
:1056300040F000500290FFE7FFE7029840F004407E
:105640000290029805999DF80E2001EB8201C9692C
:1056500008600598C07800BBFFE7049840780128EF
:1056600010D0FFE70498C06858B1FFE79DF80E100E
:10567000012000FA01F205984169486B1043486324
:10568000FFE709E005981030049B99689DF80E200B
:105690009B8900F0CBF8FFE7FFE79DF80F0006B00D
:1056A00080BD000086B00590049100208DF80F00A9
:1056B0000498007800F00F008DF80E0005989DF812
:1056C0000E1000EB8100406B0068029005989DF879
:1056D0000E1000EB8100406B00690190019800F012
:1056E000604001900498C06820B1FFE79DF80E006B
:1056F00050B9FFE704988188019808430190019808
:1057000040F40020019014E00499C8688988084496
:105710000138B0FBF1F000900099019840EAC140D7
:1057200001900098049989884143019808430190A9
:10573000FFE7019805999DF80E2001EB8201496B66
:1057400008610498407801280FD1FFE70498C078D9
:1057500028B1FFE7029840F00050029004E0029860
:1057600040F080500290FFE7FFE7029840F00440CD
:105770000290029805999DF80E2001EB8201496B79
:1057800008609DF80F0006B07047000084B00390D9
:105790000291002001900299097801F00F018DF823
:1057A000031002990978B0EBD11F13D0FFE70398DB
:1057B0009DF8031000EB8100C0690190019800681A
:1057C000C00F30B1FFE70199086840F080400860E1
:1057D000FFE707E003989DF8031000EB8100406BA2
:1057E0000190FFE70199086840F40010086000206C
:1057F00004B0704780B582B001908DF803109DF819
:10580000030080012030019909680861FFE70198D1
:10581000006800698006002801D5FFE7F7E703204C
:1058200000F028F8002002B080BD000085B0049090
:1058300003918DF80B20ADF80830BDF80800033057
:105840008008019004989DF80B1000EB8100C06F58
:105850000090FFE70198411E019140B1FFE70398D6
:10586000006800990860039804300390F2E7002074
:1058700005B0704780B582B0019001980221FDF714
:105880003DFD02B080BD000080B582B001908DF872
:10589000031001989DF80310FFF796FA02B080BD3F
:1058A00080B584B002900191029890F8CE00032850
:1058B0000FD1FFE701980079012809D8FFE7029886
:1058C000D0F8B413CA68019990478DF80F0004E02E
:1058D000FFE701208DF80F00FFE79DF80F0004B0EF
:1058E00080BD000080B582B001900198FFF758FAA2
:1058F0000320FFF7D3FB02B080BD000080B582B06B
:105900000190019800F50E700090019800998A6846
:105910004B69002100F01AF900994869898888428A
:1059200005D9FFE70199032081F8AC0304E0019950
:10593000042081F8AC03FFE7002002B080BD000026
:1059400080B582B001900198D03000900198009904
:105950008A684B69002100F01DF90099486989881F
:10596000884205D9FFE70199012081F8AC0304E0E2
:105970000199022081F8AC03FFE7002002B080BD4E
:1059800080B582B001900199062081F8AC0301989E
:105990000023009319461A4600F0D8F80198FFF743
:1059A000CFF9009802B080BD80B582B00190019916
:1059B000052081F8AC0301980023009319461A468C
:1059C00000F0E8F80198FFF7BBF9009802B080BD3D
:1059D00080B582B001900198FFF7ECF90320FFF742
:1059E0005DFB02B080BD000080B586B005900491DB
:1059F0000598049901EB410100EBC100D030019002
:105A00000199C8680969401A039003980199898827
:105A1000884204D9FFE7019880880390FFE7039844
:105A2000033080080290FFE70598049900EB81009D
:105A3000C069806981B2029A00209142009009D326
:105A4000FFE70198C26801690020914238BF012038
:105A50000090FFE70098C007C0B3FFE70199C8684E
:105A60000969401A0390039801998988884204D9EA
:105A7000FFE7019880880390FFE7039803308008D0
:105A8000029005981030019989689DF81020BDF8A2
:105A90000C30FFF7CBFE039A0199886810448860A8
:105AA000039A01990869104408610198C168006966
:105AB00088420AD1FFE70499012000FA01F2059813
:105AC0004169486B90434863FFE7ADE7012006B0AA
:105AD00080BD000080B582B00190009101988021C6
