:020000040800F2
:10000000F011002065010008A10700089907000809
:100010009D07000859070008B512000800000000FD
:100020000000000000000000000000004110000877
:1000300095070008000000003D1000089910000816
:100040007F0100087F0100087F0100087F01000890
:100050007F0100087F0100087F0100087F01000880
:100060007F0100087F0100087F0100085D0700088C
:100070007F0100087F0100087F0100087F01000860
:100080007F0100087F0100087F01000800000000D8
:100090000000000000000000000000007F010008D8
:1000A0007F0100087F0100087F0100087F01000830
:1000B0007F010008591200087F0100087F01000835
:1000C0007F0100087F0100087F0100087F01000810
:1000D0007F0100087F0100087F0100087F01000800
:1000E0007F0100087F010008711200087F010008ED
:1000F0007F0100087F0100087F0100080000000068
:100100007F010008000000007F0100087F01000857
:100110007F0100087F0100087F0100087F010008BF
:100120007F0100087F0100087F0100087F010008AF
:100130007F01000800000000000000000000000037
:100140000000000000000000000000006112000834
:10015000DFF80CD000F0CAFA00480047152B000861
:10016000F01100200648804706480047FEE7FEE7FA
:10017000FEE7FEE7FEE7FEE7FEE7FEE7FEE7FEE757
:10018000A11000085101000840EA01039B0703D0B9
:1001900009E008C9121F08C0042AFAD203E011F8C6
:1001A000013B00F8013B521EF9D27047D2B201E088
:1001B00000F8012B491EFBD270470022F6E710B56C
:1001C00013460A4604461946FFF7F0FF204610BDC5
:1001D0002DE9FE4F804681EA0300C00F0C460090D7
:1001E00021F0004123F00045B8EB0200A94105D2FF
:1001F0004046214690461C460B46024623F00040EE
:10020000104347D0270DC7F30A00C3F30A510290E9
:10021000401A019040286BDAC3F3130040F4801BAE
:100220000098924620B10023D2EB030A63EB0B0B3C
:1002300001985946C0F14002504600F098F9064630
:100240000D4650465946019A00F0B0F910EB0800EF
:100250006141002487EA115284EAE7731A4340D0CF
:10026000009A62B3019A012A4FEA075215DC001B7B
:1002700061EB02014FF0004202EA0752CDE9004271
:10028000001C41F5801132462B4600F0B0F903B056
:10029000BDE8F08F40462146F9E7001B61EB020103
:1002A000001C41F5801300185B412018A2F50017CF
:1002B00047EB030140EAD570B6196D4111E06D08B6
:1002C0004FEA360645EAC0754FEA0752001B61EB5C
:1002D0000201001C41F5801149084FEA3000001965
:1002E000514132462B4603B0BDE8F04F00F070B9E3
:1002F0000098012240000023D0EB020263EBE07380
:10030000009821464FEAE074B8EB000061EB04016D
:10031000E9E783F000435BE781F0004158E72DE90E
:10032000FE4F81EA030404F0004421F000410094F0
:100330004FF0000B23F0004350EA01045ED052EA74
:1003400003045BD0C3F30A54C1F30A552C44A4F24E
:10035000F3340194A0FB0254C1F3130141F4801162
:10036000C3F3130343F4801301FB024400FB034E69
:10037000840A970A44EA815447EA8357A4FB076832
:1003800002958D0A05FB07854FEA932C04FB0C545C
:100390002705029D4FEA065847EA1637B5EB0805D0
:1003A0006EEB070C870E920E47EA811742EA831222
:1003B000A7FB0201B6EB0B0164EB00042B0D43EA33
:1003C0000C335E1844EB1C50DA465146E7FB020141
:1003D000C5F313044FEA0B3343EA14534FEA0432D4
:1003E000019C43EA0603A4F10C040294009CCDE9AD
:1003F00000B400F0FCF803B0BDE8F08F0020014627
:10040000F9E72DE9F04D81EA030404F0004B21F0F7
:10041000004514464FF0000A23F0004150EA05025F
:1004200020D054EA01021DD0C5F30A570246C5F395
:100430001303C1F31300C1F30A5640F4801543F4CB
:100440008013A7EB0608101BD64608F2FD3873EBA5
:10045000050002D308F1010801E092185B41B8F1F0
:10046000000F03DA00200146BDE8F08D00204FF4B4
:100470008011064684460EE0171B73EB050705D373
:10048000121B63EB050306434CEA010C49084FEAD3
:10049000300092185B4150EA0107EDD152EA0300A7
:1004A00012D082EA040083EA0501084305D0101B3C
:1004B000AB4106D20122002306E000224FF00043A8
:1004C00002E06FF0010253101AEB06004CEB0851EA
:1004D00010EB0A0041EB0B01BDE8F04D00F078B8DD
:1004E00030B50B46014600202022012409E021FA04
:1004F00002F59D4205D303FA02F5491B04FA02F501
:100500002844151EA2F10102F1DC30BD2DE9F05F97
:100510000546002092469B46884606468146402472
:100520001BE0284641464746224600F02FF8534636
:100530005A46C01A914110D311461846224600F07F
:1005400016F82D1A67EB01084F46224601200021BC
:1005500000F00DF817EB00094E41201EA4F1010434
:10056000DFDC484631462A464346BDE8F09F202A54
:1005700004DB203A00FA02F1002070479140C2F1FA
:10058000200320FA03F3194390407047202A04DB2C
:10059000203A21FA02F00021704721FA02F3D040FC
:1005A000C2F120029140084319467047202A06DB19
:1005B000CB17203A41FA02F043EAE07306E041FA31
:1005C00002F3D040C2F1200291400843194670471F
:1005D00010B5141E73F1000408DA401C41F100014B
:1005E00092185B411A4301D120F0010010BD2DE9A2
:1005F000F04D92469B4611B1B1FA81F202E0B0FA99
:1006000080F220329046FFF7B2FF04460F4640EAE0
:100610000A0041EA0B0153465A46084313D01146DB
:1006200053EA010019D0C8F140025046FFF7AEFF6F
:1006300005460E46504659464246FFF798FF084386
:1006400005D0012004E020463946BDE8F08D0020A9
:10065000054346EAE0762C4337430A986305E40AEB
:10066000A0EB08000022FD0A44EA47540A3002D5F4
:1006700000200146E9E7010510196941DDE9084557
:1006800000196941BDE8F04DA2E7C1F30A52C1F378
:10069000130140F2FF3341F480119A4202DA002044
:1006A0000146704740F233439A42A2F2334202DCE1
:1006B0005242FFF76BBFFFF75ABF000030B5041E70
:1006C00071F1000404DB4FF00044404264EB01018F
:1006D000141E73F1000405DB1C464FF00043524228
:1006E00063EB0403994208BF904230BD1CB5094832
:1006F0000090094801900546009C06E0E06840F043
:10070000010394E8070098471034AC42F6D3FFF792
:1007100023FD00000C6C00082C6C000830B58C1810
:1007200010F8012B12F00F0301D110F8013B120950
:1007300006D110F8012B03E010F8015B01F8015B12
:100740005B1EF9D101E001F8013B521EFBD1A14231
:10075000E6D3002030BD0000FFE7FEE780B50020B3
:10076000C4F202000021022201F066FF80B1FFE71F
:100770000020C4F202000021012201F04BFF41F2EF
:100780000000C4F201004FF4004101F0FDFFFFE75B
:1007900080BD000070470000FFE7FEE7FFE7FEE7CF
:1007A000FFE7FEE781B08DF803009DF9031001F02B
:1007B0001F02012090404A094EF20011CEF20001C2
:1007C00041F8220001B0704788B007900691059269
:1007D000079800F0070004900498C0F1070005286E
:1007E00003D3FFE70420019004E00498C0F1070060
:1007F0000190FFE70198039004980430062803D87D
:10080000FFE70020009003E0049803380090FFE722
:100810000098029006980399012202FA01F1013929
:100820000840029B984005999A40013A11400843BC
:1008300008B070474EF60C50CEF200000068C0F3CE
:100840000220704782B08DF8070000919DF90700E3
:10085000B0F1FF3F0CDCFFE7009800019DF80710A6
:1008600001F00F014EF61452CEF20002885409E056
:10087000009800019DF907104EF20042CEF20002EE
:100880008854FFE702B0704782B08DF807000091EE
:100890009DF90700B0F1FF3F0CDCFFE70098000175
:1008A0009DF8071001F00F014EF61452CEF200022F
:1008B000885409E0009800019DF907104EF20042AB
:1008C000CEF200028854FFE702B0704781B00020EA
:1008D0008DF80200FFE79DF80200072823DCFFE700
:1008E00000208DF80300FFE79DF803007F2813DC4C
:1008F000FFE79DF8021040F29810C2F2000000EBF2
:10090000C1119DF8032000208854FFE79DF80300E3
:1009100001308DF80300E7E7FFE79DF802000130A2
:100920008DF80200D7E701B07047000083B0ADF842
:100930000A00ADF808108DF807208DF80630BDF8D4
:100940000800ADF80200FFE7BDF90200BDF908108C
:100950009DF80620114488424ADAFFE7BDF80A00F4
:10096000ADF80400FFE7BDF90400BDF90A109DF8D9
:1009700007201144884234DAFFE7BDF9040000285B
:1009800028D4FFE7BDF904007F2823DCFFE7BDF989
:10099000020000281ED4FFE7BDF902003F2819DC41
:1009A000FFE7BDF9020000EB507121F00702821A47
:1009B000012000FA02F36FF0700000EA011140F22A
:1009C0009810C2F200000144BDF90420885C9843ED
:1009D0008854FFE7FFE7BDF804000130ADF80400DC
:1009E000C1E7FFE7BDF802000130ADF80200ABE758
:1009F00003B0704780B582B000F0EEFA642001F0D9
:100A000061FC0020009000F08FFA1420019001F0AA
:100A100059FC012000F088FA019801F053FCAE2047
:100A200000F09CFAD52000F099FA802000F096FAA8
:100A3000A82000F093FA3F2000F090FAD32000F0B5
:100A40008DFA009800F08AFA402000F087FAA12081
:100A500000F084FAC82000F081FADA2000F07EFA73
:100A6000122000F07BFA812000F078FACF2000F00D
:100A700075FAD92000F072FAF12000F06FFADB204D
:100A800000F06CFA302000F069FAA42000F066FA59
:100A9000A62000F063FA8D2000F060FA019800F0C3
:100AA0005DFAAF2000F05AFAFFF710FF00F0AEF940
:100AB00002B080BD80B5C6B0ADF81601ADF8141116
:100AC0008DF81321439348A802904399029A03A8F2
:100AD000019004F0BBFE019ABDF91601BDF9141195
:100AE0009DF8133100F066F946B080BD80B582B044
:100AF0008DF8070000208DF80600FFE79DF806003E
:100B0000072816DCFFE79DF807009DF806108840CF
:100B1000C0B2C00900F0D4F9012000F0B7F90020FC
:100B200000F0B4F9FFE79DF8060001308DF80600EB
:100B3000E4E702B080BD000080B582B08DF8070008
:100B40008DF806109DF8070040F0B00000F006FA9E
:100B50009DF806000009103000F000FA9DF806002C
:100B600000F00F0000F0FAF902B080BD80B584B04B
:100B7000ADF80E00ADF80C108DF80B208DF80A3092
:100B80009DF80A00082815D1FFE7BDF90E00BDF950
:100B90000C109DF80B3046F28A32C0F6000202EBD0
:100BA0000312A2F500726B461A600822102300F0AF
:100BB0001FF81BE09DF80A00062816D1FFE7BDF9D3
:100BC0000E00BDF90C109DF80B2002EB420346F21B
:100BD0005012C0F6000202EB4302C03A6B461A60A4
:100BE0000622082300F004F8FFE7FFE704B080BD09
:100BF00080B584B0DDF818C0ADF80E00ADF80C106B
:100C00008DF80B208DF80A30002000908DF8090037
:100C10008DF80800BDF90E00BDF90C109DF80B20F1
:100C20009DF80A30FFF782FE00988DF80800FFE774
:100C30009DF808009DF80A10013901EB517201215D
:100C400001EBE201884280F2B280FFE700208DF8DC
:100C50000900FFE79DF809009DF80B10884280F21B
:100C60009F80FFE7BDF90E009DF809100844002899
:100C700000F18F80FFE7BDF90E009DF809100844D0
:100C80007F2800F38680FFE7BDF90C0000EB507071
:100C9000C008ADF80600BDF90C0000EB507121F062
:100CA0000701401AADF80400BDF90C00B0F1FF3F98
:100CB0000BDCFFE7BDF806000138ADF80600BDF813
:100CC00004000830ADF80400FFE7BDF906009DF808
:100CD00008100844002826D4FFE7BDF906009DF857
:100CE0000810084407281EDCFFE706989DF8081046
:100CF0009DF80B309DF8092011FB0323C05CBDF962
:100D0000043000FA03F3BDF90600014440F29810E4
:100D1000C2F2000000EBC111BDF90E000244885C74
:100D200018438854FFE7BDF906009DF808100844F1
:100D3000013000282CD4FFE7BDF906009DF808100B
:100D400008440130072823DCFFE706989DF80810C7
:100D50009DF80B209DF8093011FB0232805CBDF933
:100D60000420C2F1080220FA02F2BDF90600014493
:100D700040F29810C2F2000000EBC110BDF90E1055
:100D80001944014491F88000104381F88000FFE786
:100D9000FFE7FFE79DF8090001308DF8090059E7EA
:100DA000FFE79DF8080001308DF8080040E704B027
:100DB00080BD000080B584B0ADF80E00ADF80C1019
:100DC00002928DF8073000208DF80600FFE70298A8
:100DD0009DF80610405CB8B1FFE7BDF80E009DF825
:100DE00006C09DF807301CFB0300BDF90C10029AE9
:100DF00012F80C2000B2FFF7B9FEFFE79DF80600DD
:100E000001308DF80600E2E704B080BD80B582B005
:100E100000208DF80700FFE79DF80700072817DC82
:100E2000FFE79DF807000021FFF786FE9DF80710F9
:100E300040F29810C2F2000000EBC110802100F0D7
:100E4000A1F8FFE79DF8070001308DF80700E3E700
:100E500002B080BD80B582B08DF807009DF8070014
:100E600048B1FFE740F60000C4F201004FF4004132
:100E700001F092FC08E040F60000C4F201004FF4DB
:100E8000004101F081FCFFE702B080BD80B582B077
:100E90008DF807009DF8070040B1FFE740F60040DD
:100EA000C4F20100082101F077FC07E040F60040A1
:100EB000C4F20100082101F067FCFFE702B080BD29
:100EC00080B582B08DF807009DF8070040B1FFE7BC
:100ED00040F60040C4F20100202101F05DFC07E073
:100EE00040F60040C4F20100202101F04DFCFFE774
:100EF00002B080BD80B582B08DF807009DF8070074
:100F000040B1FFE740F60040C4F20100402101F08B
:100F100043FC07E040F60040C4F20100402101F02C
:100F200033FCFFE702B080BD80B582B08DF80700CA
:100F30009DF8070040B1FFE740F60040C4F2010011
:100F4000102101F029FC07E040F60040C4F2010046
:100F5000102101F019FCFFE702B080BD80B582B01E
:100F60008DF8070000200090FFF774FF0098FFF74E
:100F7000C1FF9DF80700FFF7B9FD0120FFF76AFFE9
:100F800002B080BD80B584B003908DF80B100020B6
:100F90000190FFF75FFF0120FFF7ACFF01988DF88C
:100FA0000A00FFE79DF80A009DF80B1088420DDA51
:100FB000FFE703989DF80A10405CFFF797FDFFE7F5
:100FC0009DF80A0001308DF80A00EBE70120FFF7D9
:100FD00041FF04B080BD000080B584B040F20360E2
:100FE00002F04AF840F2026002F046F840F60000D3
:100FF000C4F2010010210191032202924FF4004338
:1010000001F01EFC0199029A40F60040C4F2010072
:10101000782301F015FC0020FFF738FF0120039032
:10102000FFF74EFF0398FFF77FFF0398FFF762FF7C
:101030000398FFF70FFF04B080BD00007047000069
:101040007047000080B582B0009000980138B0F180
:10105000807F03D3FFE70120019019E00098013859
:101060004EF21401CEF2000108604FF0FF300F2164
:10107000FFF7E8FB4EF21801CEF2000100200860F5
:101080004EF21002CEF20002072111600190FFE73C
:10109000019802B080BD000080B501F027F980BD45
:1010A00080B584B04EF68851CEF20001086840F455
:1010B0007000086041F20001C4F20201086840F0CB
:1010C00001000860FFE741F20000C4F2020000687E
:1010D0008007002801D4FFE7F5E741F20400C4F2DD
:1010E0000200006800F00C00082840F08080FFE754
:1010F000FFE700200390FFE703984F2805D8FFE79C
:10110000FFE7039801300390F6E741F20401C4F2CF
:10111000020108680290029820F0F0000290029804
:1011200040F0800002900298086000200390FFE7E2
:1011300003984F2805D8FFE7FFE703980130039095
:10114000F6E741F20401C4F2020108680290029835
:1011500020F0F0000290029840F090000290029877
:10116000086000200390FFE703984F2805D8FFE7A9
:10117000FFE7039801300390F6E741F20401C4F25F
:10118000020108680290029820F0F0000290029894
:1011900040F0A00002900298086000200390FFE752
:1011A00003984F2805D8FFE7FFE703980130039025
:1011B000F6E741F20401C4F20201086802900298C5
:1011C00020F0F0000290029840F0B00002900298E7
:1011D000086000200390FFE703984F2805D8FFE739
:1011E000FFE7039801300390F6E7FFE7FFE741F2DE
:1011F0000401C4F202010091086820F003000860B5
:10120000C82000F059F8009A41F20001C4F202012E
:1012100008684FF6FF73CEF6F6231840086041F2D7
:101220000803C4F202034FF47F001860002001900D
:10123000106041F22C02C4F202021060086820F42F
:101240008020086002F058F801994FF0006001F02A
:1012500003FD04B080BD000080B503F05BF980BDE4
:1012600080B540F2A850C2F2000004F05FF980BDE2
:1012700080B540F2A850C2F200008079A0B1FFE72B
:10128000FFF70EFF40F6E810C2F20000006801F020
:101290002FFF40F20C5001F0EFFE40F2A850C2F2D6
:1012A000000002F0CBFDFFE74FF4802001F04CFA84
:1012B00080BD0000FFE7FEE782B0019000200090B3
:1012C000FFE70098019901EB8101B0EB410F05D2D6
:1012D000FFE7FFE7009801300090F2E702B07047A7
:1012E00083B002908DF8071000920298D0F8B003F6
:1012F00080688078009908800298D0F8B0038068F0
:1013000003B0704783B002908DF8071000920298E6
:10131000D0F8B00341688878C97840EA0120009984
:1013200008800298D0F8B003406803B0704700000E
:1013300083B002908DF8071000920298D0F8B003A5
:1013400000680078009908800298D0F8B00300681F
:1013500003B0704780B586B00490039100208DF8EB
:101360000B000398007800F003000146019140B1A2
:10137000FFE7019801281ED0FFE7019802281BD043
:1013800042E0049890F8CE00022806D0FFE70498C7
:1013900090F8CE0003280DD1FFE70398408801287C
:1013A00007D1FFE70499002081F8A2038DF8170008
:1013B0002FE0FFE729E028E0039880888DF80B00F4
:1013C000049890F8CE0003281DD1FFE703984088C9
:1013D000A8B9FFE79DF80B0088B1FFE79DF80B0067
:1013E00080280CD0FFE704989DF80B1003F07AFDDD
:1013F0000498D0F8B413CA6803999047FFE7002017
:101400008DF8170005E000E0FFE701208DF81700D8
:10141000FFE79DF8170006B080BD000085B004907E
:10142000039101208DF80B000498D03001900498AE
:1014300090F8CE0001460091022804D0FFE7009802
:1014400003280AD013E0049890F8CC0020B9FFE7F5
:1014500000208DF80B00FFE70AE0049890F8CC001C
:1014600020B1FFE700208DF80B00FFE700E0FFE769
:101470009DF80B0040B9FFE70498CC3001998860D3
:10148000019901204861FFE79DF80B0005B0704706
:1014900080B586B00590049100208DF80F008DF87E
:1014A0000E0001208DF80D000598D03002900498B0
:1014B000007800F003000146019150B1FFE7019868
:1014C000012800F07580FFE70198022800F079807C
:1014D00078E00498C0788DF80F00049840888DF863
:1014E0000E009DF80F000138014600910E285DD8CE
:1014F0000099DFE801F008243750505050505B5BF2
:101500005B5B5B5B51009DF80F1040F28810C2F2EC
:10151000000000EB810050F8043C05989DF80E1087
:10152000029A14329847029988600498C08840282B
:1015300004D1FFE7029908204861FFE737E09DF8F2
:101540000F1040F28810C2F2000000EB810050F84A
:10155000043C05989DF80E10029A1432984702999F
:10156000886024E09DF80E00092813DCFFE79DF851
:101570000F1040F28810C2F2000000EB810050F81A
:10158000043C05989DF80E10029A1432984702996F
:101590008860FFE70BE00AE005989DF80E10029ABC
:1015A0001432FFF79DFE0299886000E0FFE70AE031
:1015B0000598D0F8B413CA68049990478DF80D00C7
:1015C00001E000E0FFE70298406948B3FFE70498B4
:1015D000C08828B3FFE7029840690499C988884207
:1015E00015D2FFE702994869898888420ED3FFE740
:1015F000029842698188B2FBF1F000FB112028B902
:10160000FFE70599012081F8AD03FFE704E00498A6
:10161000C08802994861FFE700208DF80D00FFE7C0
:101620009DF80D0006B080BD85B00390029103982F
:1016300090F8CE0001460091012808D0FFE70098FD
:10164000022805D0FFE70098032802D017E017E032
:1016500016E002980079012810D8FFE70398D030EF
:1016600001900398D0F8B403013001998860019982
:101670000120486100208DF8130005E000E0FFE73D
:1016800001208DF81300FFE79DF8130005B07047A7
:1016900085B004900391039880888DF80B00012099
:1016A0008DF80A000498D03001900398007800F07B
:1016B00003000146009140B1FFE70098012836D0B1
:1016C000FFE70098022842D072E0049890F8CE001C
:1016D000022806D0FFE7049890F8CE00032825D111
:1016E000FFE7049890F8A00338B1FFE740F2985163
:1016F000C2F200010120087006E040F29851C2F2E7
:10170000000100200870FFE7049890F8A20348B198
:10171000FFE740F29851C2F20001087840F0020061
:101720000870FFE700208DF80A00FFE741E0049809
:1017300090F8CE00032809D1FFE79DF80B0001289F
:1017400004D8FFE700208DF80A00FFE731E0049895
:1017500090F8CE0003282AD1FFE79DF80B00000681
:10176000002811D5FFE704989DF80B1001F07F01C8
:1017700001EB410100EBC10090F8D20040F298511A
:10178000C2F2000108700EE004989DF80B1001EB06
:10179000410100EBC10090F83A0240F29851C2F2C8
:1017A00000010870FFE700208DF80A00FFE700E065
:1017B000FFE79DF80A0050B9FFE7019940F2985001
:1017C000C2F200008860019902204861FFE79DF89D
:1017D0000A0005B07047000082B00190009101201E
:1017E00002B0704780B584B0029001910198808862
:1017F00050BBFFE70198C08830BBFFE701988078B5
:1018000000F07F00029981F8CD00029890F8CE0098
:10181000032818D0FFE7029890F8CD1003F032F9B2
:10182000029890F8CD0028B1FFE70299022081F8D4
:10183000CE0004E00299012081F8CE00FFE70020ED
:101840008DF80F0004E0FFE701208DF80F00FFE79F
:101850009DF80F0004B080BD80B588B00790069158
:1018600001208DF817000698817840F29A50C2F254
:10187000000001700078012877D8FFE7079890F8FA
:10188000CE000146049101286CD0FFE7049802289D
:1018900004D0FFE70498032820D064E040F29A5077
:1018A000C2F200000078A8B1FFE70798D0F8B4139F
:1018B0004A6840F29A51C2F20001039109789047B8
:1018C00003980078079981F8CC000799032081F8E4
:1018D000CE00FFE700208DF8170045E040F29A5057
:1018E000C2F200000078A8B9FFE70798D0F8B41357
:1018F0008A6840F29A51C2F2000102910978904739
:1019000002980078079981F8CC000799022081F8A5
:10191000CE0023E040F29A50C2F20000007807990E
:1019200091F8CC10884217D0FFE70798D0F8B4138D
:101930008A6840F29A51C2F20001019109789047F9
:1019400001990878079A82F8CC000798D0F8B42358
:1019500052680978904700E0FFE7FFE700208DF824
:10196000170001E000E0FFE7FFE79DF8170008B06F
:1019700080BD000082B001900091002002B070474D
:1019800080B586B00490039100208DF80B00039879
:10199000007800F003000146019140B1FFE7019893
:1019A00001281FD0FFE7019802281CD03DE00498D1
:1019B00090F8CE00022806D0FFE7049890F8CE00F9
:1019C00003280ED1FFE703984088012805D1FFE7DF
:1019D0000499012081F8A203FFE700208DF8170089
:1019E00028E023E022E0039880888DF80B0004981B
:1019F00090F8CE00032817D1FFE70398408878B904
:101A0000FFE79DF80B0058B1FFE79DF80B00802819
:101A100006D0FFE704989DF80B1003F035FAFFE7B6
:101A200000208DF8170005E000E0FFE701208DF8A9
:101A30001700FFE79DF8170006B080BD80B584B0A1
:101A400002900191029890F8CE0001460091012881
:101A500008D0FFE70098022805D0FFE70098032888
:101A600002D018E018E017E001980079012811D899
:101A7000FFE70298D0F8B403006938B1FFE7029895
:101A8000D0F8B4130A6901999047FFE700208DF858
:101A90000F0005E000E0FFE701208DF80F00FFE7F1
:101AA0009DF80F0004B080BD82B00190009100202D
:101AB00002B0704784B003908DF80B100192039828
:101AC000D0F8B003C0689DF80B1050F821000090CA
:101AD0000098007801990880009804B070470000D1
:101AE00080B586B042F20040C4F20100059000F0DB
:101AF000B7F80020039000F05DF905984FF480716D
:101B00000122049200F03EFA0399059800F094F83F
:101B100004990598052200F057F80399049B05984D
:101B20000222019200F056F9039A049B0598194687
:101B300000F050F90199049B0598062200F04AF93B
:101B4000049B0598032102911A4600F043F9029A7A
:101B5000049B0598042100F03DF9039A0499059827
:101B600000F0FEF8049A0598114600F0BDF80598BB
:101B700000F0AAF8049800F0A5FB059800F006F81C
:101B8000059800F097F806B080BD000081B0009085
:101B90000099886840F008008860FFE70098806836
:101BA0000007002801D5FFE7F8E70099886840F0B2
:101BB00004008860FFE7009880684007002801D58E
:101BC000FFE7F8E701B0704784B003908DF80B1081
:101BD00001929DF80B0001460091012804D0FFE717
:101BE0000098022812D023E00399C86A20F47000FC
:101BF000C86201990020CFF6F07000EB01503FFA67
:101C000080F20399C86A1043C86212E00399886B96
:101C100020F44010886301990020CFF6F07000EBAB
:101C2000015000F440120399886B1043886300E070
:101C3000FFE704B07047000082B001900091009867
:101C400030B1FFE70199886840F40060886005E0E2
:101C50000199886820F400608860FFE702B070474F
:101C600080B584B003900398029042F20041C4F220
:101C70000101884208D0FFE7029842F60001C4F251
:101C80000101884209D011E040F20930019001F0D1
:101C90001BFA019801F004FA09E040F20A300090C2
:101CA00001F012FA009801F0FBF900E0FFE704B040
:101CB00080BD000081B000900099886840F4807079
:101CC000886001B07047000081B000900098806883
:101CD000C00730B9FFE70099886840F001008860CC
:101CE000FFE701B07047000082B001908DF803104B
:101CF0008DF802209DF80200C0B1FFE79DF80300B7
:101D0000C00730B1FFE70199886840F4801088600F
:101D1000FFE79DF803008007002806D5FFE701993B
:101D2000886840F400408860FFE717E09DF80300F2
:101D3000C00730B1FFE70199886820F480108860FF
:101D4000FFE79DF803008007002806D5FFE701990B
:101D5000886820F400408860FFE7FFE702B0704722
:101D600084B003908DF80B1001929DF80B00014692
:101D70000091012804D0FFE7009802280BD015E05D
:101D80000399886820F460208860019A0399886824
:101D9000104388600BE00399886820F4E040886075
:101DA000019A039988681043886000E0FFE704B057
:101DB0007047000081B0009042F20441C4F201017A
:101DC000086820F470200860009A086810430860D2
:101DD00001B0704785B004908DF80F108DF80E207B
:101DE00002939DF80F0005281CDCFFE70498406B68
:101DF00001909DF80F0000EB80011F2000FA01F117
:101E00000198884301909DF80E009DF80F1001EB9A
:101E1000810100FA01F101980843019001980499A9
:101E200048634AE09DF80F000B281FDCFFE7049889
:101E3000006B01909DF80F0000EB8000A0F11E01E7
:101E40001F2000FA01F10198884301909DF80E00CF
:101E50009DF80F1001EB81011E3900FA01F1019884
:101E60000843019001980499086325E09DF80F004C
:101E70000F281FDCFFE70498C06A01909DF80F004F
:101E800000EB8000A0F13C011F2000FA01F1019855
:101E9000884301909DF80E009DF80F1001EB810121
:101EA0003C3900FA01F10198084301900198049926
:101EB000C86200E0FFE7FFE7FFE79DF80E00092892
:101EC0001BDCFFE70498006900909DF80E0000EB12
:101ED0004001072000FA01F1009888430090029821
:101EE0009DF80E1001EB410100FA01F10098084342
:101EF000009000980499086124E09DF80E001128D4
:101F00001EDCFFE70498C06800909DF80E0000EB0F
:101F10004000A0F11E01072000FA01F1009888435B
:101F2000009002989DF80E1001EB41011E3900FA55
:101F300001F100980843009000980499C86000E0FF
:101F4000FFE7FFE705B0704782B001908DF80310FE
:101F50009DF80300C00730B1FFE70199886840F49D
:101F600080008860FFE79DF803008007002806D501
:101F7000FFE70199886840F400108860FFE702B02D
:101F80007047000083B0029001918DF803209DF806
:101F9000030020B3FFE79DF80500C00730B1FFE75D
:101FA0000299486840F480704860FFE79DF805009A
:101FB0004007002806D5FFE70299486840F4806092
:101FC0004860FFE79DF804008007002806D5FFE77A
:101FD0000299886840F002008860FFE723E09DF8DE
:101FE0000500C00730B1FFE70299486820F480700F
:101FF0004860FFE79DF805004007002806D5FFE789
:102000000299486820F480604860FFE79DF804006A
:102010008007002806D5FFE70299886820F00200B3
:102020008860FFE7FFE703B07047000082B00190CF
:102030000198D0F8B80300900198D0F8B403407824
:10204000FF2818D0FFE70099086C0865009991F8FF
:10205000440081F85400009991F8450081F855003A
:10206000009991F8460081F856000198D0F8B41311
:10207000FF204870FFE7002002B0704780B584B0B1
:1020800003900398D0F8B80302900298C06C78B11E
:10209000FFE702990020019081F848000398029A16
:1020A000D36C812102F074FE01980299C864FFE7A5
:1020B00004B080BD80B582B001908DF80310019806
:1020C000812102F017FE0198032102F013FE01980E
:1020D000822102F00FFE002002B080BD80B584B0E6
:1020E00003908DF80B1003989DF80B1001F07F0101
:1020F00001EB410100EBC100D03001900398D0F812
:10210000B80300900198C2688188B2FBF1F000FB2F
:10211000112060B9FFE70198C06840B1FFE703985C
:102120009DF80B1000231A4602F032FE04E00099DD
:10213000012081F84800FFE7002004B080BD0000C6
:1021400080B584B003908DF80B10039846F67E118D
:10215000C0F6000100913C3102F03EFE0099039868
:10216000353102F039FE00990398253102F034FE32
:1021700040F67811C2F20001012081F8490081F88F
:1021800048000020C8644FF4E13201928DF8080045
:102190008DF8090008228DF80A20019ADDF8073031
:1021A000C1F853300A65039AC2F8B81304B080BD71
:1021B00083B002908DF807100298D0F8B803009011
:1021C0000099012081F8490002989DF8071001EB61
:1021D000410100EBC100D0F848020099C86400201A
:1021E00003B0704785B0049003910498D0F8B80309
:1021F0000290002001900398407801460091232826
:1022000000F25C800099DFE801F0121314151659F2
:10221000595959595959595959595959595959592E
:1022200059595959595959595959172A575846E01E
:1022300045E044E043E042E0049800F50E70019070
:10224000039840780499D1F8B41348700398C08873
:102250000199486102984030019988602FE0049804
:10226000D03001900299086D81F840000299086D04
:10227000000A81F841000299B1F8520081F8420049
:10228000029991F8530081F84300029991F85400A3
:1022900081F84400029991F8550081F845000299AF
:1022A00091F8560081F84600029840300199886004
:1022B00001990720486102E001E000E0FFE700200B
:1022C00005B0704781B00090009840F6D011C2F27E
:1022D00000010860FFE740F6D010C2F2000000687D
:1022E00008B1FFE7F7E701B07047000040F6D010F3
:1022F000C2F20000006840B1FFE740F6D011C2F220
:102300000001086801380860FFE7704780B582B0B7
:1023100001908DF8031001989DF8031000F0F6F974
:1023200010B9FFE7FFE7FEE701989DF8031001EB06
:10233000810100EB8101886840F00100886002B0F3
:1023400080BD000080B582B001908DF80310019827
:102350009DF8031000F0DAF910B9FFE7FFE7FEE798
:1023600001989DF8031001EB810100EB8101886861
:1023700040F02000886002B080BD000080B58AB0C7
:102380004FF4A06000F078FE0020C4F2020000903C
:102390000021019100F038F80098019942F24C4276
:1023A000C4F2010203928DF8241040F29C52C2F252
:1023B00000020592012202928DF825204FF48072CE
:1023C00004924FF4806206928DF82610052207923F
:1023D0004FF40052089203AA00F05CF800980199AB
:1023E000FFF7B0FF00980199022200F0F7F800987B
:1023F0000199FFF78BFF029942F20040C4F20100FD
:10240000FFF7A2FD0AB080BD80B582B001908DF8C3
:10241000031001989DF8031000F078F910B9FFE758
:10242000FFE7FEE701989DF8031001EB810100EB47
:102430008101886820F00100886001989DF80310F0
:1024400001EB810100EB81010020886001999DF87A
:10245000032002EB820201EB8201C86001999DF822
:10246000032002EB820201EB8201086101999DF8D1
:10247000032002EB820201EB820148619DF8030018
:1024800081000F2000FA01F201994868104348606A
:1024900002B080BD80B584B003908DF80B1001921E
:1024A00003989DF80B1000F031F910B9FFE7FFE732
:1024B000FEE70198006803999DF80B2002EB820269
:1024C00001EB820108610198806803999DF80B2057
:1024D00002EB820201EB820148610198008A0399B4
:1024E0009DF80B2002EB820201EB8201C860039889
:1024F0009DF80B1001EB810100EB810080680090DA
:10250000009820F47C50009001994868CA68496995
:1025100010430143009808430090009803999DF8E8
:102520000B2002EB820201EB820188600198007EA1
:1025300001280CD1FFE703989DF80B1001EB8101F6
:1025400000EB8101886840F0400088600BE0039850
:102550009DF80B1001EB810100EB8101886820F0F0
:1025600040008860FFE70198407E01280CD1FFE71A
:1025700003989DF80B1001EB810100EB8101886845
:1025800040F0800088600BE003989DF80B1001EB91
:10259000810100EB8101886820F080008860FFE7FE
:1025A0000198807E60B9FFE703989DF80B1001EB5E
:1025B000810100EB8101886820F0100088600BE049
:1025C00003989DF80B1001EB810100EB81018868F5
:1025D00040F010008860FFE704B080BD80B584B093
:1025E00003908DF80B10019203989DF80B1000F0EA
:1025F0008DF810B9FFE7FFE7FEE7019A03989DF811
:102600000B1001EB810100EB8101886810438860A9
:1026100004B080BD83B002908DF80710009200983E
:102620009DF80710890000FA01F2029948681043EA
:10263000486003B07047000087B006908DF817100F
:1026400004920020039002908DF8070004980090F7
:10265000022808D0FFE70098042819D0FFE7009867
:1026600008282AD03EE00698006804999DF81720B3
:10267000920091400840029006989DF8171001EBD7
:10268000810100EB8100806800F0020003902BE0E4
:102690000698006804999DF8172092009140084020
:1026A000029006989DF8171001EB810100EB810064
:1026B000806800F00400039016E006980068049912
:1026C0009DF81720920091400840029006989DF8CE
:1026D000171001EB810100EB8100806800F0080019
:1026E000039001E0FFE7FEE7029838B1FFE70398A7
:1026F00020B1FFE701208DF8070003E000208DF8EE
:102700000700FFE79DF8070007B0704782B001900F
:102710008DF8031001208DF80200019840F200416D
:10272000C4F2020188420AD1FFE79DF803000528A0
:1027300004DBFFE700208DF80200FFE7FFE79DF8CC
:10274000020002B07047000081B00090009840F293
:102750001441C4F20101086001B0704780B584B033
:102760000390029140F2A850C2F200000190103094
:1027700003A901231A4602F057F90198FFF77EFCDE
:10278000039804B080BD000082B0019000910098D1
:102790000199486102B0704782B0019000910098A1
:1027A0000199086102B0704780B586B040F20260BE
:1027B00000F062FC40F2036000F05EFC40F2046056
:1027C00000F05AFC40F2096000F056FC012000F0D5
:1027D000E5FA40F60000C4F20100039018210491CC
:1027E000032205924FF4807300F02AF80499059AA9
:1027F00040F60040C4F201004FF4005300F020F80E
:102800000398002104224F2300F01AF8059A41F2A0
:102810000000C4F20100019010214FF460430293C4
:1028200000F00EF801980299FFF7B6FF039804999B
:10283000059A4FF4C05300F003F806B080BD0000C5
:1028400087B00690059104920393002001900090B8
:10285000059800F00F0001909DF81400C0060028B4
:1028600014D5FFE7049804280AD1FFE7019840F047
:1028700003000190039A0699C86B1043C86304E0F3
:102880000499019808430190FFE7FFE70020ADF8A5
:102890000A00FFE7BDF80A00072842D8FFE7BDF8A5
:1028A0000A100398C840C007A0B3FFE70698006865
:1028B0000090BDF80A0081000F2000FA01F1009895
:1028C000884300900198BDF80A10890000FA01F1D0
:1028D0000098084300900598282809D1FFE7BDF823
:1028E0000A100120884003990840069948610DE0CC
:1028F0000598482809D1FFE7BDF80A100120884053
:102900000399084006990861FFE7FFE700980699D8
:102910000860FFE7FFE7BDF80A000130ADF80A00E4
:10292000B8E70820ADF80A00FFE7BDF80A000F2855
:1029300046D8FFE7BDF80A100398C840C007C0B3E7
:10294000FFE7069840680090BDF80A006FF01F018D
:1029500001EB80020F2000FA02F2009890430090F1
:102960000198BDF80A2001EB820100FA01F10098FC
:10297000084300900598282809D1FFE7BDF80A1000
:102980000120884003990840069948610DE00598A8
:10299000482809D1FFE7BDF80A10012088400399B3
:1029A000084006990861FFE7FFE70098069948602C
:1029B000FFE7FFE7BDF80A000130ADF80A00B4E711
:1029C00007B0704780B582B001908DF80310019870
:1029D00040F6D411C2F2000108609DF8030000F037
:1029E00011F8FFE740F6D410C2F20000006808B109
:1029F000FFE7F7E740F20040C4F2000001F072F890
:102A000002B080BD80B588B08DF81F0040F2004054
:102A1000C4F20000029001F065F80298012101F073
:102A2000FDF89DF81F00022803D1FFE70B20059059
:102A30000AE09DF81F00012804D1FFE742F6DF609D
:102A4000059000E0FFE7FFE740F29410C2F20000BB
:102A50000088ADF80C000020ADF80E00ADF81000B5
:102A6000ADF818008DF81A0040F20040C4F20000E2
:102A7000019003A901F04AF801980121009101F0A9
:102A8000E1F8019800F0DAFC0099019801F0D0F823
:102A9000019801F031F808B080BD000083B00290C9
:102AA00001918DF8032000208DF80200FFE79DF8CA
:102AB00002009DF80310884229DAFFE70298000F10
:102AC000092809D8FFE70298000F303001999DF8D6
:102AD000022001F8120009E00299372000EB117082
:102AE00001999DF8022001F81200FFE70298000109
:102AF000029001989DF8021000EB410100204870FF
:102B0000FFE79DF8020001308DF80200CFE703B027
:102B10007047000080B582B000200090019000F066
:102B2000EFFB00F0ADF801F0E9FB01F0E3FC40F24F
:102B3000A850C2F2000040F27401C2F2000140F25B
:102B40004402C2F2000202F065FA01F099FBFDF7BF
:102B500051FFFDF7BBFE009946F6EF33C0F60003C8
:102B600008220846FDF7A6FFFEF750F942F20040A2
:102B7000C4F201000121FFF7E7F946F6E830C0F69C
:102B8000000002F053FEFFE746F6E830C0F6000012
:102B900002F04CFE4FF4FA70FFF794FBF4E70000EC
:102BA00080B50B200022114600F002F880BD000025
:102BB00080B584B08DF80F008DF80E108DF80D20C3
:102BC0004EF60C50CEF20000006800F4E0600146C2
:102BD0000091B0F5407F14D0FFE70098B0F5806F0A
:102BE0000FD0FFE70098B0F5A06F0AD0FFE700987C
:102BF000B0F5C06F05D0FFE70098B0F5E06F01D1E8
:102C0000FFE704E04FF4A06000F018F8FFE7FDF7DD
:102C100011FE029002989DF80E109DF80D20FDF710
:102C2000D3FD01909DF90F000199FDF72DFE9DF94F
:102C30000F00FDF7B7FD04B080BD000081B000902B
:102C400000980021C0F2FA5108434EF60C51CEF222
:102C50000001086001B0704782B0019000910198B6
:102C600000994FF68072C1F6FF72114008434EF68C
:102C70000851CEF200010860BFF34F8F02B07047D9
:102C800080B5FFF791FD00F055FBFFF777FBFEF7EE
:102C900027FFFFF785FF80BD82B001908DF80310FC
:102CA00047F20001C4F20001086820F00300086048
:102CB000019A0868104308604EF61051CEF20001E8
:102CC000086840F0040008604EF21001CEF20001E6
:102CD000086840F6D812C2F2000210604EF20010EE
:102CE000CEF20000006850604EF20410CEF20000F8
:102CF000006890604EF20810CEF200000068D060CC
:102D000008680422C0F20102104008604EF28011EF
:102D1000CEF200014FF63D00CFF67F7008604EF214
:102D20008411CEF200016FF4E06008604EF2881169
:102D3000CEF200014FF0FF3008609DF8030010B99B
:102D4000FFE730BF03E040BF20BF20BFFFE740F6F2
:102D5000D810C2F2000001684EF21002CEF200025A
:102D6000116041684EF20012CEF2000211608168DB
:102D70004EF20412CEF200021160C0684EF2081149
:102D8000CEF2000108604EF61051CEF20001086844
:102D900020F00400086002B07047000084B0039087
:102DA00041F20400C4F2020000680290029843F667
:102DB000FF71CEF6FF710840029041F22C00C4F280
:102DC000020000680190019820F0005001900398E3
:102DD000009004280DD3FFE7009805280FD0FFE7E7
:102DE000009807280BD0FFE700980838042812D372
:102DF0001FE00399029840EA813002901AE003989C
:102E000020F0040003900399029840EA813040F0DA
:102E1000805002900EE0039820F00C00039003997C
:102E2000029840EA81300290019840F000500190F1
:102E300000E0FFE7029841F20401C4F202010860D9
:102E4000019841F22C01C4F20201086004B07047FD
:102E50009BB08DF86B000020189040F20671C0F610
:102E60000811099140F20121C0F203410891079035
:102E70000690059104900391029041F20400C4F27F
:102E800002000068C0F3810019901998019040B1C8
:102E9000FFE7019801280AD0FFE7019802280CD02B
:102EA000A0E041F20020C0F27A001790A0E041F2C9
:102EB0000020C0F27A0017909AE041F20400C4F2B8
:102EC0000200006800F4803013901398B0F5803F42
:102ED00053D1FFE741F22C00C4F20200006800F079
:102EE00080401290129830B9FFE741F20020C0F202
:102EF0007A000F9005E046F60040C0F2DC200F900B
:102F0000FFE741F22C00C4F20200006800F48030B8
:102F100011901198B0F5803F20D1FFE741F22C00CD
:102F2000C4F202000168CAB2012101EB12110B9137
:102F3000006800F47061022000EB11200A900A98EA
:102F4000112803D1FFE714200A90FFE70F980B998F
:102F5000B0FBF1F00A9948430F90FFE741F22C00D3
:102F6000C4F20200006800F00F0001300C900C99D0
:102F70000F98B0FBF1F00F9005E040F60010C0F2A2
:102F80003D000F90FFE741F20400C4F20200016827
:102F9000C1F38341109100688000002805D5FFE748
:102FA000109840F010001090FFE710980E2804D8F9
:102FB000FFE710980230109003E010980130109055
:102FC000FFE70F9810994843179010980F2808D1E1
:102FD000FFE70F9901EB4100400000EB5100179013
:102FE000FFE705E041F20020C0F27A001790FFE70A
:102FF00041F20400C4F202000168C9B209090E914D
:103000000E9A06A9895C0D9117990D9AD1401691D7
:103010000168C1F302210E910E9A04A9895C0D91F9
:1030200016990D9AD14015910068C0F3C2200E90F8
:103030000E9902A8405C0D9016980D99C840149006
:103040009DF86B0001460091032810D80099DFE835
:1030500001F00205080B1798189009E016981890CF
:1030600006E01598189003E01498189000E0FFE728
:1030700018981BB07047000081B0ADF80200BDF891
:10308000020000F01F02012101FA02F3810941F25E
:103090000002C4F2020288581843885001B07047F9
:1030A00081B0ADF80200BDF8020000F01F0201215E
:1030B00001FA02F3810941F20002C4F202028858C7
:1030C0009843885001B0704781B0ADF80200BDF858
:1030D000020000F01F02012101FA02F3810941F20E
:1030E0000002C4F2020288581843885001B07047A9
:1030F00082B0019041F20401C4F20201086800901C
:10310000009820F4400000900098019A1043086055
:1031100002B0704780B586B0059005980078062803
:1031200027D0FFE74FF2E870C1F6FF700068049007
:103130004FF2EC70C1F6FF70006803904FF2F07030
:10314000C1F6FF7000680290029904980844049048
:10315000049868B1FFE70498059902310822FFF747
:103160009DFC0398059912310422FFF797FCFFE7B5
:1031700011E042F20010C4F20200006801900198D0
:1031800040B1FFE7019805994880BDF80600059910
:103190008880FFE7FFE706B080BD000085B0002013
:1031A0000490039041F20001C4F20201086840F467
:1031B00080300860FFE704980130049041F200007D
:1031C000C4F20200006800F400300390FFE70399A6
:1031D0000020019041B9FFE704984FF6FF71401AB3
:1031E00018BF01200190FFE70198C0070028E2D135
:1031F000FFE741F20000C4F20200006880030028EB
:1032000002D4FFE7FFE7FEE742F20001C4F2020149
:103210000868032262F30200086041F20401C4F26C
:10322000020100910868086008680860086840F4B6
:103230008060086008684FF6FF72CDF6C3721040D8
:10324000086008680022C2F235021043086041F2AB
:103250002C01C4F2020108684FF20002CBF6FE72A4
:1032600010400860086840F61902C0F201021043DD
:10327000086041F20001C4F20201086840F0806079
:103280000860FFE741F20000C4F20200006800019C
:10329000002801D4FFE7F5E741F20001C4F2020182
:1032A000086840F080700860FFE741F20000C4F257
:1032B000020000688001002801D4FFE7F5E741F231
:1032C0000401C4F2020108680290029820F0030091
:1032D0000290029840F00200029002980860FFE716
:1032E00041F20400C4F2020000680007002801D483
:1032F000FFE7F5E705B0704780B5FFF74FFF80BDEA
:1033000080B540F20400C2F20000006844F6D351D8
:10331000C1F26201A0FB01108009FDF793FE10B11C
:10332000FFE7FFE7FEE74FF0FF300021FDF78AFAE5
:1033300080BD000080B592B040F20B60FFF79CFEAC
:1033400040F20B300090FFF7BFFE0098FFF7A8FE99
:1033500042F60040C4F20100069000F0CDFA0BA83E
:10336000019000F0BFFC0199069800220392ADF88D
:103370002C20ADF82E20ADF8302040F6B7330D9359
:10338000ADF838208DF83A2000F0C0FB0FA802906D
:1033900000F0A0FA029A0399069801230593ADF86C
:1033A0003C300423ADF83E30ADF84010ADF842108B
:1033B000ADF84410ADF8461000F074F80399069883
:1033C00040F28402C2F20002128800F019FA039956
:1033D0000698602200F0CEF9039A0698114600F094
:1033E00033FA0DF11E00049000F048F8039A049996
:1033F0000698ADF81E20ADF820203223ADF822301B
:10340000ADF824204FF48043ADF826304FF480739C
:10341000ADF82830ADF82A2000F01AF806984021BF
:1034200000F038FC0599069800F044FC069800F07E
:1034300005F8069800F060FB12B080BD81B00090E6
:103440000099086840F08000086001B070470000F3
:1034500082B001900091009908884A8810438A88B8
:103460001043CA8810430A8910434A891043898946
:1034700008430199486402B07047000081B0009091
:103480000099002008800099488000998880009960
:10349000C88000990881009948810099888101B00D
:1034A0007047000084B00390ADF80A100192BDF897
:1034B0000A0001460091032800F259810099DFE8D3
:1034C00011F004005D00BC001B010399086A20F0A4
:1034D00001000862019802880399086A1043086293
:1034E0000399086A20F00200086201988288039913
:1034F000086A10430862039842F60041C4F20101D1
:10350000884208D0FFE7039843F20041C4F201016A
:1035100088422DD1FFE70399086A20F00400086271
:10352000019842880399086A104308620399086A5F
:1035300020F0080008620198C2880399086A1043C5
:1035400008620399486820F48070486001980289F5
:1035500003994868104348600399486820F4007054
:103560004860019842890399486810434860FFE722
:103570000399886920F003008861F9E00399086ADB
:1035800020F010000862019802880399086A40EA56
:10359000021008620399086A20F02000086201986E
:1035A00082880399086A40EA02100862039842F68A
:1035B0000041C4F20101884208D0FFE7039843F2BA
:1035C0000041C4F20101884231D1FFE70399086A42
:1035D00020F040000862019842880399086A40EA96
:1035E000021008620399086A20F0800008620198BE
:1035F000C2880399086A40EA021008620399486881
:1036000020F480604860019802890399486840EA84
:10361000820048600399486820F40060486001987F
:1036200042890399486840EA82004860FFE70399AD
:10363000886920F4407088619AE00399086A20F450
:1036400080700862019802880399086A40EA0220A3
:1036500008620399086A20F4007008620198828861
:103660000399086A40EA02200862039842F6004182
:10367000C4F20101884208D0FFE7039843F20041F9
:10368000C4F20101884231D1FFE70399086A20F4AE
:1036900080600862019842880399086A40EA022023
:1036A00008620399086A20F4006008620198C288E1
:1036B0000399086A40EA022008620399486820F4E6
:1036C00080504860019802890399486840EA0210D6
:1036D00048600399486820F4005048600198428986
:1036E0000399486840EA02104860FFE70399C869F7
:1036F00020F00300C8613BE00399086A20F4805081
:103700000862019802880399086A40EA0230086258
:103710000399086A20F4005008620198828803998E
:10372000086A40EA02300862039842F60041C4F297
:103730000101884208D0FFE7039843F20041C4F238
:10374000010188420DD1FFE70399486820F48040C9
:103750004860019802890399486840EA82104860ED
:10376000FFE70399C86920F44070C86100E0FFE7F3
:1037700004B0704783B00290ADF80610ADF8042095
:10378000BDF8060001460091032836D80099DFE80D
:1037900001F0020E1B270299886920F070008861F1
:1037A000BDF80420029988691043886126E00299D7
:1037B000886920F4E0408861BDF804200299886996
:1037C00040EA0220886119E00299C86920F070007F
:1037D000C861BDF804200299C8691043C8610DE0B2
:1037E0000299C86920F4E040C861BDF8042002993C
:1037F000C86940EA0220C86100E0FFE703B07047F3
:1038000084B00390ADF80A100192BDF80A00014699
:103810000091032814D80099DFE801F002060A0E8F
:103820000198039948630CE001980399886308E0C4
:1038300001980399C86304E001980399086400E0C3
:10384000FFE704B07047000083B00290ADF80610A7
:10385000ADF80420BDF8060001460091032836D8D3
:103860000099DFE801F0020E1B270299886920F019
:1038700008008861BDF804200299886910438861B6
:1038800026E00299886920F400608861BDF8042070
:103890000299886940EA0220886119E00299C869A2
:1038A00020F00800C861BDF804200299C8691043DF
:1038B000C8610DE00299C86920F40060C861BDF8D4
:1038C00004200299C86940EA0220C86100E0FFE7CD
:1038D00003B0704781B000900099002008800099E3
:1038E0004880009988800099C880009908810099D3
:1038F000488101B07047000080B590B00F900F98DC
:103900000E90B0F1804F74D0FFE70E9840F2004166
:10391000C4F20001884275D0FFE70E9840F600011E
:10392000C4F20001884276D0FFE70E9840F60041CD
:10393000C4F20001884277D0FFE70E9841F20001FF
:10394000C4F20001884278D0FFE70E9841F20041AE
:10395000C4F20001884279D0FFE70E9841F60001D9
:10396000C4F20001884200F09E80FFE70E9841F605
:103970000041C4F20001884200F09E80FFE70E98EB
:1039800042F20001C4F20001884200F09E80FFE78D
:103990000E9842F60041C4F20101884220D0FFE7B0
:1039A0000E9843F20041C4F20101884257D0FFE76C
:1039B0000E9844F60041C4F20101884258D0FFE756
:1039C0000E9845F20001C4F20101884259D0FFE788
:1039D0000E9845F20041C4F2010188425AD07DE0C0
:1039E00040F20B300D90FFF76FFB0D98FFF758FB7F
:1039F00075E04FF480600C90FFF766FB0C98FFF7C2
:103A00004FFB6CE040F201400B90FFF75DFB0B9821
:103A1000FFF746FB63E040F202400A90FFF754FBD9
:103A20000A98FFF73DFB5AE040F203400990FFF788
:103A30004BFB0998FFF734FB51E040F2044008903B
:103A4000FFF742FB0898FFF72BFB48E040F20540E8
:103A50000790FFF739FB0798FFF722FB3FE040F2A2
:103A60000D300690FFF730FB0698FFF719FB36E0A4
:103A700040F213300590FFF727FB0598FFF710FB86
:103A80002DE04FF445700490FFF71EFB0498FFF7FC
:103A900007FB24E040F215300390FFF715FB039875
:103AA000FFF7FEFA1BE040F206400290FFF70CFB26
:103AB0000298FFF7F5FA12E040F207400190FFF795
:103AC00003FB0198FFF7ECFA09E04FF481600090E6
:103AD000FFF7FAFA0098FFF7E3FA00E0FFE710B00B
:103AE00080BD000081B000900099086820F00100BE
:103AF000086001B07047000081B00090009908682C
:103B000040F00100086001B07047000082B00190F1
:103B100000910098008801998862019842F600415E
:103B2000C4F20101884225D0FFE70198B0F1804F2F
:103B300020D0FFE7019840F20041C4F20001884222
:103B400018D0FFE7019840F60001C4F20001884256
:103B500010D0FFE7019840F60041C4F2000188420E
:103B600008D0FFE7019843F20041C4F20101884206
:103B700016D1FFE70199086820F0700008600098EE
:103B8000408800F0600201990868104308600098BE
:103B9000808800F010020199086810430860FFE770
:103BA000009880680199C862019841F20001C4F24E
:103BB0000001884216D0FFE7019841F20041C4F2AB
:103BC000000188420ED0FFE70199086820F4407098
:103BD00008600098808900F44072019908681043D9
:103BE0000860FFE7019842F60041C4F201018842F3
:103BF00008D0FFE7019843F20041C4F20101884276
:103C000005D1FFE70098807B01990863FFE70199E0
:103C1000486940F00100486102B0704782B00190ED
:103C20000091009A0199C8689043C86002B070473B
:103C300082B001900091009A0199C8681043C86051
:103C400002B0704782B0019000910098C043019982
:103C5000086102B07047000084B00390029103989D
:103C6000C0680299084001900398006902990842CF
:103C700007D0FFE7019820B1FFE701208DF803008E
:103C800003E000208DF80300FFE79DF8030004B077
:103C90007047000082B0019000910199486820F0BF
:103CA00070004860009A019948681043486002B06B
:103CB0007047000082B001908DF803109DF803005A
:103CC000012806D1FFE70199486C40F400404864A0
:103CD00005E00199486C20F400404864FFE702B019
:103CE0007047000081B00090009900200880009982
:103CF000488000998880009A4FF6FF719160009982
:103D000088810099887301B07047000080B5B6B013
:103D100035903491359900200390C870359A02216E
:103D20001170359B4FF0A042DA60359B08225A7023
:103D3000359B04229A70359A1171359A012151717F
:103D4000359988713498009005A80190BC210291A2
:103D5000FCF733FA00980199029A359BDB680593CA
:103D6000359BDB6803F500630693359BDB6803F541
:103D700080630793359BDB6803F588632393359B4A
:103D8000DB6803F560633393FCF7FEF903988DF865
:103D90001300FFE79DF813003599897888421FDAF0
:103DA000FFE73598C0689DF8132000EB421000F53E
:103DB0001060349901EB8201C8603598C0689DF8A5
:103DC000132000EB421000F53060349901EB8201C2
:103DD0004862FFE79DF8130001308DF81300D9E722
:103DE00000208DF81200FFE79DF812003599497800
:103DF00088421FDAFFE73598C0689DF8122000EB73
:103E0000421000F5A060349901EB8201C863359837
:103E1000C0689DF8122000EB023000F58050349904
:103E200001EB8201C867FFE79DF8120001308DF8B1
:103E30001200D9E7002036B080BD000081B00090AC
:103E40000098807978B1FFE7009840698068C007E2
:103E500040B1FFE70098D0F8C810086820F00300D0
:103E60000860FFE7FFE701B07047000080B584B04D
:103E7000DDF818C003930292019100909DF80400B0
:103E800001281ED1FFE706980168886B20F4803076
:103E900088639DF8050038B1FFE706980168886BD4
:103EA00040F480108863FFE706980168C8684FF601
:103EB000BF72CFF6DF721040C860069800F028F895
:103EC00023E006980168C86840F04000C860069882
:103ED00000F01EF806980168886B40F45020886353
:103EE00006980168886B40F4001088639DF805000F
:103EF00038B1FFE706980168886B40F4801088634A
:103F0000FFE7142000F0C8F9FFE7002004B080BDEF
:103F100080B582B0019001980168086940F0010005
:103F20000861FFE7019800680069C00708B1FFE772
:103F3000F8E7032000F09CFD02B080BD81B0009046
:103F40000098416B1820C6F20800086101B0704764
:103F500082B001908DF8031001980168C86820F0C4
:103F6000C040C8609DF8030038B9FFE701980168B8
:103F7000C86840F08040C8600DE09DF8030001284B
:103F800007D1FFE701980168C86840F00050C86099
:103F900000E0FFE7FFE702B07047000081B000904B
:103FA00000984169486820F00200486001B07047FD
:103FB00081B0009000984169486840F00200486074
:103FC00001B0704782B001908DF8031001984169EB
:103FD000086820F4FE6008609DF80320019841699C
:103FE000086840EA0210086002B0704780B584B0EB
:103FF0000390002001908DF80B000399D1F8C810B0
:10400000086003984169086820F4C050086003986C
:1040100041690868086003984169086820F0030056
:10402000086003984169086840F00300086003983D
:104030001030802100F004FA01988DF80B00FFE7A2
:104040009DF80B00032813D8FFE7039810309DF864
:104050000B1040F20802C2F2000232F8112000F008
:10406000FBF9FFE79DF80B0001308DF80B00E7E747
:1040700003981030102100F0BBFC0398103000F0C2
:10408000ABF90398416900200861039949694861C7
:1040900003994A694FF0FF31916103994969C861F9
:1040A0008DF80B00FFE79DF80B0003998978884293
:1040B00063DAFFE703989DF80B1000EB8100C069FD
:1040C0000068C00F58B1FFE703989DF80B1000EB94
:1040D0008100C169086840F09040086008E00398DA
:1040E0009DF80B1000EB8100C16900200860FFE71C
:1040F00003989DF80B1000EB8100C1690020086156
:1041000003989DF80B1000EB8100C169FF208860C7
:1041100003989DF80B1000EB8100406B0068C00F06
:1041200058B1FFE703989DF80B1000EB8100416B3D
:10413000086840F09040086008E003989DF80B1074
:1041400000EB8100416B00200860FFE703989DF8B9
:104150000B1000EB8100416B0020086103989DF873
:104160000B1000EB8100416BFF208860FFE79DF89A
:104170000B0001308DF80B0095E703984169086941
:1041800040F010000861039800F004F8002004B02B
:1041900080BD000081B00090009801694FF0FF30B1
:1041A0004860009801696FF080404861009801699B
:1041B00040F60000C8F2000088610098C07838B965
:1041C000FFE700980169886940F010008861FFE707
:1041D00000980169886943F20802C0F23C0210436A
:1041E0008861002001B0704781B00090009801689C
:1041F000886820F00100886001B0704781B00090AD
:1042000000980168886840F00100886001B070473C
:1042100082B00190019840698069009001984069DE
:10422000C169009808400090009800F03F0002B07B
:104230007047000085B004908DF80F1000200290A8
:10424000049840690069009004984069406B0190AF
:1042500001989DF80F10C84000F00101009840EA55
:10426000C110009004989DF80F1000EB8100C06908
:104270008068009908400290029805B070470000DD
:1042800080B54FF4A060FEF7D9FC43200221002244
:10429000FEF78EFC80BD000080B582B001900198D1
:1042A0000121FEF78FFB02B080BD000082B00190BB
:1042B000019840698069009001984069C16900983F
:1042C000084000900098C0F3054002B0704700001D
:1042D00083B002908DF8071002989DF8071000EB4C
:1042E0008100406B806800900298406941690098A5
:1042F00008400090009803B07047000080B582B07D
:104300000020FEF7A5FD0190019846F60041C0F29D
:10431000DC2188420ED1FFE740F29411C2F2000185
:104320000320088040F6E811C2F200014FF480003B
:10433000086044E001984AF20021C0F24A418842F4
:104340000DD1FFE740F29411C2F200010520088070
:1043500040F6E811C2F20001002008602EE001984A
:104360004DF60001C0F2B85188420ED1FFE740F28D
:104370009411C2F200010720088040F6E811C2F251
:1043800000014FF44000086017E0019840F600611A
:10439000C0F2277188420ED1FFE740F29411C2F2B9
:1043A00000010920088040F6E811C2F200014FF434
:1043B0000000086000E0FFE7FFE7FFE7FFE740F6E7
:1043C000E810C2F200000068FEF792FE40F20C50C6
:1043D000FEF752FE02B080BD80B582B00190019818
:1043E000016810200861FFE7019800680069C006B5
:1043F000002801D5FFE7F7E7032000F039FB002094
:1044000002B080BD85B004900391ADF80A20BDF8DC
:104410000A000330800801900498C06F0090FFE705
:104420000198411E019140B1FFE70098006803998F
:104430000860039804300390F2E7039805B07047D2
:1044400082B00190ADF80210BDF802000199096830
:10445000486202B07047000084B003908DF80B10E2
:10446000ADF8082003980068406A01909DF80B00A1
:1044700048B9FFE7BDF80810019840EA01400399E8
:104480000968886233E003980068816A019800EB4C
:104490001140019000208DF80300FFE79DF8030014
:1044A0009DF80B100139884213D2FFE7039800688A
:1044B0009DF8031000EB8100D0F80411019800EB87
:1044C00011400190FFE79DF8030001308DF80300D3
:1044D000E4E7BDF80810019840EA01400399096833
:1044E0009DF80B2001EB8201C1F80001FFE704B049
:1044F0007047000080B54FF4A060FEF79FFB1D20C1
:1045000001210022FEF754FB40F20170FEF7B4FDDA
:1045100080BD000080B540F20040C4F200000121DF
:10452000FFF79AFBF0B1FFE740F20040C4F2000051
:104530000121FFF787FB40F6D410C2F200000068AB
:1045400040B1FFE740F6D411C2F20001086801381B
:10455000086006E040F20040C4F20000FFF7C2FA33
:10456000FFE7FFE780BD000086B0059004910020C2
:1045700003900290059949698968C1F3410101914D
:104580000499097801F00F018DF803100499097856
:10459000B0EBD11F0DD0FFE705989DF8031000EB9D
:1045A0008100C06903909DF80310012088400290AB
:1045B0000EE005989DF8031000EB8100406B03901E
:1045C0009DF8030000F11001012088400290FFE7F0
:1045D00003980068000400282FD4FFE703990868B7
:1045E0004FF60002CFF63342104008609DF80300FA
:1045F00058B9FFE7019946F24C10C0F60000425C42
:10460000039908681043086006E0049882880399BB
:10461000086810430860FFE70498407880049DF81C
:10462000031040EA815003990A68104348F20002DF
:10463000C1F2000210430860FFE7029A0598416941
:10464000C8691043C861002006B0704784B0039069
:104650000291002001900299097801F00F018DF874
:10466000031002990978B0EBD11F08D0FFE7039837
:104670009DF8031000EB8100C069019007E00398EA
:104680009DF8031000EB8100406B0190FFE701995A
:10469000086820F40010086002984078032805D0CC
:1046A000FFE702984078022806D1FFE701990868E1
:1046B00040F080500860FFE7002004B07047000021
:1046C00084B003900291002001900299097801F0D2
:1046D0000F018DF8031002990978B0EBD11F10D0AB
:1046E000FFE79DF8031001208840019003989DF892
:1046F000031000EB8100C169086820F400400860E5
:1047000011E09DF8030000F11001012088400190A4
:1047100003989DF8031000EB8100416B086820F4BA
:1047200000400860FFE7019A03984169C869904317
:10473000C861002004B0704780B586B00590049130
:1047400000208DF80F000498007800F00F008DF81D
:104750000E0005989DF80E1000EB8100C0690068FE
:10476000029005989DF80E1000EB8100C069006969
:104770000190019800F0604001900498C06828B949
:10478000FFE7019840F40020019035E09DF80E000D
:10479000B0B9FFE70499C8688988884204D2FFE766
:1047A0000498C068009003E0049880880090FFE7B8
:1047B00000980499C860019840F4002001900BE033
:1047C0000499C868898808440138B0FBF1F1019860
:1047D00040EAC1400190FFE70498C168019808438E
:1047E000019004984078012805D1FFE7019840F036
:1047F00000500190FFE7FFE7019805999DF80E2012
:1048000001EB8201C969086104984078012812D13E
:10481000FFE7059840698068000AC00728B1FFE7F4
:10482000029840F08050029004E0029840F000505E
:104830000290FFE7FFE7029840F0044002900298E0
:1048400005999DF80E2001EB8201C9690860059861
:10485000C07800BBFFE704984078012810D0FFE73C
:104860000498C06858B1FFE79DF80E10012000FAC7
:1048700001F205984169486B10434863FFE709E07E
:1048800005981030049B99689DF80E209B8900F0D4
:10489000CBF8FFE7FFE79DF80F0006B080BD0000F2
:1048A00086B00590049100208DF80F0004980078E0
:1048B00000F00F008DF80E0005989DF80E1000EB2B
:1048C0008100406B0068029005989DF80E1000EB87
:1048D0008100406B00690190019800F060400190F8
:1048E0000498C06820B1FFE79DF80E0050B9FFE7BB
:1048F00004988188019808430190019840F40020B1
:10490000019014E00499C868898808440138B0FB14
:10491000F1F000900099019840EAC14001900098A0
:10492000049989884143019808430190FFE7019861
:1049300005999DF80E2001EB8201496B08610498EE
:10494000407801280FD1FFE70498C07828B1FFE72D
:10495000029840F00050029004E0029840F080502D
:104960000290FFE7FFE7029840F0044002900298AF
:1049700005999DF80E2001EB8201496B08609DF8B6
:104980000F0006B07047000084B003900291002031
:1049900001900299097801F00F018DF80310029936
:1049A0000978B0EBD11F13D0FFE703989DF80310EF
:1049B00000EB8100C069019001980068C00F30B120
:1049C000FFE70199086840F080400860FFE707E0D2
:1049D00003989DF8031000EB8100406B0190FFE706
:1049E0000199086840F400100860002004B0704786
:1049F00080B582B001908DF803109DF8030080010E
:104A00002030019909680861FFE701980068006992
:104A10008006002801D5FFE7F7E7032000F028F81B
:104A2000002002B080BD000085B0049003918DF895
:104A30000B20ADF80830BDF8080003308008019065
:104A400004989DF80B1000EB8100C06F0090FFE709
:104A50000198411E019140B1FFE703980068009959
:104A60000860039804300390F2E7002005B0704717
:104A700080B582B0019001980221FDF7A3FF02B03A
:104A800080BD000080B582B001908DF803100198C0
:104A90009DF80310FFF796FA02B080BD80B584B090
:104AA00002900191029890F8CE0003280FD1FFE701
:104AB00001980079012809D8FFE70298D0F8B413CB
:104AC000CA68019990478DF80F0004E0FFE70120C4
:104AD0008DF80F00FFE79DF80F0004B080BD0000C7
:104AE00080B582B001900198FFF758FA0320FFF7D4
:104AF000D3FB02B080BD000080B582B00190019868
:104B000000F50E700090019800998A684B690021A9
:104B100000F01AF9009948698988884205D9FFE7A9
:104B20000199032081F8AC0304E00199042081F885
:104B3000AC03FFE7002002B080BD000080B582B06A
:104B400001900198D0300090019800998A684B69D3
:104B5000002100F01DF9009948698988884205D92B
:104B6000FFE70199012081F8AC0304E001990220DC
:104B700081F8AC03FFE7002002B080BD80B582B0B1
:104B800001900199062081F8AC030198002300935D
:104B900019461A4600F0D8F80198FFF7CFF90098A7
:104BA00002B080BD80B582B001900199052081F8E6
:104BB000AC0301980023009319461A4600F0E8F868
:104BC0000198FFF7BBF9009802B080BD80B582B0B4
:104BD00001900198FFF7ECF90320FFF75DFB02B0AD
:104BE00080BD000080B586B00590049105980499B9
:104BF00001EB410100EBC100D03001900199C86880
:104C00000969401A0390039801998988884204D958
:104C1000FFE7019880880390FFE70398033080083E
:104C20000290FFE70598049900EB8100C069806954
:104C300081B2029A00209142009009D3FFE70198C7
:104C4000C26801690020914238BF01200090FFE74F
:104C50000098C007C0B3FFE70199C8680969401A06
:104C60000390039801998988884204D9FFE7019845
:104C700080880390FFE7039803308008029005982E
:104C80001030019989689DF81020BDF80C30FFF7AD
:104C9000CBFE039A0199886810448860039A0199B1
:104CA0000869104408610198C168006988420AD106
:104CB000FFE70499012000FA01F205984169486B69
:104CC00090434863FFE7ADE7012006B080BD0000D8
:104CD00080B582B0019000910198802100F0D4F855
:104CE0000198002100F0D0F80198FFF727F902B0F1
:104CF00080BD000080B584B003908DF80B109DF846
:104D00000B100020B0EBD11F0CD0FFE703989DF8EB
:104D10000B1001F07F0101EB410100EBC100D0302D
:104D200001900AE003989DF80B1001EB410100EBA4
:104D3000C10000F50E700190FFE703980199FFF79D
:104D4000BFFC002004B080BD80B586B005908DF812
:104D500013100392029305989DF8131001F07F0140
:104D600001EB410100EBC10000F50E7001900398CA
:104D70000199886002980199C8600199002000900B
:104D8000086105980199FFF78BFD009806B080BD7A
:104D900080B586B005908DF81310039202930598A4
:104DA0009DF8131001F07F0101EB410100EBC10000
:104DB000D030019003980199886002980199C860E9
:104DC000019900200090086105980199FFF7B4FC53
:104DD000009806B080BD000080B584B003900291B9
:104DE000029880788DF80300029880886FF3DF20A6
:104DF000ADF800009DF803100020B0EBD11F11D0DA
:104E0000FFE703989DF8031001F07F0101EB4101DA
:104E100000EBC100D03001900199087840F080008B
:104E200008700FE003989DF8031001EB410100EBBF
:104E3000C10000F50E7001900199087800F07F0024
:104E40000870FFE79DF803200199087802F00F022F
:104E500000F0F00010440870BDF80000019988804F
:104E60000298C07800F0030146F6D410C0F60000A6
:104E700050F821000199487003980199FFF774FBDD
:104E8000002004B080BD000080B584B003908DF890
:104E90000B10002001909DF80B10B0EBD11F0CD02F
:104EA000FFE703989DF80B1001F07F0101EB410132
:104EB00000EBC100D03001900AE003989DF80B1080
:104EC00001EB410100EBC10000F50E700190FFE71E
:104ED00001990120887003980199FFF755FD002082
:104EE00004B080BD80B584B003908DF80B10002015
:104EF00001909DF80B10B0EBD11F0CD0FFE7039889
:104F00009DF80B1001F07F0101EB410100EBC100A6
:104F1000D03001900AE003989DF80B1001EB41019D
:104F200000EBC10000F50E700190FFE70199002031
:104F30000090887003980199FFF788FB009804B0EF
:104F400080BD000080B586B005908DF813109DF8E7
:104F50001300002846D1FFE70598D030039005984C
:104F600090F8AC0301460291012804D0FFE70298B3
:104F7000022809D034E003998A884869801A486178
:104F80000598FFF7DBFD2CE0059890F8AD0360B1C4
:104F9000FFE705980023019319461A46FFF7F8FE2C
:104FA0000198059981F8AD0319E0059890F8CE00B5
:104FB00003280DD1FFE70598D0F8B403406930B15C
:104FC000FFE70598D0F8B41349698847FFE7FFE782
:104FD0000399002048610598FFF7D0FDFFE700E046
:104FE000FFE714E0059890F8CE0003280ED1FFE704
:104FF0000598D0F8B403C06940B1FFE70598D0F830
:10500000B413CA699DF813109047FFE7FFE700202B
:1050100006B080BD80B584B00390029101920298E1
:105020000399C1F8B00301980399C1F8B403039838
:10503000D0F8B003C068C068FEF76CF80399D1F8E7
:10504000B0034068C079C0F3801081F8A0030398D2
:1050500000F11001FEF75AFE03981030FFF7C4F874
:10506000039B03F1100C186859689A68DB68EE46D8
:10507000CEF800C0FEF7FAFE0398FFF7A7FD0398ED
:1050800010300021FEF764FF0398FEF7AFFF03988E
:105090001030FFF7B3F80398FFF722FD03990120C2
:1050A00081F8CE0004B080BD82B0019001984069C3
:1050B0008068C0F341008DF8030001984169486899
:1050C00020F48070486001984169486840F480701D
:1050D000486001980169C86820F47050C8609DF864
:1050E000031046F67A10C0F60000405C03280AD18F
:1050F000FFE701990320087001980169C86840F42E
:105100001050C86009E001990220087001980169F7
:10511000C86840F4A050C860FFE7019801694FF4E7
:1051200000504861012002B07047000080B584B093
:105130000390002002908DF807000398FFF768F8AD
:105140000290FFE70298D8B3FFE79DF80800C00778
:1051500060B3FFE703989DF80710FFF76BF8009026
:105160000098C00770B1FFE703989DF8071000EBA7
:105170008100C1690120886003989DF80710FFF73E
:10518000E1FEFFE70098000600280ED5FFE7039830
:105190009DF80710FFF726FD03989DF8071000EB18
:1051A0008100C16980208860FFE7FFE7FFE7029880
:1051B000400802909DF8070001308DF80700C1E714
:1051C000012004B080BD000080B584B003900020B1
:1051D00002908DF807000398FFF768F80290FFE748
:1051E0000298C8B3FFE79DF80800C00750B3FFE777
:1051F00003989DF80710FFF76BF800900098C00720
:1052000070B1FFE703989DF8071000EB8100416B38
:105210000120886003989DF8071000F041FAFFE72D
:105220000098000700280CD5FFE7039800F090FADB
:1052300003989DF8071000EB8100416B08208860FF
:10524000FFE7FFE7FFE70298400802909DF807009C
:1052500001308DF80700C3E7012004B080BD0000D5
:1052600010B592B0119011984169486820F0010082
:1052700048601198103000210391FFF7B9FB0398A3
:105280001090FFE7109811998978884212D2FFE7B1
:105290001198109900EB8100C169FF208860119975
:1052A000109A01EB8201496B8860FFE7109801308A
:1052B0001090E7E7119841694FF0FF30886111982D
:1052C00041694FF00110C861119841690920486196
:1052D000119841690120029008611198416908689C
:1052E00020F4FE6008601198FEF728FE119801690D
:1052F0004FF4805048611199002000900F900E905B
:105300000D900C900B900A908DF829004020019090
:10531000ADF82C000A980B9A0C9BDDF834C0DDF830
:1053200038E00F9CC1F84C42C1F848E2C1F844C2D1
:10533000C1F84032C1F83C22C1F83802119800F59A
:105340000E71FFF711F9009A0198119909920892CC
:1053500007920692059204929DF8103043F0800364
:105360008DF810308DF81120ADF814000498059ACE
:10537000069BDDF81CC0DDF820E0099CC1F8E44084
:10538000C1F8E0E0C1F8DCC0C1F8D830C1F8D420E1
:10539000C1F8D000119800F1D001FFF7E5F80298AC
:1053A000119981F8CE0012B010BD000080B588B010
:1053B0000790002006908DF817000490039007983E
:1053C0000169886920F01000886107980069006A07
:1053D0000390039800F00F008DF80B0007989DF8DC
:1053E0000B1001EB410100EBC10000F50E700690BF
:1053F0000398C0F30A1004900398C0F3C1308DF8ED
:105400001700039800F4F0114FF0FF3000EB51400B
:105410000146019105283CD80199DFE801F0030419
:105420001B1C3A1D36E0049898B1FFE7079810302E
:1054300006998968BDF81020FEF7E4FF049A0699E2
:10544000886810448860049A0699086910440861C5
:10545000FFE71FE01EE01DE0069800780007B8B9DE
:10546000FFE70498082813D1FFE79DF8170078B9E3
:10547000FFE7079901F1100001F56971BDF81020EF
:10548000FEF7C0FF049A0699086910440861FFE717
:1054900000E0FFE707980169886940F01000886123
:1054A000012008B080BD000080B582B00190019855
:1054B00080798DF8030001984069806800F0010050
:1054C0008DF80200019890F8CE000338B0FA80F011
:1054D00040098DF80100019890F8CE00019981F8FB
:1054E000CF000199042081F8CE009DF80300A0B1FF
:1054F000FFE79DF8020080B1FFE79DF8010060B171
:10550000FFE70198D0F8C810086840F00300086071
:1055100001200021FDF7C0FBFFE7019801694FF46E
:1055200000604861012002B080BD000080B582B0FB
:10553000019001980069406900F00100012800F025
:10554000AC80FFE70198006940690090019800690C
:105550008169009808400090009808B9FFE79CE036
:105560009DF802000007002804D5FFE70198FFF727
:105570002BFEFFE79DF802004007002804D5FFE757
:105580000198FFF7D3FDFFE79DF801000007002811
:1055900004D5FFE70198FFF787FFFFE79DF80300B9
:1055A0000006002813D5FFE7019890F8CE000428E4
:1055B00007D1FFE7019890F8CF00019981F8CE005C
:1055C000FFE7019801694FF000404861FFE79DF84F
:1055D00000000007002811D5FFE70198D0F8B403B8
:1055E000406A30B1FFE70198D0F8B413496A8847A0
:1055F000FFE70198016908204861FFE79DF8000076
:10560000C006002804D5FFE70198FFF7CFFEFFE7AB
:105610009DF80100C006002804D5FFE70198FFF7B8
:105620001FFEFFE79DF801008006002804D5FFE774
:105630000198FFF739FDFFE79DF80200C00600283A
:1056400012D5FFE70198D0F8B403806A30B1FFE7C4
:105650000198D0F8B413896A8847FFE70198016977
:105660004FF480104861FFE79DF802008006002893
:1056700012D5FFE70198D0F8B403C06A30B1FFE754
:105680000198D0F8B413C96A8847FFE70198016907
:105690004FF400104861FFE7FFE702B080BD000053
:1056A00080B584B003908DF80B109DF80B00A8BB5B
:1056B000FFE7039800F50E700190039890F8AC0393
:1056C00001460091032804D0FFE70098042809D080
:1056D00022E001998A884869801A48610398FFF797
:1056E0000BFA1AE0039890F8CE0003280DD1FFE7DB
:1056F0000398D0F8B403806930B1FFE70398D0F87D
:10570000B41389698847FFE7FFE7019900204861E2
:105710000398FFF747FA00E0FFE715E00398D0F899
:10572000B403006A70B1FFE7039890F8CE00032835
:1057300008D1FFE70398D0F8B4130A6A9DF80B105C
:10574000904700E0FFE7FFE7002004B080BD0000C5
:1057500080B586B0059001208DF813000599D1F829
:10576000A403D1F8A813039102909DF8080000F05B
:1057700060000146019140B1FFE7019820280BD05D
:10578000FFE7019840280ED014E0059802A900F028
:1057900037F88DF813000EE0059802A9FFF77EF99F
:1057A0008DF8130007E0059802A900F039F88DF88C
:1057B000130000E0FFE79DF81300C0B9FFE7BDF854
:1057C0000E0020B9FFE70598FFF7ECF90EE09DF811
:1057D00008000006002804D5FFE70598FFF7AEF99A
:1057E00003E00598FFF788F9FFE7FFE704E0059875
:1057F00002A9FFF76DFAFFE7002006B080BD0000A8
:1058000080B582B00190009100994A7840F2100072
:10581000C2F2000050F822200198904702B080BDEB
:1058200082B001900091002002B070470FB4054B88
:1058300010B503A9044A029800F0ECF810BC5DF81A
:1058400014FB00005D2700080000002037B5144657
:105850000846064B6A46214600F0DCF804466946D5
:10586000002000F06EFC20463EBD000043610008B1
:1058700002E008C8121F08C1002AFAD17047704719
:10588000002001E001C1121F002AFBD17047000077
:105890002DE9FF5F82B00021DDE90430020DDDF863
:1058A00040B0034318D044F61050A2F2FF324243F6
:1058B0001514119801281FD0A5EB0B00401C5FEABE
:1058C000000A4FF000064E4FDFF83891B0465046C0
:1058D00015D5CAF1000413E0119801244AA3012848
:1058E00001D16FEA0B010298119AC0E90031C0E9B9
:1058F000024206B0BDE8F09FCBF10000DFE70446AE
:105900000021404A491842EB0450CDE9001012E052
:10591000E00707D032463B4640464946FAF7FFFCCF
:105920008046894632463B4610461946FAF7F7FC50
:1059300006460F466410002CEAD1DDE90401DDE9DA
:105940000023BAF1000F06DAFAF7E9FC42464B46AB
:10595000FAF7E5FC05E0FAF754FD42464B46FAF744
:1059600050FD04460E460022284BFAF7A7FE03D846
:105970004FF0FF30014607E00022254B204631461C
:10598000FAF726FCFAF781FE102409E0002C0ADB66
:105990000A220023FAF7BAFD039B30321A55641E1F
:1059A00050EA0102F2D1641C039AC4F111031444B9
:1059B000119A012A03D0012208430DD10AE00843BD
:1059C00004D000204FF0110B119072E7A3EB0B05F0
:1059D0006D1E0DE05B4504DD4FF0000205F1010591
:1059E00004E003DA4FF00002A5F10105002AECD033
:1059F00002981199C0E90231C0E9004579E7000039
:105A0000000014400000F03F300000000000F043B0
:105A10000000E03F2DE9FF4F95B09B4689460646C2
:105A200000250FE2252877D100242746F84A0121D6
:105A3000059400E0044316F8013F203B01FA03F00F
:105A40001042F7D130782A2811D06FF02F03307828
:105A5000A0F13002092A16D8059A44F0020402EB9C
:105A6000820203EB42021044761C0590EFE759F8DE
:105A7000042B0592002A03DA504244F400540590A6
:105A800044F00204761C30782E2816D116F8010F47
:105A900044F004042A280DD06FF02F023078A0F1D2
:105AA0003003092B09D807EB870302EB4303C71820
:105AB000761CF3E759F8047B761C30786C280FD0FD
:105AC00006DC4C2817D068280DD06A2814D104E0D1
:105AD000742810D07A280FD10DE044F400140AE0A5
