:020000040800F2
:100000008814002065010008BD0F0008750D000868
:10001000B90F0008D9080008311E000800000000D0
:100020000000000000000000000000006D1B000840
:10003000E90C000800000000691B0008C51B00084F
:100040007F0100087F0100087F0100087F01000890
:100050007F0100087F0100087F0100087F01000880
:100060007F0100087F0100087F010008FD090008EA
:100070007F0100087F0100087F0100087F01000860
:100080007F0100087F0100087F01000800000000D8
:100090000000000000000000000000007F010008D8
:1000A0007F0100087F0100087F0100087F01000830
:1000B0007F010008951D00087F0100087F010008EE
:1000C0007F0100087F0100087F0100087F01000810
:1000D0007F0100087F0100087F0100087F01000800
:1000E000ED0C00087F010008ED1D00087F010008ED
:1000F0007F0100087F0100087F0100080000000068
:100100007F010008000000007F0100087F01000857
:100110007F0100087F0100089D1D00087F01000885
:100120007F0100087F0100087F0100087F010008AF
:100130007F01000800000000000000000000000037
:10014000000000000000000000000000DD1D0008AD
:10015000DFF80CD000F08AFB004800479548000803
:10016000881400200648804706480047FEE7FEE75F
:10017000FEE7FEE7FEE7FEE7FEE7FEE7FEE7FEE757
:10018000DD1B00085101000840EA01039B0703D072
:1001900009E008C9121F08C0042AFAD203E011F8C6
:1001A000013B00F8013B521EF9D27047D2B201E088
:1001B00000F8012B491EFBD270470022F6E710B56C
:1001C00013460A4604461946FFF7F0FF204610BDC5
:1001D000421C10F8011B0029FBD1801A704703460E
:1001E00011F8012B00F8012B002AF9D118467047AD
:1001F0002DE9FE4F804681EA0300C00F0C460090B7
:1002000021F0004123F00045B8EB0200A94105D2DE
:100210004046214690461C460B46024623F00040CD
:10022000104347D0270DC7F30A00C3F30A510290C9
:10023000401A019040286BDAC3F3130040F4801B8E
:100240000098924620B10023D2EB030A63EB0B0B1C
:1002500001985946C0F14002504600F0ECF90646BC
:100260000D4650465946019A00F004FA10EB08007A
:100270006141002487EA115284EAE7731A4340D0AF
:10028000009A62B3019A012A4FEA075215DC001B5B
:1002900061EB02014FF0004202EA0752CDE9004251
:1002A000001C41F5801132462B4600F004FA03B0E1
:1002B000BDE8F08F40462146F9E7001B61EB0201E3
:1002C000001C41F5801300185B412018A2F50017AF
:1002D00047EB030140EAD570B6196D4111E06D0896
:1002E0004FEA360645EAC0754FEA0752001B61EB3C
:1002F0000201001C41F5801149084FEA3000001945
:10030000514132462B4603B0BDE8F04F00F0C4B96E
:100310000098012240000023D0EB020263EBE0735F
:10032000009821464FEAE074B8EB000061EB04014D
:10033000E9E783F000435BE781F0004158E72DE9EE
:10034000FE4F81EA030404F0004421F000410094D0
:100350004FF0000B23F0004350EA01045ED052EA54
:1003600003045BD0C3F30A54C1F30A552C44A4F22E
:10037000F3340194A0FB0254C1F3130141F4801142
:10038000C3F3130343F4801301FB024400FB034E49
:10039000840A970A44EA815447EA8357A4FB076812
:1003A00002958D0A05FB07854FEA932C04FB0C543C
:1003B0002705029D4FEA065847EA1637B5EB0805B0
:1003C0006EEB070C870E920E47EA811742EA831202
:1003D000A7FB0201B6EB0B0164EB00042B0D43EA13
:1003E0000C335E1844EB1C50DA465146E7FB020121
:1003F000C5F313044FEA0B3343EA14534FEA0432B4
:10040000019C43EA0603A4F10C040294009CCDE98C
:1004100000B400F050F903B0BDE8F08F00200146B1
:10042000F9E72DE9F04D81EA030404F0004B21F0D7
:10043000004514464FF0000A23F0004150EA05023F
:1004400020D054EA01021DD0C5F30A570246C5F375
:100450001303C1F31300C1F30A5640F4801543F4AB
:100460008013A7EB0608101BD64608F2FD3873EB85
:10047000050002D308F1010801E092185B41B8F1D0
:10048000000F03DA00200146BDE8F08D00204FF494
:100490008011064684460EE0171B73EB050705D353
:1004A000121B63EB050306434CEA010C49084FEAB3
:1004B000300092185B4150EA0107EDD152EA030087
:1004C00012D082EA040083EA0501084305D0101B1C
:1004D000AB4106D20122002306E000224FF0004388
:1004E00002E06FF0010253101AEB06004CEB0851CA
:1004F00010EB0A0041EB0B01BDE8F04D00F0CCB869
:1005000030B5041E71F1000404DB4FF0004440429A
:1005100064EB0101141E73F1000405DB1C464FF06F
:100520000043524263EB0403101A8B4101D20120B5
:1005300030BD002030BD0EB540F2334102910021A4
:10054000CDE900110A460B4600F0B5F803B000BD36
:10055000C1F30A5210B5C1F3130140F2FF3341F465
:1005600080119A4201DA002010BD40F233439A42D2
:10057000A2F2334203DC524200F06CF810BD90400E
:1005800010BD00F0004230F000400AD0C10D01F56E
:100590006071C0F3160042EA0151C20840071143DE
:1005A000704700200146704730B50B4601460020D9
:1005B0002022012409E021FA02F59D4205D303FA25
:1005C00002F5491B04FA02F52844151EA2F10102A6
:1005D000F1DC30BD2DE9F05F0546002092469B46D8
:1005E00088460646814640241BE028464146474649
:1005F000224600F02FF853465A46C01A914110D3B4
:1006000011461846224600F016F82D1A67EB01082D
:100610004F4622460120002100F00DF817EB00099B
:100620004E41201EA4F10104DFDC484631462A4633
:100630004346BDE8F09F202A04DB203A00FA02F18D
:10064000002070479140C2F1200320FA03F31943C0
:1006500090407047202A04DB203A21FA02F0002162
:10066000704721FA02F3D040C2F1200291400843C2
:1006700019467047202A06DBCB17203A41FA02F0D0
:1006800043EAE07306E041FA02F3D040C2F12002EF
:10069000914008431946704710B5141E73F10004C9
:1006A00008DA401C41F1000192185B411A4301D164
:1006B00020F0010010BD2DE9F04D92469B4611B18E
:1006C000B1FA81F202E0B0FA80F220329046FFF7F0
:1006D000B2FF04460F4640EA0A0041EA0B015346C6
:1006E0005A46084313D0114653EA010019D0C8F105
:1006F00040025046FFF7AEFF05460E4650465946AB
:100700004246FFF798FF084305D0012004E0204649
:100710003946BDE8F08D0020054346EAE0762C43DB
:1007200037430A986305E40AA0EB08000022FD0A9B
:1007300044EA47540A3002D500200146E9E70105A2
:1007400010196941DDE9084500196941BDE8F04D1E
:10075000A2E700002DE9F041054621F000400C46DB
:10076000284309D0C4F30A5040F23341884205DDE2
:1007700028462146BDE8F0812846FBE740F2FE31DD
:10078000884210DC0CDB4FEA043040EA155050EA96
:10079000053105D0104804F0004101430020E9E78D
:1007A00000200146E6E7A0F233404642C6F140028F
:1007B00028462146FFF73FFF074688462846214640
:1007C0003246FFF747FF43463A46FFF765FF32469A
:1007D000BDE8F041FFF72FBF0000F03FC1F30A5220
:1007E000C1F3130140F2FF3341F480119A4202DA5F
:1007F00000200146704740F233439A42A2F233424E
:1008000002DC5242FFF726BFFFF715BF30B5041ECA
:1008100071F1000404DB4FF00044404264EB01013D
:10082000141E73F1000405DB1C464FF000435242D6
:1008300063EB04038B4208BF824230BD30B5041E17
:1008400071F1000404DB4FF00044404264EB01010D
:10085000141E73F1000405DB1C464FF000435242A6
:1008600063EB0403994208BF904230BD1CB50948B0
:100870000090094801900546009C06E0E06840F0C1
:10088000010394E8070098471034AC42F6D3FFF711
:1008900063FC000020A5000840A5000830B58C18B6
:1008A00010F8012B12F00F0301D110F8013B1209CF
:1008B00006D110F8012B03E010F8015B01F8015B91
:1008C0005B1EF9D101E001F8013B521EFBD1A142B0
:1008D000E6D3002030BD0000FFE7FEE740F28001D4
:1008E000C2F200010020C4F2401088604FF07C503A
:1008F000C8600022C4F2C0120A6148610A208876EA
:100900004FF4006008834EF6BA00C4F2BE20C861FE
:1009100091ED071AB7EE000A80EE011A81ED091A6F
:1009200091F91A0001EE100AB8EEC12A9FED311AB2
:1009300081EE021A9FED302A21EE021A81ED0A1A89
:1009400091ED0A1A80EE010A81ED080A91ED020A82
:1009500091ED071A91ED113A91ED122A20EE030A5A
:1009600030EE020A20EE010ABDEEC00A10EE100AB7
:10097000088091ED030A91ED082A91ED0B3A91ED73
:100980000C1A20EE030A30EE010A088B01EE100A61
:10099000B8EEC11A20EE020A30EE010ABDEEC00A1E
:1009A00010EE100A488091ED040A91ED071A91EDBE
:1009B0000F3A91ED102A20EE030A30EE020A20EEE3
:1009C000010ABDEEC00A10EE100A8880088B00EE06
:1009D000100AB8EEC00A91ED051A91ED082A21EE31
:1009E000021A30EE410ABDEEC00A10EE100AC880AD
:1009F000704700BF9AD9CC3700007A4480B58EB0DA
:100A00000020C4F202000021022202F06DFD002845
:100A100000F06781FFE740F60000C4F201004FF4E8
:100A2000806102F0DFFF40F27061C2F200010A88CB
:100A300040F2D400C2F200000A90C2848A88028484
:100A40004A888284CA8842840989C183418C00EE25
:100A5000101AB8EE400A40F28001C2F2000191ED96
:100A6000091A20EE010A80ED010AC28B00EE102A5D
:100A7000B8EE400A91ED091A20EE010A80ED000A55
:100A8000808C098B884212DDFFE740F2D400C2F26D
:100A90000000808C40F28001C2F20001098B401AF4
:100AA00000EE100AB8EEC00A8DED090A11E040F21E
:100AB0008000C2F20000008B40F2D401C2F20001BB
:100AC000898C401A00EE100AB8EEC00A8DED090AB2
:100AD000FFE79DED090A8DED0D0A9DED0D0A40F22F
:100AE0008001C2F2000191ED0A1A20EE010A40F2E3
:100AF000D400C2F2000080ED030A008C098B88420A
:100B000012DDFFE740F2D400C2F20000008C40F298
:100B10008001C2F20001098B401A00EE100AB8EE03
:100B2000C00A8DED080A11E040F28000C2F2000018
:100B3000008B40F2D401C2F20001098C401A00EE91
:100B4000100AB8EEC00A8DED080AFFE79DED080A0D
:100B50008DED0C0A9DED0C0A40F28001C2F20001FD
:100B600091ED0A1A20EE010A40F2D400C2F2000010
:100B700080ED020AC08C098B401A01280DDBFFE7CB
:100B800040F2D400C2F20000C08C40F28001C2F2F8
:100B90000001098B401A07900CE040F28000C2F27D
:100BA0000000008B40F2D401C2F20001C98C401A4F
:100BB0000790FFE7079800EE100AB8EEC00A8DED27
:100BC0000B0A9DED0B0A40F28000C2F2000090ED8E
:100BD0000A1A20EE010A40F2D400C2F2000080EDB1
:100BE000040A40F6A420C2F20000C07878BBFFE7F8
:100BF00040F6A420C2F200000490417840F2D400F4
:100C0000C2F20000059090ED010A40F62C40C2F2BD
:100C10000000069007F0BCFD0499059A06984978F3
:100C200092ED000A07F046FE0499059A0698497865
:100C300092ED030A07F062FF0499059A0698497835
:100C400092ED010AD2ED030A07F0D2FF2EE040F642
:100C5000A420C2F200000190417840F2D400C2F218
:100C60000000029090ED000A40F62C40C2F2000015
:100C7000039007F08DFD0199029A0398497892ED4F
:100C8000010A07F017FE0199029A0398497892ED3C
:100C9000020A07F033FF0199029A0398497892ED0E
:100CA000000AD2ED020A07F0A3FFFFE740F6A420F6
:100CB000C2F200008078C00718B1FFE700F05CF8CE
:100CC000FFE740F60000C4F201004FF4806102F03B
:100CD00081FE0020C4F202000021012202F0F2FB9A
:100CE000FFE70EB080BD00007047000080B54FF4F4
:100CF000004002F0F7FDD8B3FFE740F25020C2F207
:100D00000000017801310170007801282BD1FFE744
:100D100040F25021C2F200010020087040F600406D
:100D2000C4F201004FF4804103F034F868B1FFE7EA
:100D300040F2D000C2F20000028840F2CC01C2F2C0
:100D400000010868104408600CE040F2D000C2F2D4
:100D50000000028840F2CC01C2F200010868801A4B
:100D60000860FFE7FFE74FF4004002F0B1FDFFE746
:100D700080BD0000FFE7FEE780B58CB000200B903F
:100D80000A9040F6A420C2F20000C07800287ED16C
:100D9000FFE740F6A420C2F20000007900283FD10E
:100DA000FFE740F28000C2F2000090ED020A40F23C
:100DB000D400C2F200000690D0ED010A40F67C306B
:100DC000C2F200009FED7B1A8DED071A07F0B6FF07
:100DD00006989DED071A8DED0A0A9DED0A0AD0EDE1
:100DE000040A40F6B830C2F2000007F0A7FF8DED0C
:100DF0000B0A9DED0B0ABDEEC00A10EE101A40F270
:100E00001C10C2F2000009908180818800220892A3
:100E100002F00CFC08990998808802F0EDFB35E09F
:100E200040F6A420C2F20000007901282DD1FFE78E
:100E300040F28000C2F2000090ED030A40F2D400BC
:100E4000C2F20000D0ED030A40F60430C2F2000006
:100E50009FED581A07F072FF8DED0B0A9DED0B0AFE
:100E6000BDEEC00A10EE101A40F21C10C2F20000D3
:100E70000590818081880022049202F0D7FB0499BA
:100E80000598808802F0B8FBFFE7FFE78FE040F6A7
:100E9000A420C2F20000C078012840F08780FFE75C
:100EA00040F6A420C2F200000079002843D1FFE7F9
:100EB00040F28000C2F2000090ED040A40F2D4003B
:100EC000C2F200000190D0ED000A40F64030C2F2BC
:100ED00000009FED381A8DED021A07F02FFF0198E0
:100EE0009DED021A8DED0A0A9DED0A0AD0ED040A65
:100EF00040F6B830C2F2000007F020FF8DED0B0A7B
:100F00009DED0B0ABDEEC00A10EE101A40F21C1047
:100F1000C2F200000390012202F088FB0146039810
:100F2000C180C28840F6C411891AC180C0880021DE
:100F300002F062FB39E040F6A420C2F20000007922
:100F4000012831D1FFE740F28000C2F2000090EDAD
:100F5000050A40F2D400C2F20000D0ED020A40F6C9
:100F6000C820C2F200009FED131A07F0E7FE8DEDD6
:100F70000B0A9DED0B0ABDEEC00A10EE101A40F2EE
:100F80001C10C2F200000090012202F04FFB01464B
:100F90000098C180C28840F6C411891AC180C088F7
:100FA000002102F029FBFFE7FFE7FFE7FFE70CB0B6
:100FB00080BD00BF17B7D137FFE7FEE7FFE7FEE7C9
:100FC00081B08DF803009DF9031001F01F0201208C
:100FD00090404A094EF20011CEF2000141F8220081
:100FE00001B0704788B0079006910592079800F00D
:100FF000070004900498C0F10700052803D3FFE719
:101000000420019004E00498C0F107000190FFE77C
:101010000198039004980430062803D8FFE70020C5
:10102000009003E0049803380090FFE700980290D6
:1010300006980399012202FA01F101390840029B46
:10104000984005999A40013A1140084308B070470A
:101050004EF60C50CEF200000068C0F3022070473C
:1010600082B08DF8070000919DF90700B0F1FF3FB5
:101070000CDCFFE7009800019DF8071001F00F015C
:101080004EF61452CEF20002885409E00098000196
:101090009DF907104EF20042CEF200028854FFE79D
:1010A00002B0704782B08DF8070000919DF90700EB
:1010B000B0F1FF3F0CDCFFE7009800019DF807103E
:1010C00001F00F014EF61452CEF20002885409E0EE
:1010D000009800019DF907104EF20042CEF2000286
:1010E0008854FFE702B0704781B000208DF80200FD
:1010F000FFE79DF80200072823DCFFE700208DF8BA
:101100000300FFE79DF803007F2813DCFFE79DF84D
:10111000021040F25C20C2F2000000EBC1119DF809
:10112000032000208854FFE79DF8030001308DF86C
:101130000300E7E7FFE79DF8020001308DF80200A9
:10114000D7E701B07047000083B0ADF80A00ADF8F2
:1011500008108DF807208DF80630BDF80800ADF8AE
:101160000200FFE7BDF90200BDF908109DF8062056
:10117000114488424ADAFFE7BDF80A00ADF80400DE
:10118000FFE7BDF90400BDF90A109DF807201144DE
:10119000884234DAFFE7BDF90400002828D4FFE7CD
:1011A000BDF904007F2823DCFFE7BDF90200002819
:1011B0001ED4FFE7BDF902003F2819DCFFE7BDF9A7
:1011C000020000EB507121F00702821A012000FAA0
:1011D00002F36FF0700000EA011140F25C20C2F2ED
:1011E00000000144BDF90420885C98438854FFE75F
:1011F000FFE7BDF804000130ADF80400C1E7FFE7E8
:10120000BDF802000130ADF80200ABE703B0704753
:1012100080B582B000F0EEFB642001F0B3FF002047
:10122000019000F063FB1420009001F0ABFF01205F
:1012300000F05CFB009801F0A5FF019800F08EF82B
:1012400002B080BD83B00290019101200090FFE7C1
:101250000198411E019128B1FFE702990098484387
:101260000090F5E7009803B07047000080B5C6B065
:10127000ADF81601ADF814118DF81321439348A869
:1012800002904399029A03A8019007F049FE019A3F
:10129000BDF91601BDF914119DF8133100F0A0FA43
:1012A00046B080BD80B582B08DF807008DF806107D
:1012B0009DF8070040F0B00000F032FB9DF80600FA
:1012C0000009103000F02CFB9DF8060000F00F0024
:1012D00000F026FB02B080BD80B584B0ADF80E00F2
:1012E000ADF80C108DF80B208DF80A309DF80A002F
:1012F000082815D1FFE7BDF90E00BDF90C109DF8C7
:101300000B3049F64232C0F6000202EB0312A2F59E
:1013100000726B461A600822102300F031F91BE0BE
:101320009DF80A00062816D1FFE7BDF90E00BDF9A9
:101330000C109DF80B2002EB420349F60812C0F690
:10134000000202EB4302C03A6B461A6006220823F1
:1013500000F016F9FFE7FFE704B080BD80B584B068
:101360008DF80F004AF2A100CCF2C8000290AE2026
:1013700000F0D6FAD52000F0D3FA802000F0D0FAA1
:10138000A82000F0CDFA3F2000F0CAFAD32000F0E8
:10139000C7FA002000F0C4FA402000F0C1FA9DF81E
:1013A0000F1002A80190405C00F0BAFA01999DF874
:1013B0000F000844807800F0B3FADA2000F0B0FAA9
:1013C000122000F0ADFA812000F0AAFACF2000F040
:1013D000A7FAD92000F0A4FAF12000F0A1FADB204E
:1013E00000F09EFA302000F09BFAA42000F098FA5A
:1013F000A62000F095FA8D2000F092FA142000F05B
:101400008FFAAF2000F08CFAFFF76EFE00F014FAAE
:1014100004B080BD0000000080B58EB084461098F6
:10142000ADF836C0ADF834108DED0A0B8DF82720DD
:101430008DF826308DF825000A980B999FED4E0BFC
:1014400053EC102BFFF75CF850B9FFE7BDF93600FD
:10145000BDF934109DF825302B22FFF73DFF17E032
:10146000BDF93600BDF934109DF825302D22FFF767
:1014700033FF9DED0A0B8DED040B9DF8170080F0F6
:1014800080008DF817009DED040B8DED0A0BFFE732
:101490009DED0A0B51EC100BFFF75AF807900798D7
:1014A000FFF749F841EC100B9DED0A1B51EC110BB5
:1014B00053EC102BFEF73DFF41EC100B8DED0A0BAA
:1014C0009DF826100A20FFF7BDFE08909DED0A0B3F
:1014D0008DED020B0898FFF72EF89DED021B41ECF5
:1014E000100B51EC110B53EC102BFEF728FF41ECC5
:1014F000100B07F029FD51EC100BFFF729F80690AF
:1015000006980899B0FBF1F1079808440790BDF8D8
:1015100036009DF825C06044BDF93410079A9DF847
:101520002730EE46CEF800C000B200F00BF9BDF84F
:1015300036109DF8270001309DF8253010FB031070
:10154000BDF9341000B22E22FFF7C6FEBDF83610EA
:101550009DF8270002309DF825C010FB0C10BDF946
:101560003410069A9DF82630EE46CEF800C000B240
:1015700000F0E8F80EB080BD0000000000000000A0
:1015800080B584B0DDF818C0ADF80E00ADF80C10D1
:101590008DF80B208DF80A30002000908DF809009E
:1015A0008DF80800BDF90E00BDF90C109DF80B2058
:1015B0009DF80A30FFF7C8FD00988DF80800FFE796
:1015C0009DF808009DF80A10013901EB51720121C4
:1015D00001EBE201884280F2B280FFE700208DF843
:1015E0000900FFE79DF809009DF80B10884280F282
:1015F0009F80FFE7BDF90E009DF809100844002800
:1016000000F18F80FFE7BDF90E009DF80910084436
:101610007F2800F38680FFE7BDF90C0000EB5070D7
:10162000C008ADF80600BDF90C0000EB507121F0C8
:101630000701401AADF80400BDF90C00B0F1FF3FFE
:101640000BDCFFE7BDF806000138ADF80600BDF879
:1016500004000830ADF80400FFE7BDF906009DF86E
:1016600008100844002826D4FFE7BDF906009DF8BD
:101670000810084407281EDCFFE706989DF80810AC
:101680009DF80B309DF8092011FB0323C05CBDF9C8
:10169000043000FA03F3BDF90600014440F25C2077
:1016A000C2F2000000EBC111BDF90E000244885CDB
:1016B00018438854FFE7BDF906009DF80810084458
:1016C000013000282CD4FFE7BDF906009DF8081072
:1016D00008440130072823DCFFE706989DF808102E
:1016E0009DF80B209DF8093011FB0232805CBDF99A
:1016F0000420C2F1080220FA02F2BDF906000144FA
:1017000040F25C20C2F2000000EBC110BDF90E10E7
:101710001944014491F88000104381F88000FFE7EC
:10172000FFE7FFE79DF8090001308DF8090059E750
:10173000FFE79DF8080001308DF8080040E704B08D
:1017400080BD000080B586B084460898ADF816C00C
:10175000ADF8141004928DF80F308DF80E000020B3
:101760008DF80D00FFE79DF80D009DF80F108842E1
:1017700034DAFFE7BDF816209DF80D009DF80E1035
:1017800010FB01210291BDF91410019104990091FF
:101790009DF80F10C04301440A20FFF753FD009A43
:1017A000019903460298B2FBF3F24CF6CD43CCF616
:1017B000CC43A2FB03C3DB0803EB8303A2EB43028E
:1017C00042F030029DF80E3000B2FFF785FDFFE7D2
:1017D0009DF80D0001308DF80D00C4E706B080BD06
:1017E00080B584B0ADF80E00ADF80C1002928DF803
:1017F000073000208DF80600FFE702989DF80610DC
:10180000405CB8B1FFE7BDF80E009DF806C09DF83A
:1018100007301CFB0300BDF90C10029A12F80C20D3
:1018200000B2FFF759FDFFE79DF8060001308DF883
:101830000600E2E704B080BD80B582B000208DF8DC
:101840000700FFE79DF80700072817DCFFE79DF872
:1018500007000021FFF726FD9DF8071040F25C20ED
:10186000C2F2000000EBC110802100F081F8FFE718
:101870009DF8070001308DF80700E3E702B080BD56
:1018800080B582B08DF807009DF8070048B1FFE7EA
:1018900040F60000C4F201004FF4004102F0A2F84B
:1018A00008E040F60000C4F201004FF4004102F0ED
:1018B00091F8FFE702B080BD80B582B08DF80700D7
:1018C0009DF8070040B1FFE740F60040C4F2010078
:1018D000402102F087F807E040F60040C4F2010022
:1018E000402102F077F8FFE702B080BD80B582B0FA
:1018F0008DF807009DF8070040B1FFE740F6004073
:10190000C4F20100102102F06DF807E040F600403B
:10191000C4F20100102102F05DF8FFE702B080BDC3
:1019200080B582B08DF807000020FFF7C5FFFFE704
:1019300043F60040C4F20000022103F00FFD08B995
:10194000FFE7F5E79DF8071043F60040C4F20000FA
:1019500003F0C0FCFFE743F60040C4F20000802122
:1019600003F0FCFC012801D1FFE7F4E702B080BDE1
:1019700080B582B001908DF803109DF8030008B97E
:10198000FFE735E00120FFF797FF00208DF8020008
:10199000FFE79DF802009DF80310884228DAFFE770
:1019A000FFE743F60040C4F20000022103F0D6FC3A
:1019B00008B9FFE7F5E701989DF80210415C43F68E
:1019C0000040C4F2000003F085FCFFE743F600404E
:1019D000C4F20000802103F0C1FC012801D1FFE71F
:1019E000F4E7FFE79DF8020001308DF80200D0E730
:1019F00002B080BD80B58EB040F2036003F0EEFA15
:101A000040F20F7003F0EAFA40F2026003F0E6FAE7
:101A10004FF4C06003F0E2FA40F20020C0F2300060
:101A20000121069102F0CEF940F60000C4F2010057
:101A300018210391032202924FF4004302F0E8F8C8
:101A4000029A039940F60040C4F201000190282355
:101A500002F0DEF80198029A1021502302F0D8F823
:101A600043F60040C4F20000059003F03DFC0598E9
:101A700003F0C6FC07A8049003F0CCFC039B049978
:101A80000598002208924FF4827CCDF81CC0099280
:101A90004FF0020CCDF830C00A920D930B9203F078
:101AA00075FC059803F00CFC0698FFF7E9FE069814
:101AB000FFF71CFF0698FFF7FFFE0EB080BD000089
:101AC00080B58AB009908DED080ACDED070A8DED3D
:101AD000061ACDED051A8DED042ACDED032A8DED04
:101AE000023ACDED013A08980999086007980999DA
:101AF0004860069809998860059809998861049852
:101B00000999486103980999086102980999C86080
:101B100001980999C861099807F0FAF80999012014
:101B200081F839000AB080BD80B540F60430C2F2B9
:101B3000000007F0EDF840F67C30C2F2000007F03C
:101B4000E7F840F6C820C2F2000007F0E1F840F6DE
:101B50004030C2F2000007F0DBF840F6B830C2F2C5
:101B6000000007F0D5F880BD704700007047000006
:101B700080B582B0009000980138B0F1807F03D327
:101B8000FFE70120019019E0009801384EF214019E
:101B9000CEF2000108604FF0FF300F21FFF760FA2E
:101BA0004EF21801CEF20001002008604EF2100241
:101BB000CEF20002072111600190FFE7019802B008
:101BC00080BD000080B540F68441C2F20001086883
:101BD0000130086001F0EAFA80BD000080B584B0F1
:101BE0004EF68851CEF20001086840F4700008609B
:101BF00041F20001C4F20201086840F001000860EF
:101C0000FFE741F20000C4F20200006880070028EC
:101C100001D4FFE7F5E741F20400C4F202000068D6
:101C200000F00C00082840F08080FFE7FFE700206C
:101C30000390FFE703984F2805D8FFE7FFE70398D5
:101C400001300390F6E741F20401C4F20201086892
:101C50000290029820F0F0000290029840F080007C
:101C600002900298086000200390FFE703984F2835
:101C700005D8FFE7FFE7039801300390F6E741F24C
:101C80000401C4F2020108680290029820F0F000FA
:101C90000290029840F090000290029808600020A4
:101CA0000390FFE703984F2805D8FFE7FFE7039865
:101CB00001300390F6E741F20401C4F20201086822
:101CC0000290029820F0F0000290029840F0A000EC
:101CD00002900298086000200390FFE703984F28C5
:101CE00005D8FFE7FFE7039801300390F6E741F2DC
:101CF0000401C4F2020108680290029820F0F0008A
:101D00000290029840F0B000029002980860002013
:101D10000390FFE703984F2805D8FFE7FFE70398F4
:101D200001300390F6E7FFE7FFE741F20401C4F258
:101D300002010091086820F003000860C82000F04C
:101D400079F8009A41F20001C4F2020108684FF6E6
:101D5000FF73CEF6F6231840086041F20803C4F280
:101D600002034FF47F00186000200190106041F2E0
:101D70002C02C4F202021060086820F4802008607F
:101D800003F00AFC01994FF0006002F0B5FE04B0C8
:101D900080BD000080B504F0CDFE80BD80B540F26E
:101DA0006060C2F2000001780131017000780A28F9
:101DB00009D1FFE740F26061C2F200010020087023
:101DC00001F0A8FDFFE703F057F941F20000C4F26B
:101DD0000000012104F012FA80BD000080B540F23D
:101DE0007C60C2F2000005F0B1FE80BD80B540F21B
:101DF0007C60C2F200008079A0B1FFE7FFF7EEFE41
:101E000040F68040C2F20000006803F023F940F27F
:101E10000C5003F0E3F840F27C60C2F2000004F0E2
:101E20001DFBFFE74FF4802001F052FD80BD000054
:101E3000FFE7FEE782B0019000200090FFE70098E6
:101E4000019901EB8101B0EB410F05D2FFE7FFE7FC
:101E5000009801300090F2E702B0704783B0029022
:101E60008DF8071000920298D0F8B003806880784F
:101E7000009908800298D0F8B003806803B07047DA
:101E800083B002908DF8071000920298D0F8B0034A
:101E900041688878C97840EA012000990880029852
:101EA000D0F8B003406803B07047000083B00290E0
:101EB0008DF8071000920298D0F8B00300680078FF
:101EC000009908800298D0F8B003006803B070470A
:101ED00080B586B00490039100208DF80B00039824
:101EE000007800F003000146019140B1FFE701983E
:101EF00001281ED0FFE7019802281BD042E0049879
:101F000090F8CE00022806D0FFE7049890F8CE00A3
:101F100003280DD1FFE703984088012807D1FFE788
:101F20000499002081F8A2038DF817002FE0FFE745
:101F300029E028E0039880888DF80B00049890F839
:101F4000CE0003281DD1FFE703984088A8B9FFE71A
:101F50009DF80B0088B1FFE79DF80B0080280CD09E
:101F6000FFE704989DF80B1005F0CCFA0498D0F820
:101F7000B413CA6803999047FFE700208DF8170053
:101F800005E000E0FFE701208DF81700FFE79DF86E
:101F9000170006B080BD000085B0049003910120B9
:101FA0008DF80B000498D0300190049890F8CE0082
:101FB00001460091022804D0FFE7009803280AD0C8
:101FC00013E0049890F8CC0020B9FFE700208DF8CA
:101FD0000B00FFE70AE0049890F8CC0020B1FFE77F
:101FE00000208DF80B00FFE700E0FFE79DF80B00F5
:101FF00040B9FFE70498CC3001998860019901202D
:102000004861FFE79DF80B0005B0704780B586B0CA
:102010000590049100208DF80F008DF80E0001202E
:102020008DF80D000598D03002900498007800F0EB
:1020300003000146019150B1FFE70198012800F02B
:102040007580FFE70198022800F0798078E0049815
:10205000C0788DF80F00049840888DF80E009DF828
:102060000F000138014600910E285DD80099DFE885
:1020700001F008243750505050505B5B5B5B5B5B5A
:1020800051009DF80F1040F23C20C2F2000000EB1E
:10209000810050F8043C05989DF80E10029A143205
:1020A0009847029988600498C088402804D1FFE7C7
:1020B000029908204861FFE737E09DF80F1040F2D1
:1020C0003C20C2F2000000EB810050F8043C05986F
:1020D0009DF80E10029A143298470299886024E005
:1020E0009DF80E00092813DCFFE79DF80F1040F261
:1020F0003C20C2F2000000EB810050F8043C05983F
:102100009DF80E10029A1432984702998860FFE7F2
:102110000BE00AE005989DF80E10029A1432FFF7C2
:102120009DFE0299886000E0FFE70AE00598D0F87C
:10213000B413CA68049990478DF80D0001E000E0DF
:10214000FFE70298406948B3FFE70498C08828B3C6
:10215000FFE7029840690499C988884215D2FFE7D1
:1021600002994869898888420ED3FFE7029842693C
:102170008188B2FBF1F000FB112028B9FFE7059937
:10218000012081F8AD03FFE704E00498C0880299BC
:102190004861FFE700208DF80D00FFE79DF80D0076
:1021A00006B080BD85B003900291039890F8CE00F0
:1021B00001460091012808D0FFE70098022805D0C9
:1021C000FFE70098032802D017E017E016E0029816
:1021D0000079012810D8FFE70398D03001900398C8
:1021E000D0F8B40301300199886001990120486159
:1021F00000208DF8130005E000E0FFE701208DF8D6
:102200001300FFE79DF8130005B0704785B00490F8
:102210000391039880888DF80B0001208DF80A0047
:102220000498D03001900398007800F00300014634
:10223000009140B1FFE70098012836D0FFE70098F1
:10224000022842D072E0049890F8CE00022806D00E
:10225000FFE7049890F8CE00032825D1FFE7049803
:1022600090F8A00338B1FFE740F26C61C2F20001C0
:102270000120087006E040F26C61C2F2000100200B
:102280000870FFE7049890F8A20348B1FFE740F216
:102290006C61C2F20001087840F002000870FFE7AC
:1022A00000208DF80A00FFE741E0049890F8CE0086
:1022B000032809D1FFE79DF80B00012804D8FFE7A8
:1022C00000208DF80A00FFE731E0049890F8CE0076
:1022D00003282AD1FFE79DF80B000006002811D53E
:1022E000FFE704989DF80B1001F07F0101EB41011D
:1022F00000EBC10090F8D20040F26C61C2F2000124
:1023000008700EE004989DF80B1001EB410100EB02
:10231000C10090F83A0240F26C61C2F2000108700C
:10232000FFE700208DF80A00FFE700E0FFE79DF8D7
:102330000A0050B9FFE7019940F26C60C2F2000058
:102340008860019902204861FFE79DF80A0005B006
:102350007047000082B001900091012002B07047E8
:1023600080B584B0029001910198808850BBFFE74E
:102370000198C08830BBFFE70198807800F07F00AB
:10238000029981F8CD00029890F8CE00032818D069
:10239000FFE7029890F8CD1004F084FE029890F8C0
:1023A000CD0028B1FFE70299022081F8CE0004E0B9
:1023B0000299012081F8CE00FFE700208DF80F0080
:1023C00004E0FFE701208DF80F00FFE79DF80F0004
:1023D00004B080BD80B588B00790069101208DF8CB
:1023E00017000698817840F26E60C2F2000001701A
:1023F0000078012877D8FFE7079890F8CE000146CB
:10240000049101286CD0FFE70498022804D0FFE76C
:102410000498032820D064E040F26E60C2F200000D
:102420000078A8B1FFE70798D0F8B4134A6840F2E3
:102430006E61C2F200010391097890470398007819
:10244000079981F8CC000799032081F8CE00FFE7B7
:1024500000208DF8170045E040F26E60C2F20000E7
:102460000078A8B9FFE70798D0F8B4138A6840F25B
:102470006E61C2F2000102910978904702980078DB
:10248000079981F8CC000799022081F8CE0023E05B
:1024900040F26E60C2F200000078079991F8CC100B
:1024A000884217D0FFE70798D0F8B4138A6840F243
:1024B0006E61C2F200010191097890470199087894
:1024C000079A82F8CC000798D0F8B42352680978AC
:1024D000904700E0FFE7FFE700208DF8170001E0DC
:1024E00000E0FFE7FFE79DF8170008B080BD00009F
:1024F00082B001900091002002B0704780B586B094
:102500000490039100208DF80B000398007800F0F0
:1025100003000146019140B1FFE7019801281FD057
:10252000FFE7019802281CD03DE0049890F8CE0007
:10253000022806D0FFE7049890F8CE0003280ED1B9
:10254000FFE703984088012805D1FFE7049901209F
:1025500081F8A203FFE700208DF8170028E023E0B0
:1025600022E0039880888DF80B00049890F8CE0044
:10257000032817D1FFE70398408878B9FFE79DF853
:102580000B0058B1FFE79DF80B00802806D0FFE74D
:1025900004989DF80B1004F087FFFFE700208DF8EA
:1025A000170005E000E0FFE701208DF81700FFE7C6
:1025B0009DF8170006B080BD80B584B002900191EF
:1025C000029890F8CE0001460091012808D0FFE75C
:1025D0000098022805D0FFE70098032802D018E0F1
:1025E00018E017E001980079012811D8FFE7029858
:1025F000D0F8B403006938B1FFE70298D0F8B413FB
:102600000A6901999047FFE700208DF80F0005E067
:1026100000E0FFE701208DF80F00FFE79DF80F00B5
:1026200004B080BD82B001900091002002B07047DC
:1026300084B003908DF80B1001920398D0F8B0038A
:10264000C0689DF80B1050F82100009000980078A9
:1026500001990880009804B07047000080B586B0EA
:1026600042F20040C4F20100059000F0B7F80020EB
:10267000019000F035FA05984FF480710122049220
:1026800000F0F8FA0199059800F094F8049905987B
:10269000052200F057F80199049B05980222029246
:1026A00000F02EFA019A049B0598194600F028FACA
:1026B0000299049B0598062200F022FA049B0598D3
:1026C000032103911A4600F01BFA039A049B059814
:1026D000042100F015FA049905984FF4003200F037
:1026E000D5F9049A0598114600F094F9059800F080
:1026F00081F9049800F046FD059800F005F805986A
:1027000000F06EF906B080BD81B000900099886835
:1027100040F008008860FFE7009880680007002804
:1027200001D5FFE7F8E70099886840F00400886069
:10273000FFE7009880684007002801D5FFE7F8E729
:1027400001B0704784B003908DF80B1001929DF892
:102750000B0001460091012804D0FFE700980228F1
:1027600012D023E00399C86A20F47000C86201996E
:102770000020CFF6F07000EB01503FFA80F2039991
:10278000C86A1043C86212E00399886B20F44010B5
:10279000886301990020CFF6F07000EB015000F43F
:1027A00040120399886B1043886300E0FFE704B090
:1027B0007047000082B001900091009830B1FFE7AF
:1027C0000199886840F40060886005E00199886894
:1027D00020F400608860FFE702B0704780B584B0E5
:1027E00003900398029042F20041C4F20101884232
:1027F00008D0FFE7029842F60001C4F201018842C6
:1028000009D011E040F20930019002F00FFC01986C
:1028100002F0F8FB09E040F20A30009002F006FCFA
:10282000009802F0EFFB00E0FFE704B080BD00007D
:1028300083B00020ADF80A0040F2D400C2F20000DC
:10284000B0F9160040F28001C2F20001098B401A73
:1028500001280EDBFFE740F2D400C2F20000B0F91D
:10286000160040F28001C2F20001098B401A01906B
:102870000DE040F28000C2F20000008B40F2D40173
:10288000C2F20001B1F91610401A0190FFE7019859
:10289000ADF80A00BDF90A0000EE100AB8EEC00A51
:1028A00040F28001C2F2000191ED0A1A20EE010A05
:1028B00040F2D400C2F2000080ED020AB0F91A0022
:1028C000098B401A01280EDBFFE740F2D400C2F268
:1028D0000000B0F91A0040F28001C2F20001098B39
:1028E000401A00900DE040F28000C2F20000008B20
:1028F00040F2D401C2F20001B1F91A10401A00905E
:10290000FFE70098ADF80A00BDF90A0000EE100AD2
:10291000B8EEC00A40F28000C2F2000090ED0A1A40
:1029200020EE010A40F2D400C2F2000090ED102A1D
:1029300090ED111A20EE020A30EE010A80ED030A32
:1029400090ED030A9FED241AB4EE410AF1EE10FA5D
:1029500007DAFFE740F2D401C2F200010020C860AC
:10296000FFE740F2D400C2F20000B0F9141000EE0C
:10297000101AB8EEC00A40F28001C2F2000191EDD7
:10298000091A20EE010A80ED000AB0F9182000EEC5
:10299000102AB8EEC00A91ED091A20EE010A90ED56
:1029A0000C2A90ED0D1A20EE020A30EE010A80ED9D
:1029B000010A90ED010A9FED091AB4EE410AF1EE09
:1029C00010FA07DAFFE740F2D401C2F2000100205A
:1029D0004860FFE703B070476F1283BA17B7D1B8EA
:1029E00081B000900099886840F48070886001B0E0
:1029F0007047000081B0009000988068C00730B92F
:102A0000FFE70099886840F001008860FFE701B0A7
:102A10007047000082B001908DF803108DF80220FD
:102A20009DF80200C0B1FFE79DF80300C00730B178
:102A3000FFE70199886840F480108860FFE79DF8FF
:102A400003008007002806D5FFE70199886840F455
:102A500000408860FFE717E09DF80300C00730B131
:102A6000FFE70199886820F480108860FFE79DF8EF
:102A700003008007002806D5FFE70199886820F445
:102A800000408860FFE7FFE702B0704784B0039022
:102A90008DF80B1001929DF80B0001460091012862
:102AA00004D0FFE7009802280BD015E0039988684E
:102AB00020F460208860019A039988681043886038
:102AC0000BE00399886820F4E0408860019A03993C
:102AD00088681043886000E0FFE704B0704700009A
:102AE00081B0009042F20441C4F20101086820F470
:102AF00070200860009A08681043086001B07047B1
:102B000085B004908DF80F108DF80E2002939DF87B
:102B10000F0005281CDCFFE70498406B01909DF82E
:102B20000F0000EB80011F2000FA01F1019888439B
:102B300001909DF80E009DF80F1001EB810100FA45
:102B400001F10198084301900198049948634AE013
:102B50009DF80F000B281FDCFFE70498006B019025
:102B60009DF80F0000EB8000A0F11E011F2000FA6D
:102B700001F10198884301909DF80E009DF80F1017
:102B800001EB81011E3900FA01F10198084301901F
:102B900001980499086325E09DF80F000F281FDCB9
:102BA000FFE70498C06A01909DF80F0000EB8000D9
:102BB000A0F13C011F2000FA01F101988843019027
:102BC0009DF80E009DF80F1001EB81013C3900FAD1
:102BD00001F101980843019001980499C86200E04E
:102BE000FFE7FFE7FFE79DF80E0009281BDCFFE782
:102BF0000498006900909DF80E0000EB400107204A
:102C000000FA01F100988843009002989DF80E1098
:102C100001EB410100FA01F100980843009000988F
:102C20000499086124E09DF80E0011281EDCFFE7DE
:102C30000498C06800909DF80E0000EB4000A0F1E1
:102C40001E01072000FA01F10098884300900298C5
:102C50009DF80E1001EB41011E3900FA01F10098B8
:102C60000843009000980499C86000E0FFE7FFE780
:102C700005B0704783B0029001918DF803209DF854
:102C8000030020B3FFE79DF80500C00730B1FFE760
:102C90000299486840F480704860FFE79DF805009D
:102CA0004007002806D5FFE70299486840F4806095
:102CB0004860FFE79DF804008007002806D5FFE77D
:102CC0000299886840F002008860FFE723E09DF8E1
:102CD0000500C00730B1FFE70299486820F4807012
:102CE0004860FFE79DF805004007002806D5FFE78C
:102CF0000299486820F480604860FFE79DF804006E
:102D00008007002806D5FFE70299886820F00200B6
:102D10008860FFE7FFE703B07047000083B00190D1
:102D20000198D0F8B803A8B1FFE70198D0F8B8032C
:102D30000090009890F8490001280AD1FFE7009818
:102D400090F84800012804D1FFE700208DF80B001F
:102D500004E0FFE701208DF80B00FFE79DF80B0072
:102D600003B0704782B001900198D0F8B80300908A
:102D70000198D0F8B4034078FF2818D0FFE70099F5
:102D8000086C0865009991F8440081F85400009996
:102D900091F8450081F85500009991F8460081F8B6
:102DA00056000198D0F8B413FF204870FFE70020C8
:102DB00002B0704780B584B003900398D0F8B80390
:102DC00002900298C06C78B1FFE702990020019050
:102DD00081F848000398029AD36C812104F0E8FA44
:102DE00001980299C864FFE704B080BD80B582B045
:102DF00001908DF803100198812104F08BFA01985D
:102E0000032104F087FA0198822104F083FA00205C
:102E100002B080BD80B584B003908DF80B1003988C
:102E20009DF80B1001F07F0101EB410100EBC100A7
:102E3000D03001900398D0F8B80300900198C26890
:102E40008188B2FBF1F000FB112060B9FFE7019827
:102E5000C06840B1FFE703989DF80B1000231A46A5
:102E600004F0A6FA04E00099012081F84800FFE789
:102E7000002004B080BD000080B584B003908DF8C0
:102E80000B1003984AF23611C0F6000100913C3154
:102E900004F0B2FA00990398353104F0ADFA0099C4
:102EA0000398253104F0A8FA40F64C21C2F2000143
:102EB000012081F8490081F848000020C8644FF4DF
:102EC000E13201928DF808008DF8090008228DF892
:102ED0000A20019ADDF80730C1F853300A65039AD9
:102EE000C2F8B81304B080BD83B002908DF807100B
:102EF0000298D0F8B80300900099012081F84900A9
:102F000002989DF8071001EB410100EBC100D0F8D9
:102F100048020099C864002003B0704785B004904F
:102F200003910498D0F8B803029000200190039810
:102F3000407801460091232800F25C800099DFE888
:102F400001F012131415165959595959595959590B
:102F500059595959595959595959595959595959E1
:102F60005959172A575846E045E044E043E042E00B
:102F7000049800F50E700190039840780499D1F8F8
:102F8000B41348700398C088019948610298403092
:102F9000019988602FE00498D03001900299086D63
:102FA00081F840000299086D000A81F841000299F9
:102FB000B1F8520081F84200029991F8530081F86B
:102FC0004300029991F8540081F84400029991F865
:102FD000550081F84500029991F8560081F84600A5
:102FE000029840300199886001990720486102E009
:102FF00001E000E0FFE7002005B0704780B584B035
:103000000390029140F27C60C2F20000D0F8B80355
:1030100001900198F8B1FFE70298E0B1FFE702984C
:10302000402818D8FFE740F27C60C2F20000FFF7AA
:1030300075FE78B9FFE701980399029AFDF7A4F8A5
:1030400002980199C86440F27C60C2F20000FFF768
:10305000B1FEFFE7FFE704B080BD000083B002903F
:10306000019100200090FFE70098019988420ED25C
:10307000FFE70298009950F8210043F20001C4F2E2
:1030800002010860FFE7009801300090ECE743F28E
:103090000000C4F20200006803B0704743F2080168
:1030A000C4F20201086840F00100086070470000A7
:1030B00081B08DF803009DF80300C00768B1FFE7F9
:1030C00042F62041C4F20101086820F001000860C6
:1030D000086840F0010008600AE042F62041C4F2AE
:1030E0000101086820F00100086008680860FFE737
:1030F00001B0704781B08DF803009DF80300C00750
:1031000068B1FFE742F62041C4F20101086820F0EF
:1031100004000860086840F0040008600AE042F615
:103120002041C4F20101086820F00400086008682A
:103130000860FFE701B0704780B582B000200190C1
:10314000FFF7D8FF0198FFF7B3FF40F6A420C2F2C3
:103150000000C07828B9FFE76420002100F04CFA95
:103160000EE040F6A420C2F20000C078012806D18B
:10317000FFE740F65430002100F03EFAFFE7FFE79A
:1031800002B080BD81B00090009840F6AC21C2F240
:1031900000010860FFE740F6AC20C2F200000068C2
:1031A00008B1FFE7F7E701B07047000040F6AC2038
:1031B000C2F20000006840B1FFE740F6AC21C2F265
:1031C0000001086801380860FFE7704780B582B0E9
:1031D00001908DF8031001989DF8031000F0EEF9AE
:1031E00010B9FFE7FFE7FEE701989DF8031001EB38
:1031F000810100EB8101886840F00100886002B025
:1032000080BD000080B582B001908DF80310019858
:103210009DF8031000F0D2F910B9FFE7FFE7FEE7D1
:1032200001989DF8031001EB810100EB8101886892
:1032300040F02000886002B080BD000080B58AB0F8
:103240004FF4A06001F0CAFE0020C4F20200019019
:103250000021029100F030F80198029942F24C42AC
:10326000C4F2010203928DF8241040F27062C2F29F
:103270000002059201228DF825204FF480720492FD
:103280004FF4806206928DF82610052207924FF4C3
:103290000052089203AA00F055F801980299FFF72E
:1032A000B1FF01980299022200F0F0F8019802990A
:1032B000FFF78CFF0AB080BD80B582B001908DF819
:1032C000031001989DF8031000F078F910B9FFE79A
:1032D000FFE7FEE701989DF8031001EB810100EB89
:1032E0008101886820F00100886001989DF8031032
:1032F00001EB810100EB81010020886001999DF8BC
:10330000032002EB820201EB8201C86001999DF863
:10331000032002EB820201EB8201086101999DF812
:10332000032002EB820201EB820148619DF8030059
:1033300081000F2000FA01F20199486810434860AB
:1033400002B080BD80B584B003908DF80B1001925F
:1033500003989DF80B1000F031F910B9FFE7FFE773
:10336000FEE70198006803999DF80B2002EB8202AA
:1033700001EB820108610198806803999DF80B2098
:1033800002EB820201EB820148610198008A0399F5
:103390009DF80B2002EB820201EB8201C8600398CA
:1033A0009DF80B1001EB810100EB8100806800901B
:1033B000009820F47C50009001994868CA684969D7
:1033C00010430143009808430090009803999DF82A
:1033D0000B2002EB820201EB820188600198007EE3
:1033E00001280CD1FFE703989DF80B1001EB810138
:1033F00000EB8101886840F0400088600BE0039892
:103400009DF80B1001EB810100EB8101886820F031
:1034100040008860FFE70198407E01280CD1FFE75B
:1034200003989DF80B1001EB810100EB8101886886
:1034300040F0800088600BE003989DF80B1001EBD2
:10344000810100EB8101886820F080008860FFE73F
:103450000198807E60B9FFE703989DF80B1001EB9F
:10346000810100EB8101886820F0100088600BE08A
:1034700003989DF80B1001EB810100EB8101886836
:1034800040F010008860FFE704B080BD80B584B0D4
:1034900003908DF80B10019203989DF80B1000F02B
:1034A0008DF810B9FFE7FFE7FEE7019A03989DF852
:1034B0000B1001EB810100EB8101886810438860EB
:1034C00004B080BD83B002908DF807100092009880
:1034D0009DF80710890000FA01F20299486810432C
:1034E000486003B07047000087B006908DF8171051
:1034F00004920020039002908DF807000498009039
:10350000022808D0FFE70098042819D0FFE70098A8
:1035100008282AD03EE00698006804999DF81720F4
:10352000920091400840029006989DF8171001EB18
:10353000810100EB8100806800F0020003902BE025
:103540000698006804999DF8172092009140084061
:10355000029006989DF8171001EB810100EB8100A5
:10356000806800F00400039016E006980068049953
:103570009DF81720920091400840029006989DF80F
:10358000171001EB810100EB8100806800F008005A
:10359000039001E0FFE7FEE7029838B1FFE70398E8
:1035A00020B1FFE701208DF8070003E000208DF82F
:1035B0000700FFE79DF8070007B0704782B0019051
:1035C0008DF8031001208DF80200019840F20041AF
:1035D000C4F2020188420AD1FFE79DF803000528E2
:1035E00004DBFFE700208DF80200FFE7FFE79DF80E
:1035F000020002B07047000080B582B0ADF806004E
:103600008DF805109DF80510BDF8062042F6004023
:10361000C4F20100009002F0F9FA0098BDF806101B
:103620004A08012102F0F2FA02B080BD82B0019096
:10363000ADF802108DF801209DF80100B0B9FFE748
:10364000BDF8020001990988884205DDFFE701986D
:103650000088ADF80200FFE7BDF80200632804DC33
:10366000FFE76420ADF80200FFE71BE09DF80100D2
:10367000012816D1FFE7BDF8020001994988884268
:1036800005DDFFE701984088ADF80200FFE7BDF8CF
:103690000200632804DCFFE76420ADF80200FFE7C6
:1036A000FFE7FFE7BDF8020002B0704780B58CB0BD
:1036B00040F2036001F092FC4FF4E06001F08EFCF8
:1036C0004FF4C06001F08AFC40F60040C4F20100F3
:1036D0004821032200924FF4404300F099FA4FF042
:1036E0008040059002F00EFB08A8019002F00AFE4F
:1036F000009A0199059800230493ADF82030ADF8A5
:103700002230ADF824304FF0190CCDF828C0ADF8B8
:103710002C308DF82E2002F0FFFB06A8029002F05C
:10372000B9F8029A04990598ADF81810012303938B
:10373000ADF81A30ADF81C10ADF81E1002F074FC94
:10374000029A0399059802F06FFC0399049B05986F
:103750001A4602F0A3FD059802F0D4FB0CB080BD20
:1037600040F2CC00C2F200000068704780B582B021
:1037700040F2036001F032FC4FF4C06001F02EFC17
:1037800040F60040C4F20100482103224FF44043B8
:1037900000F03EFA01200F2100F0C8F94FF400407C
:1037A000009000220192114600F00AF8009800F003
:1037B0008FF8019A2820022101F04AF902B080BD59
:1037C00084B003908DF80B108DF80A20039A40F214
:1037D0000041C4F20101086890430860039A40F276
:1037E0000441C4F20101086890430860039A40F262
:1037F0000841C4F20101086890430860039A40F24E
:103800000C41C4F201010868904308609DF80B0068
:103810000146019120B1FFE70198012809D011E08C
:10382000039A40F20041C4F20101086810430860A5
:1038300009E0039A40F20441C4F201010868104310
:10384000086000E0FFE79DF80A000146009140B1E2
:10385000FFE70098012815D0FFE70098022822D042
:1038600032E0039A40F20841C4F2010108681043B3
:103870000860039A40F20C41C4F2010108689043C9
:10388000086022E0039A40F20841C4F2010108688E
:1038900090430860039A40F20C41C4F201010868A9
:1038A0001043086011E0039A40F20841C4F201019C
:1038B000086810430860039A40F20C41C4F2010109
:1038C00008681043086000E0FFE704B0704700009C
:1038D00081B00090009840F21441C4F201010860E8
:1038E00001B0704782B0019040F21440C4F2010070
:1038F00000680199084204D0FFE701208DF8030019
:1039000003E000208DF80300FFE79DF8030002B0FC
:103910007047000080B582B040F6A420C2F20000DB
:10392000807901460191042850D80199DFE801F01F
:10393000030C3D42450040F6A421C2F200010120E3
:10394000887104F083FA42E004F080FA40F6A42083
:10395000C2F200004078A8B9FFE701F073F9FFF761
:10396000EBFBFEF7E1F840F21C11C2F2000164200B
:103970000880488040F6A421C2F20001002088702F
:10398000C87111E040F6A420C2F20000407801287E
:1039900009D1FFE740F6A421C2F200010020C8715E
:1039A00002208871FFE7FFE711E004F04FFA04F00E
:1039B0008BFA0CE004F04AFA09E040F6A421C2F2C6
:1039C000000102204871FFF7B7FB00E0FFE702B0FB
:1039D00080BD000082B0019000910098019948617B
:1039E00002B0704782B0019000910098019908617F
:1039F00002B0704780B58EB040F2026001F0EEFA7E
:103A000040F2036001F0EAFA40F2046001F0E6FAE5
:103A100040F2096001F0E2FA0120029001F070F931
:103A200040F2065001F0DAFA40F60000C4F201005C
:103A30000B901021089103220D924FF480630093A4
:103A400000F0E6F808990D9A40F60040C4F2010033
:103A500005904FF4006300F0DBF8009B059808998F
:103A60000D9A00F0D5F8059808990D9A4FF4007357
:103A7000019300F0CDF801990598FFF7ABFF059889
:103A80000D9A48210391022300F0C2F8029B03998A
:103A900005980D9A00F0BCF803990B980D9A8023B5
:103AA000049300F0B5F8039905980D9A4FF48053EC
:103AB00000F0AEF80399049B05980D9A00F0A8F861
:103AC0000B980D9A18210C914FF4807300F0A0F818
:103AD00005980C990D9A4FF4005300F099F80B9843
:103AE00000210691042207924F2300F091F80699D5
:103AF000079A089B0B9800F08BF808990D9A41F2F1
:103B00000000C4F2010009904FF460430A9300F0F2
:103B10007FF809980A99FFF765FF0B980C990D9AA1
:103B20004FF4C05300F074F80EB080BD82B08DF831
:103B300007008DF80610002000909DF8060000F0A8
:103B4000030081000F20884000909DF806000328A4
:103B500014DCFFE7009A0821C4F2010108689043D1
:103B600008609DF807009DF8062002F0030292000D
:103B700000FA02F208681043086047E09DF806006A
:103B8000072814DCFFE7009A0C21C4F20101086841
:103B9000904308609DF807009DF8062002F003029C
:103BA000920000FA02F20868104308602DE09DF8C8
:103BB00006000B2814DCFFE7009A1021C4F2010173
:103BC0000868904308609DF807009DF8062002F001
:103BD0000302920000FA02F208681043086013E042
:103BE000009A1421C4F201010868904308609DF80E
:103BF00007009DF8062002F00302920000FA02F28C
:103C0000086810430860FFE7FFE7FFE702B070476E
:103C100087B00690059104920393002001900090D4
:103C2000059800F00F0001909DF81400C0060028D0
:103C300014D5FFE7049804280AD1FFE7019840F063
:103C400003000190039A0699C86B1043C86304E00F
:103C50000499019808430190FFE7FFE70020ADF8C1
:103C60000A00FFE7BDF80A00072842D8FFE7BDF8C1
:103C70000A100398C840C007A0B3FFE70698006881
:103C80000090BDF80A0081000F2000FA01F10098B1
:103C9000884300900198BDF80A10890000FA01F1EC
:103CA0000098084300900598282809D1FFE7BDF83F
:103CB0000A100120884003990840069948610DE0E8
:103CC0000598482809D1FFE7BDF80A10012088406F
:103CD0000399084006990861FFE7FFE700980699F5
:103CE0000860FFE7FFE7BDF80A000130ADF80A0001
:103CF000B8E70820ADF80A00FFE7BDF80A000F2872
:103D000046D8FFE7BDF80A100398C840C007C0B303
:103D1000FFE7069840680090BDF80A006FF01F01A9
:103D200001EB80020F2000FA02F20098904300900D
:103D30000198BDF80A2001EB820100FA01F1009818
:103D4000084300900598282809D1FFE7BDF80A101C
:103D50000120884003990840069948610DE00598C4
:103D6000482809D1FFE7BDF80A10012088400399CF
:103D7000084006990861FFE7FFE700980699486048
:103D8000FFE7FFE7BDF80A000130ADF80A00B4E72D
:103D900007B0704783B00290019100208DF80300B6
:103DA000029880680199084204D0FFE701208DF84D
:103DB000030003E000208DF80300FFE79DF80300F7
:103DC00003B0704786B005908DF813100020039063
:103DD0000290019000909DF817000006002806D57B
:103DE000FFE71C20C4F201000068019005E00420F8
:103DF000C4F2010000680190FFE70598C0F303409A
:103E00000090BDF814000390059800F44010B0F540
:103E1000401F0CD1FFE7019820F0E06001900421E1
:103E2000C4F20101086820F0E060086023E09DF81A
:103E30001600C00600280DD5FFE700990320884032
:103E400002900299019888430190019840F0E06047
:103E500001900FE00398059A6FF00F0101EA5241BB
:103E600000FA01F1019888430190019840F0E06068
:103E70000190FFE7FFE79DF8130060B1FFE70398AB
:103E8000059A6FF00F0101EA524100FA01F1019821
:103E900008430190FFE79DF817000006002806D5AB
:103EA000FFE701981C21C4F20101086005E00198B8
:103EB0000421C4F201010860FFE706B0704700006A
:103EC00080B582B001908DF80310019840F6B021C2
:103ED000C2F2000108609DF8030000F011F8FFE74E
:103EE00040F6B020C2F20000006808B1FFE7F7E733
:103EF00040F20040C4F2000001F0FAFF02B080BDC1
:103F000080B588B08DF81F0040F20040C4F2000078
:103F1000029001F0EDFF0298012102F05BF99DF89B
:103F20001F00022803D1FFE70B2005900AE09DF84F
:103F30001F00012804D1FFE742F6DF60059000E092
:103F4000FFE7FFE740F24820C2F200000088ADF82A
:103F50000C000020ADF80E00ADF81000ADF8180010
:103F60008DF81A0040F20040C4F20000019003A94D
:103F700001F0D2FF01980121009102F03FF9019870
:103F800001F00EFC0099019802F02EF9019801F061
:103F9000B9FF08B080BD000083B0029001918DF898
:103FA000032000208DF80200FFE79DF802009DF835
:103FB0000310884229DAFFE70298000F092809D880
:103FC000FFE70298000F303001999DF8022001F8B8
:103FD000120009E00299372000EB117001999DF859
:103FE000022001F81200FFE70298000102900198F8
:103FF0009DF8021000EB410100204870FFE79DF89A
:10400000020001308DF80200CFE703B070470000D6
:1040100080B540F68440C2F20000006840F6B82146
:10402000C2F200010968401A222801D8FFE746E3DE
:1040300040F68440C2F20000006840F6B821C2F2A7
:104040000001086000F03CFB40F6B420C2F2000022
:10405000007801283DD1FFE740F6A420C2F200001D
:10406000407980B9FFE740F6A421C2F200010120A7
:104070004871FDF739F84AF2DA30C0F600000E2137
:10408000FEF7BCFF24E040F6A420C2F20000407915
:10409000012809D1FFE740F6A421C2F20001002067
:1040A0004871FDF721F812E040F6A420C2F20000AA
:1040B000407902280AD1FFE740F6A421C2F20001AC
:1040C00000208871487188704870FFE7FFE7FFE7BC
:1040D000F5E240F6B420C2F20000007802284CD18C
:1040E000FFE740F6A420C2F200004079D0B9FFE714
:1040F00040F6C421C2F200010020087040F6A4215D
:10410000C2F20001487001208871C878013000F0C7
:104110000100C8704AF2E930C0F600000E21FEF737
:104120006DFF29E040F6A420C2F20000007988B9B2
:10413000FFE740F6C421C2F200010878013043F2E3
:104140003432C3F23332A0FB023202EB8202801A15
:10415000087010E040F6C421C2F200010878013076
:1041600045F25652C5F25552A0FB023202EB420212
:10417000801A0870FFE7FFE7A0E240F6B420C2F221
:1041800000000078032840F03681FFE740F6A420C5
:10419000C2F20000407998B9FFE740F6C421C2F2AC
:1041A00000010020087040F6A421C2F2000148700E
:1041B000012088710879B0FA80F04009087119E18E
:1041C00040F6A420C2F20000C078002840F08480AD
:1041D000FFE740F6A420C2F200000079C8BBFFE769
:1041E00040F6C420C2F2000001784AF2B020C0F6C6
:1041F000000000EB810090ED001A40F28000C2F256
:10420000000090ED020A30EE010A80ED020A90ED06
:10421000020A4AF21850C0F6000090ED011AB4EEFE
:10422000410AF1EE10FA0BDDFFE74AF21850C0F632
:104230000000406840F28001C2F200018860FFE7A0
:1042400040F28000C2F2000090ED020A00F004FB90
:1042500041E040F6A420C2F200000079012839D1E3
:10426000FFE740F6C420C2F2000001784AF2B02015
:10427000C0F6000000EB810090ED001A40F28000D3
:10428000C2F2000090ED030A30EE010A80ED030A4D
:1042900090ED030A4AF29410C0F6000090ED011A66
:1042A000B4EE410AF1EE10FA0BDDFFE74AF294108A
:1042B000C0F60000406840F28001C2F20001C86010
:1042C000FFE740F28000C2F2000090ED030A00F028
:1042D00087FAFFE7FFE78CE040F6A420C2F2000077
:1042E000C078012840F08480FFE740F6A420C2F2A5
:1042F00000000079C8BBFFE740F6C420C2F200000E
:1043000001784AF2B020C0F6000000EB810090ED89
:10431000001A40F28000C2F2000090ED040A30EE74
:10432000010A80ED040A90ED040A4AF21050C0F62A
:10433000000090ED011AB4EE410AF1EE10FA0BDD27
:10434000FFE74AF21050C0F60000406840F28001DA
:10435000C2F200010861FFE740F28000C2F20000F3
:1043600090ED040A00F05AFA41E040F6A420C2F2AF
:1043700000000079012839D1FFE740F6C420C2F2DD
:10438000000001784AF2B020C0F6000000EB810086
:1043900090ED001A40F28000C2F2000090ED050A94
:1043A00030EE010A80ED050A90ED050A4AF28C1004
:1043B000C0F6000090ED011AB4EE410AF1EE10FAD9
:1043C0000BDDFFE74AF28C10C0F60000406840F2B7
:1043D0008001C2F200014861FFE740F28000C2F2B2
:1043E000000090ED050A00F0DDF9FFE7FFE7FFE7C9
:1043F000FFE7FFE761E140F6B420C2F20000007879
:10440000042840F03A81FFE740F6A420C2F2000001
:104410004079012840F01B81FFE740F6A420C2F25A
:104420000000C078002840F08480FFE740F6A42018
:10443000C2F200000079C8BBFFE740F6C420C2F218
:10444000000001784AF2B020C0F6000000EB8100C5
:1044500090ED001A40F28000C2F2000090ED020AD6
:1044600030EE410A80ED020A90ED020A4AF218503D
:10447000C0F6000090ED001AB4EE410AF1EE10FA19
:104480000BDAFFE74AF21850C0F60000006840F26D
:104490008001C2F200018860FFE740F28000C2F2B2
:1044A000000090ED020A00F0D7F941E040F6A420A8
:1044B000C2F200000079012839D1FFE740F6C4209C
:1044C000C2F2000001784AF2B020C0F6000000EB12
:1044D000810090ED001A40F28000C2F2000090EDE1
:1044E000030A30EE410A80ED030A90ED030A4AF216
:1044F0009410C0F6000090ED001AB4EE410AF1EEFF
:1045000010FA0BDAFFE74AF29410C0F600000068D8
:1045100040F28001C2F20001C860FFE740F2800073
:10452000C2F2000090ED030A00F05AF9FFE7FFE73E
:104530008CE040F6A420C2F20000C078012840F0D0
:104540008480FFE740F6A420C2F200000079C8BBD7
:10455000FFE740F6C420C2F2000001784AF2B02022
:10456000C0F6000000EB810090ED001A40F28000E0
:10457000C2F2000090ED040A30EE410A80ED040A18
:1045800090ED040A4AF21050C0F6000090ED001AB7
:10459000B4EE410AF1EE10FA0BDAFFE74AF21050DE
:1045A000C0F60000006840F28001C2F2000108611C
:1045B000FFE740F28000C2F2000090ED040A00F034
:1045C0002DF941E040F6A420C2F200000079012854
:1045D00039D1FFE740F6C420C2F2000001784AF268
:1045E000B020C0F6000000EB810090ED001A40F210
:1045F0008000C2F2000090ED050A30EE410A80ED25
:10460000050A90ED050A4AF28C10C0F6000090ED04
:10461000001AB4EE410AF1EE10FA0BDAFFE74AF2A3
:104620008C10C0F60000006840F28001C2F2000168
:104630004861FFE740F28000C2F2000090ED050AF9
:1046400000F0B0F8FFE7FFE7FFE7FFE714E040F610
:10465000A420C2F20000407968B9FFE740F64C4060
:10466000C2F200000178B1FA81F1490901700078C5
:10467000FCF774FEFFE7FFE71EE040F6B420C2F24D
:1046800000000078052816D1FFE740F6A420C2F20A
:1046900000004178B1FA81F149094170407838B998
:1046A000FFE740F6A421C2F2000101208871FFE774
:1046B000FFF730F9FFE7FFE7FFE7FFE7FFE780BD20
:1046C00080B540F6BC21C2F200010020087040F61F
:1046D0000040C4F201000221FFF75CFB38B9FFE79C
:1046E00040F6BC21C2F200010120087010E040F643
:1046F0000040C4F201000121FFF74CFB38B9FFE78D
:1047000040F6BC21C2F2000102200870FFE7FFE77B
:1047100040F60000C4F201008021FFF73BFB38B9EE
:10472000FFE740F6BC21C2F200010320087022E03E
:1047300040F60040C4F201004FF48051FFF72AFB1D
:1047400038B9FFE740F6BC21C2F20001042008702E
:1047500010E040F60040C4F201008021FFF71AFB90
:1047600038B9FFE740F6BC21C2F20001052008700D
:10477000FFE7FFE7FFE740F6BC20C2F20000027847
:10478000037840F6B521C2F2000191F800C083EA37
:104790000C031A4040F6B423C2F200031A700078EA
:1047A000087080BD81B08DED000A009840F2800154
:1047B000C2F200014861088B00EE100AB8EEC00A90
:1047C00091ED051A91ED082A21EE021A30EE410A08
:1047D000BDEEC00A10EE100AC88001B0704700009C
:1047E00081B08DED000A009840F28001C2F2000114
:1047F000C86091ED030A91ED082A088B01EE100ABA
:10480000B8EEC11A20EE020A30EE010ABDEEC00A6F
:1048100010EE100A488001B07047000081B08DEDA5
:10482000000A009840F28001C2F20001086191ED97
:10483000040A91ED071A91ED0F3A91ED102A20EE3E
:10484000030A30EE020A20EE010ABDEEC00A10EEA5
:10485000100A888001B0704781B08DED000A009881
:1048600040F28001C2F20001886091ED020A91EDF0
:10487000071A91ED113A91ED122A20EE030A30EE5B
:10488000020A20EE010ABDEEC00A10EE100A0880EE
:1048900001B0704780B582B00020019000F080FE2A
:1048A00000F03EF900F09AF8FFE700F093FEFCE715
:1048B00080B58AB040F60430C2F20000B2EE040ABD
:1048C0008DED040ADFED3C0ACDED010A9FED3B1AA8
:1048D0008DED051ADFED3A1ACDED061ADFED392A16
:1048E000CDED072A9FED383A8DED083ADFED373AE6
:1048F000CDED023AB0EE432AFDF7E2F89DED051A40
:10490000DDED072A40F67C30C2F20000B1EE040A69
:10491000DFED2F0AB1EE083A8DED033ADFED2D3AC7
:10492000CDED093AF0EE621AB0EE432AFDF7C8F871
:10493000DDED010ADDED023A9DED040A9DED051A5B
:10494000DDED061ADDED072A9DED083A40F6C82098
:10495000C2F20000B0EE432AFDF7B2F89DED033A33
:104960009DED051ADDED072ADDED093A40F64030F0
:10497000C2F20000B7EE000AF3EE040AF0EE621A8B
:10498000B0EE432AFDF79CF89DED040A9DED051A53
:10499000DDED061ADDED072A9DED083ADDED093A59
:1049A00040F6B830C2F20000DFED0B0AB0EE432A49
:1049B000FDF786F80AB080BD0000C8436F12833A45
:1049C0000000C8420000000000C028453333733F98
:1049D0000000484248E17A3F0000484380B582B079
:1049E000FEF7C4FE00200190FEF762FB0198FEF77F
:1049F00081FBFEF7A1FBFFF75BFFFBF76FFF01F009
:104A00008DFF02F087F801F04BFF40F27C60C2F2AC
:104A1000000040F27001C2F2000140F24002C2F216
:104A2000000202F007FEFCF7F3FB02B080BD0000BD
:104A300080B582B00B2000220192114600F008F8E8
:104A4000019A3620022100F003F802B080BD000078
:104A500080B584B08DF80F008DF80E108DF80D2004
:104A60004EF60C50CEF20000006800F4E060014603
:104A70000091B0F5407F14D0FFE70098B0F5806F4B
:104A80000FD0FFE70098B0F5A06F0AD0FFE70098BD
:104A9000B0F5C06F05D0FFE70098B0F5E06F01D129
:104AA000FFE704E04FF4A06000F018F8FFE7FCF720
:104AB000CFFA029002989DF80E109DF80D20FCF799
:104AC00091FA01909DF90F000199FCF7EBFA9DF91D
:104AD0000F00FCF775FA04B080BD000081B00090B3
:104AE00000980021C0F2FA5108434EF60C51CEF264
:104AF0000001086001B0704782B0019000910198F8
:104B000000994FF68072C1F6FF72114008434EF6CD
:104B10000851CEF200010860BFF34F8F02B070471A
:104B200080B5FEF767FFFEF789FBFDF797FD00F004
:104B300057FD00F0EFFDFEF7B9FDFFF779FF80BDEF
:104B400082B001908DF8031047F20001C4F2000119
:104B5000086820F003000860019A086810430860A4
:104B60004EF61051CEF20001086840F004000860D3
:104B70004EF21001CEF20001086840F6F432C2F2A3
:104B8000000210604EF20010CEF20000006850608B
:104B90004EF20410CEF20000006890604EF2081051
:104BA000CEF200000068D06008680422C0F2010262
:104BB000104008604EF28011CEF200014FF63D0029
:104BC000CFF67F7008604EF28411CEF200016FF4D0
:104BD000E06008604EF28811CEF200014FF0FF3025
:104BE00008609DF8030010B9FFE730BF03E040BF45
:104BF00020BF20BFFFE740F6F430C2F2000001689A
:104C00004EF21002CEF20002116041684EF2001224
:104C1000CEF20002116081684EF20412CEF2000260
:104C20001160C0684EF20811CEF2000108604EF625
:104C30001051CEF20001086820F00400086002B0B4
:104C40007047000040F6A420C2F20000C078B0B95E
:104C5000FFE740F62C41C2F200010020C4F27010C0
:104C6000086043F23330C4F2A300C8600020C4F2ED
:104C7000D01048600020C4F29010886019E040F61F
:104C8000A420C2F20000C078012811D1FFE740F64D
:104C90002C41C2F200010020C4F2D01008604FF095
:104CA0008042CA6048600020C4F220108860FFE79C
:104CB000FFE740F62C41C2F200014FF0804008614E
:104CC0004FF0814048610020087648768876C876A3
:104CD0000877704780B582B0FCF706FA40F6A42149
:104CE000C2F200010091002001908870FEF724FAC2
:104CF0000099019804228A71487002B080BD0000BA
:104D000084B0039041F20400C4F2020000680290F3
:104D1000029843F6FF71CEF6FF710840029041F20F
:104D20002C00C4F2020000680190019820F00050AD
:104D300001900398009004280DD3FFE70098052800
:104D40000FD0FFE7009807280BD0FFE7009808383E
:104D5000042812D31FE00399029840EA81300290A0
:104D60001AE0039820F0040003900399029840EAA7
:104D7000813040F0805002900EE0039820F00C004B
:104D800003900399029840EA81300290019840F024
:104D90000050019000E0FFE7029841F20401C4F2E4
:104DA00002010860019841F22C01C4F2020108607E
:104DB00004B070479BB08DF86B000020189040F253
:104DC0000671C0F60811099140F20121C0F20341B9
:104DD000089107900690059104900391029041F28A
:104DE0000400C4F202000068C0F381001990199811
:104DF000019040B1FFE7019801280AD0FFE7019830
:104E000002280CD0A0E041F20020C0F27A001790F6
:104E1000A0E041F20020C0F27A0017909AE041F23F
:104E20000400C4F20200006800F48030139013986C
:104E3000B0F5803F53D1FFE741F22C00C4F20200ED
:104E4000006800F080401290129830B9FFE741F2FC
:104E50000020C0F27A000F9005E046F60040C0F254
:104E6000DC200F90FFE741F22C00C4F20200006842
:104E700000F4803011901198B0F5803F20D1FFE709
:104E800041F22C00C4F202000168CAB2012101EB18
:104E900012110B91006800F47061022000EB1120E8
:104EA0000A900A98112803D1FFE714200A90FFE71F
:104EB0000F980B99B0FBF1F00A9948430F90FFE768
:104EC00041F22C00C4F20200006800F00F00013033
:104ED0000C900C990F98B0FBF1F00F9005E040F6A4
:104EE0000010C0F23D000F90FFE741F20400C4F251
:104EF00002000168C1F3834110910068800000281E
:104F000005D5FFE7109840F010001090FFE71098CB
:104F10000E2804D8FFE710980230109003E0109894
:104F200001301090FFE70F981099484317901098A0
:104F30000F2808D1FFE70F9901EB4100400000EB7B
:104F400051001790FFE705E041F20020C0F27A001F
:104F50001790FFE741F20400C4F202000168C9B2F1
:104F600009090E910E9A06A9895C0D9117990D9A5F
:104F7000D14016910168C1F302210E910E9A04A945
:104F8000895C0D9116990D9AD14015910068C0F376
:104F9000C2200E900E9902A8405C0D9016980D99B3
:104FA000C84014909DF86B0001460091032810D86A
:104FB0000099DFE801F00205080B1798189009E046
:104FC0001698189006E01598189003E01498189019
:104FD00000E0FFE718981BB07047000081B0ADF803
:104FE0000200BDF8020000F01F02012101FA02F3E5
:104FF000810941F20002C4F2020288581843885025
:1050000001B0704781B0ADF80200BDF8020000F0B9
:105010001F02012101FA02F3810941F20002C4F2E8
:10502000020288589843885001B0704781B0ADF8AB
:105030000200BDF8020000F01F02012101FA02F394
:10504000810941F20002C4F20202885818438850D4
:1050500001B0704782B0019041F20401C4F2020134
:1050600008680090009820F4400000900098019A91
:105070001043086002B0704780B588B002208DF8F8
:105080001F009DF81F1040F22412C2F2000200928D
:10509000112050549DF81F0081188120487040F263
:1050A000D400C2F2000090ED000A9FED621A20EEDB
:1050B000010ABDEEC00A10EE101AADF81C10BDF8C2
:1050C0001C109DF81F30134499709DF81D109DF819
:1050D0001F301344D97090ED010A20EE010ABDEE95
:1050E000C00A10EE101AADF81C10BDF81C109DF887
:1050F0001F30134419719DF81D109DF81F30134483
:10510000597190ED020A20EE010ABDEEC00A10EEC0
:10511000101AADF81C10BDF81C109DF81F30134478
:1051200099719DF81D109DF81F301344D97190EDB1
:10513000030A20EE010ABDEEC00A10EE101AADF807
:105140001C10BDF81C109DF81F30134419729DF8F7
:105150001D109DF81F301344597290ED040A20EE83
:10516000010ABDEEC00A10EE100AADF81C00BDF831
:105170001C009DF81F10114488729DF81D009DF8B9
:105180001F101144C87240F21C10C2F20000808847
:10519000ADF81C00BDF81C009DF81F1011440873E9
:1051A0009DF81D009DF81F101144487300208DF8D4
:1051B0000B008DF80B00FFE79DF80B00032813DCB4
:1051C000FFE79DF80B2040F22410C2F2000050F8D7
:1051D000220000BA03A941F82200FFE79DF80B0066
:1051E00001308DF80B00E7E7FDF758FF03A8042115
:1051F000FDF734FF019001999DF81F2040F2241023
:10520000C2F20000024491730199C1F301219DF89B
:105210001F200244D1739DF81F100A180021117439
:105220009DF81F20024451741421FDF7E7FE08B0D9
:1052300080BD00BF00007A4480B586B00590059817
:105240000078062827D0FFE74FF2E870C1F6FF701C
:10525000006804904FF2EC70C1F6FF700068039094
:105260004FF2F070C1F6FF70006802900299049846
:1052700008440490049868B1FFE704980599023146
:105280000822FEF789FE0398059912310422FEF7E1
:1052900083FEFFE711E042F20010C4F20200006852
:1052A0000190019840B1FFE7019805994880BDF849
:1052B000060005998880FFE7FFE706B080BD000083
:1052C00081B000900099086840F04000086001B08B
:1052D0007047000082B00190ADF80210BDF80200E6
:1052E0000199C86002B0704780B586B005900598F6
:1052F000049043F60001C4F20001884219D0FFE790
:10530000049843F60041C4F2000188421AD0FFE736
:10531000049843F20001C4F2010188421BD1FFE767
:105320004FF443700390FFF781FE0398FFF76AFE86
:1053300012E040F20E400290FFF778FE0298FFF76D
:1053400061FE09E040F20F400190FFF76FFE019807
:10535000FFF758FE00E0FFE706B080BD83B0029083
:10536000019100208DF8030002988068019908429D
:1053700004D0FFE701208DF8030003E000208DF842
:105380000300FFE79DF8030003B0704783B002906D
:10539000019100200090029800680090009800F4AD
:1053A00041500090019801680098084300900198CE
:1053B000416800980843009001988168009808436C
:1053C00000900198C1680098084300900198016915
:1053D00000980843009001984169009808430090A4
:1053E000019881690098084300900098029908602C
:1053F0000299C86920F40060C86103B070470000DA
:1054000081B000900099486840F00400486001B005
:105410007047000081B0009000990020086000995A
:105420004860009988600099C860009908610099F7
:1054300048610099886101B07047000085B0002084
:105440000490039041F20001C4F20201086840F4A4
:1054500080300860FFE704980130049041F20000BA
:10546000C4F20200006800F400300390FFE70399E3
:105470000020019041B9FFE704984FF6FF71401AF0
:1054800018BF01200190FFE70198C0070028E2D172
:10549000FFE741F20000C4F2020000688003002828
:1054A00002D4FFE7FFE7FEE742F20001C4F2020187
:1054B0000868032262F30200086041F20401C4F2AA
:1054C000020100910868086008680860086840F4F4
:1054D0008060086008684FF6FF72CDF6C372104016
:1054E000086008680022C2F235021043086041F2E9
:1054F0002C01C4F2020108684FF20002CBF6FE72E2
:1055000010400860086840F61902C0F2010210431A
:10551000086041F20001C4F20201086840F08060B6
:105520000860FFE741F20000C4F2020000680001D9
:10553000002801D4FFE7F5E741F20001C4F20201BF
:10554000086840F080700860FFE741F20000C4F294
:10555000020000688001002801D4FFE7F5E741F26E
:105560000401C4F2020108680290029820F00300CE
:105570000290029840F00200029002980860FFE753
:1055800041F20400C4F2020000680007002801D4C0
:10559000FFE7F5E705B0704780B5FFF74FFF80BD27
:1055A00080B540F20000C2F20000006844F6D3511A
:1055B000C1F26201A0FB01108009FCF7D9FA10B119
:1055C000FFE7FFE7FEE74FF0FF300021FBF748FD64
:1055D00080BD000080B5FEF71BFD02F0B3FD80BD6D
:1055E00080B594B040F20B60FFF7F8FC40F20B304E
:1055F0000190FFF71BFD0198FFF704FD42F6004004
:10560000C4F20100089000F07DFB0DA8029000F0AC
:1056100079FE0299089800220592ADF83420ADF881
:105620003620ADF8382040F6B7330F93ADF8402060
:105630008DF8422000F070FC11A8039000F050FBA0
:10564000039A05990898ADF84410ADF84610ADF8E6
:105650004810ADF84A10ADF84C10ADF84E1000F0FF
:1056600027F9039A059B089801210791ADF844108A
:10567000ADF8483000F01CF9079908980F9A5208C5
:1056800000F0C4FA0898502100F0E0FD0599089850
:10569000642200F0BBFA05990898602200F070FAC5
:1056A00007990898702200F06BFA0599089808226B
:1056B000049200F0CFFA049A0799089800F0CAFA09
:1056C0000DF12600069000F08BF8059A06990898CF
:1056D000ADF82620ADF828203223ADF82A30ADF8F9
:1056E0002C204FF48043ADF82E304FF48073ADF88A
:1056F0003030ADF8322000F05DF80799089800F0DE
:10570000B5FD089800F04CF8089800F0FBFB14B0C9
:1057100080BD000080B590B040F20470FFF75EFCE1
:1057200040F204400190FFF781FC0198FFF76AFC0A
:1057300041F20000C4F20000049000F0E3FA09A86E
:10574000029000F0DFFD029904980222ADF82420B7
:105750000022ADF82620ADF8282040F69F730B9369
:10576000ADF830208DF8322000F0D6FB04980121EE
:10577000039100F043FD0399049800F035FD04986F
:10578000202100F063FD0399049800F06FFD049858
:1057900000F006F8049800F0B5FB10B080BD0000E2
:1057A00081B000900099086840F08000086001B066
:1057B0007047000082B001900091009908884A88E3
:1057C00010438A881043CA8810430A8910434A89C3
:1057D0001043898908430199486402B0704700006A
:1057E00081B00090009900200880009948800099BD
:1057F00088800099C88000990881009948810099A3
:10580000888101B07047000083B00290ADF80610A7
:10581000ADF80420BDF8060001460091032836D8F3
:105820000099DFE801F0020E1B270299886920F039
:105830000C008861BDF804200299886910438861D2
:1058400026E00299886920F440608861BDF8042050
:105850000299886940EA0220886119E00299C869C2
:1058600020F00C00C861BDF804200299C8691043FB
:10587000C8610DE00299C86920F44060C861BDF8B4
:1058800004200299C86940EA0220C86100E0FFE7ED
:1058900003B0704781B00090009900200880009A02
:1058A00001215180009988800099C88001B070471B
:1058B00084B00390ADF80A100192BDF80A000146C9
:1058C0000091032800F259810099DFE811F00400EB
:1058D0005D00BC001B010399086A20F0010008620A
:1058E000019802880399086A104308620399086ABC
:1058F00020F002000862019882880399086A104328
:105900000862039842F60041C4F20101884208D0BF
:10591000FFE7039843F20041C4F2010188422DD110
:10592000FFE70399086A20F00400086201984288A2
:105930000399086A104308620399086A20F0080076
:1059400008620198C2880399086A104308620399A3
:10595000486820F48070486001980289039948687B
:10596000104348600399486820F40070486001982B
:1059700042890399486810434860FFE703998869A2
:1059800020F003008861F9E00399086A20F0100014
:105990000862019802880399086A40EA02100862C6
:1059A0000399086A20F02000086201988288039910
:1059B000086A40EA02100862039842F60041C4F205
:1059C0000101884208D0FFE7039843F20041C4F286
:1059D0000101884231D1FFE70399086A20F04000B5
:1059E0000862019842880399086A40EA0210086236
:1059F0000399086A20F0800008620198C288039920
:105A0000086A40EA021008620399486820F480603E
:105A10004860019802890399486840EA820048601A
:105A20000399486820F4006048600198428903990E
:105A3000486840EA82004860FFE70399886920F4DB
:105A4000407088619AE00399086A20F480700862C7
:105A5000019802880399086A40EA022008620399C3
:105A6000086A20F400700862019882880399086A25
:105A700040EA02200862039842F60041C4F20101A4
:105A8000884208D0FFE7039843F20041C4F20101C5
:105A9000884231D1FFE70399086A20F480600862E8
:105AA000019842880399086A40EA02200862039933
:105AB000086A20F4006008620198C2880399086AA5
:105AC00040EA022008620399486820F48050486048
:105AD000019802890399486840EA021048600399D6
